{
	"EVoting.sol": {
		"EVoting": {
			"abi": [
				{
					"inputs": [],
					"stateMutability": "nonpayable",
					"type": "constructor"
				},
				{
					"anonymous": false,
					"inputs": [
						{
							"indexed": true,
							"internalType": "uint256",
							"name": "candidateId",
							"type": "uint256"
						},
						{
							"indexed": false,
							"internalType": "string",
							"name": "name",
							"type": "string"
						}
					],
					"name": "CandidateAdded",
					"type": "event"
				},
				{
					"anonymous": false,
					"inputs": [
						{
							"indexed": true,
							"internalType": "address",
							"name": "voter",
							"type": "address"
						},
						{
							"indexed": true,
							"internalType": "uint256",
							"name": "candidateId",
							"type": "uint256"
						}
					],
					"name": "VoteCast",
					"type": "event"
				},
				{
					"anonymous": false,
					"inputs": [
						{
							"indexed": true,
							"internalType": "address",
							"name": "voter",
							"type": "address"
						},
						{
							"indexed": false,
							"internalType": "string",
							"name": "aadhaarHash",
							"type": "string"
						}
					],
					"name": "VoterRegistered",
					"type": "event"
				},
				{
					"inputs": [
						{
							"internalType": "string",
							"name": "",
							"type": "string"
						}
					],
					"name": "aadhaarRegistered",
					"outputs": [
						{
							"internalType": "bool",
							"name": "",
							"type": "bool"
						}
					],
					"stateMutability": "view",
					"type": "function"
				},
				{
					"inputs": [
						{
							"internalType": "string",
							"name": "name",
							"type": "string"
						},
						{
							"internalType": "string",
							"name": "description",
							"type": "string"
						}
					],
					"name": "addCandidate",
					"outputs": [],
					"stateMutability": "nonpayable",
					"type": "function"
				},
				{
					"inputs": [],
					"name": "admin",
					"outputs": [
						{
							"internalType": "address",
							"name": "",
							"type": "address"
						}
					],
					"stateMutability": "view",
					"type": "function"
				},
				{
					"inputs": [],
					"name": "candidateCount",
					"outputs": [
						{
							"internalType": "uint256",
							"name": "",
							"type": "uint256"
						}
					],
					"stateMutability": "view",
					"type": "function"
				},
				{
					"inputs": [
						{
							"internalType": "uint256",
							"name": "",
							"type": "uint256"
						}
					],
					"name": "candidates",
					"outputs": [
						{
							"internalType": "string",
							"name": "name",
							"type": "string"
						},
						{
							"internalType": "string",
							"name": "description",
							"type": "string"
						},
						{
							"internalType": "uint256",
							"name": "voteCount",
							"type": "uint256"
						},
						{
							"internalType": "bool",
							"name": "isActive",
							"type": "bool"
						}
					],
					"stateMutability": "view",
					"type": "function"
				},
				{
					"inputs": [
						{
							"internalType": "uint256",
							"name": "id",
							"type": "uint256"
						}
					],
					"name": "getCandidate",
					"outputs": [
						{
							"internalType": "string",
							"name": "name",
							"type": "string"
						},
						{
							"internalType": "string",
							"name": "description",
							"type": "string"
						},
						{
							"internalType": "uint256",
							"name": "voteCount",
							"type": "uint256"
						},
						{
							"internalType": "bool",
							"name": "isActive",
							"type": "bool"
						}
					],
					"stateMutability": "view",
					"type": "function"
				},
				{
					"inputs": [
						{
							"internalType": "address",
							"name": "account",
							"type": "address"
						}
					],
					"name": "hasUserVoted",
					"outputs": [
						{
							"internalType": "bool",
							"name": "",
							"type": "bool"
						}
					],
					"stateMutability": "view",
					"type": "function"
				},
				{
					"inputs": [
						{
							"internalType": "address",
							"name": "account",
							"type": "address"
						}
					],
					"name": "isRegistered",
					"outputs": [
						{
							"internalType": "bool",
							"name": "",
							"type": "bool"
						}
					],
					"stateMutability": "view",
					"type": "function"
				},
				{
					"inputs": [
						{
							"internalType": "string",
							"name": "aadhaarHash",
							"type": "string"
						},
						{
							"internalType": "uint256",
							"name": "age",
							"type": "uint256"
						}
					],
					"name": "registerVoter",
					"outputs": [],
					"stateMutability": "nonpayable",
					"type": "function"
				},
				{
					"inputs": [
						{
							"internalType": "uint256",
							"name": "candidateId",
							"type": "uint256"
						}
					],
					"name": "vote",
					"outputs": [],
					"stateMutability": "nonpayable",
					"type": "function"
				},
				{
					"inputs": [],
					"name": "voterCount",
					"outputs": [
						{
							"internalType": "uint256",
							"name": "",
							"type": "uint256"
						}
					],
					"stateMutability": "view",
					"type": "function"
				},
				{
					"inputs": [
						{
							"internalType": "address",
							"name": "",
							"type": "address"
						}
					],
					"name": "voters",
					"outputs": [
						{
							"internalType": "bool",
							"name": "isRegistered",
							"type": "bool"
						},
						{
							"internalType": "bool",
							"name": "hasVoted",
							"type": "bool"
						},
						{
							"internalType": "string",
							"name": "aadhaarHash",
							"type": "string"
						},
						{
							"internalType": "uint256",
							"name": "age",
							"type": "uint256"
						},
						{
							"internalType": "uint256",
							"name": "votedCandidateId",
							"type": "uint256"
						}
					],
					"stateMutability": "view",
					"type": "function"
				}
			],
			"devdoc": {
				"kind": "dev",
				"methods": {},
				"version": 1
			},
			"evm": {
				"assembly": "    /* \"EVoting.sol\":61:3366  contract EVoting {... */\n  mstore(0x40, 0x80)\n    /* \"EVoting.sol\":855:906  constructor() {... */\n  callvalue\n  dup1\n  iszero\n  tag_1\n  jumpi\n  revert(0x00, 0x00)\ntag_1:\n  pop\n    /* \"EVoting.sol\":888:898  msg.sender */\n  caller\n    /* \"EVoting.sol\":880:885  admin */\n  0x00\n  0x00\n    /* \"EVoting.sol\":880:898  admin = msg.sender */\n  0x0100\n  exp\n  dup2\n  sload\n  dup2\n  0xffffffffffffffffffffffffffffffffffffffff\n  mul\n  not\n  and\n  swap1\n  dup4\n  0xffffffffffffffffffffffffffffffffffffffff\n  and\n  mul\n  or\n  swap1\n  sstore\n  pop\n    /* \"EVoting.sol\":61:3366  contract EVoting {... */\n  dataSize(sub_0)\n  dup1\n  dataOffset(sub_0)\n  0x00\n  codecopy\n  0x00\n  return\nstop\n\nsub_0: assembly {\n        /* \"EVoting.sol\":61:3366  contract EVoting {... */\n      mstore(0x40, 0x80)\n      callvalue\n      dup1\n      iszero\n      tag_1\n      jumpi\n      revert(0x00, 0x00)\n    tag_1:\n      pop\n      jumpi(tag_2, lt(calldatasize, 0x04))\n      shr(0xe0, calldataload(0x00))\n      dup1\n      0xa3ec138d\n      gt\n      tag_15\n      jumpi\n      dup1\n      0xa3ec138d\n      eq\n      tag_9\n      jumpi\n      dup1\n      0xa9a981a3\n      eq\n      tag_10\n      jumpi\n      dup1\n      0xc3c5a547\n      eq\n      tag_11\n      jumpi\n      dup1\n      0xd771fe7e\n      eq\n      tag_12\n      jumpi\n      dup1\n      0xe661ea5f\n      eq\n      tag_13\n      jumpi\n      dup1\n      0xf851a440\n      eq\n      tag_14\n      jumpi\n      jump(tag_2)\n    tag_15:\n      dup1\n      0x0121b93f\n      eq\n      tag_3\n      jumpi\n      dup1\n      0x26541b56\n      eq\n      tag_4\n      jumpi\n      dup1\n      0x3477ee2e\n      eq\n      tag_5\n      jumpi\n      dup1\n      0x35b8e820\n      eq\n      tag_6\n      jumpi\n      dup1\n      0x42169e48\n      eq\n      tag_7\n      jumpi\n      dup1\n      0x7fabe80a\n      eq\n      tag_8\n      jumpi\n    tag_2:\n      revert(0x00, 0x00)\n        /* \"EVoting.sol\":2214:2775  function vote(uint256 candidateId) external {... */\n    tag_3:\n      tag_16\n      0x04\n      dup1\n      calldatasize\n      sub\n      dup2\n      add\n      swap1\n      tag_17\n      swap2\n      swap1\n      tag_18\n      jump\t// in\n    tag_17:\n      tag_19\n      jump\t// in\n    tag_16:\n      stop\n        /* \"EVoting.sol\":1751:2206  function addCandidate(string calldata name, string calldata description) ... */\n    tag_4:\n      tag_20\n      0x04\n      dup1\n      calldatasize\n      sub\n      dup2\n      add\n      swap1\n      tag_21\n      swap2\n      swap1\n      tag_22\n      jump\t// in\n    tag_21:\n      tag_23\n      jump\t// in\n    tag_20:\n      stop\n        /* \"EVoting.sol\":516:563  mapping(uint256 => Candidate) public candidates */\n    tag_5:\n      tag_24\n      0x04\n      dup1\n      calldatasize\n      sub\n      dup2\n      add\n      swap1\n      tag_25\n      swap2\n      swap1\n      tag_18\n      jump\t// in\n    tag_25:\n      tag_26\n      jump\t// in\n    tag_24:\n      mload(0x40)\n      tag_27\n      swap5\n      swap4\n      swap3\n      swap2\n      swap1\n      tag_28\n      jump\t// in\n    tag_27:\n      mload(0x40)\n      dup1\n      swap2\n      sub\n      swap1\n      return\n        /* \"EVoting.sol\":3062:3363  function getCandidate(uint256 id) external view returns (... */\n    tag_6:\n      tag_29\n      0x04\n      dup1\n      calldatasize\n      sub\n      dup2\n      add\n      swap1\n      tag_30\n      swap2\n      swap1\n      tag_18\n      jump\t// in\n    tag_30:\n      tag_31\n      jump\t// in\n    tag_29:\n      mload(0x40)\n      tag_32\n      swap5\n      swap4\n      swap3\n      swap2\n      swap1\n      tag_28\n      jump\t// in\n    tag_32:\n      mload(0x40)\n      dup1\n      swap2\n      sub\n      swap1\n      return\n        /* \"EVoting.sol\":606:631  uint256 public voterCount */\n    tag_7:\n      tag_33\n      tag_34\n      jump\t// in\n    tag_33:\n      mload(0x40)\n      tag_35\n      swap2\n      swap1\n      tag_36\n      jump\t// in\n    tag_35:\n      mload(0x40)\n      dup1\n      swap2\n      sub\n      swap1\n      return\n        /* \"EVoting.sol\":2936:3054  function hasUserVoted(address account) external view returns (bool) {... */\n    tag_8:\n      tag_37\n      0x04\n      dup1\n      calldatasize\n      sub\n      dup2\n      add\n      swap1\n      tag_38\n      swap2\n      swap1\n      tag_39\n      jump\t// in\n    tag_38:\n      tag_40\n      jump\t// in\n    tag_37:\n      mload(0x40)\n      tag_41\n      swap2\n      swap1\n      tag_42\n      jump\t// in\n    tag_41:\n      mload(0x40)\n      dup1\n      swap2\n      sub\n      swap1\n      return\n        /* \"EVoting.sol\":415:454  mapping(address => Voter) public voters */\n    tag_9:\n      tag_43\n      0x04\n      dup1\n      calldatasize\n      sub\n      dup2\n      add\n      swap1\n      tag_44\n      swap2\n      swap1\n      tag_39\n      jump\t// in\n    tag_44:\n      tag_45\n      jump\t// in\n    tag_43:\n      mload(0x40)\n      tag_46\n      swap6\n      swap5\n      swap4\n      swap3\n      swap2\n      swap1\n      tag_47\n      jump\t// in\n    tag_46:\n      mload(0x40)\n      dup1\n      swap2\n      sub\n      swap1\n      return\n        /* \"EVoting.sol\":570:599  uint256 public candidateCount */\n    tag_10:\n      tag_48\n      tag_49\n      jump\t// in\n    tag_48:\n      mload(0x40)\n      tag_50\n      swap2\n      swap1\n      tag_36\n      jump\t// in\n    tag_50:\n      mload(0x40)\n      dup1\n      swap2\n      sub\n      swap1\n      return\n        /* \"EVoting.sol\":2806:2928  function isRegistered(address account) external view returns (bool) {... */\n    tag_11:\n      tag_51\n      0x04\n      dup1\n      calldatasize\n      sub\n      dup2\n      add\n      swap1\n      tag_52\n      swap2\n      swap1\n      tag_39\n      jump\t// in\n    tag_52:\n      tag_53\n      jump\t// in\n    tag_51:\n      mload(0x40)\n      tag_54\n      swap2\n      swap1\n      tag_42\n      jump\t// in\n    tag_54:\n      mload(0x40)\n      dup1\n      swap2\n      sub\n      swap1\n      return\n        /* \"EVoting.sol\":461:509  mapping(string => bool) public aadhaarRegistered */\n    tag_12:\n      tag_55\n      0x04\n      dup1\n      calldatasize\n      sub\n      dup2\n      add\n      swap1\n      tag_56\n      swap2\n      swap1\n      tag_57\n      jump\t// in\n    tag_56:\n      tag_58\n      jump\t// in\n    tag_55:\n      mload(0x40)\n      tag_59\n      swap2\n      swap1\n      tag_42\n      jump\t// in\n    tag_59:\n      mload(0x40)\n      dup1\n      swap2\n      sub\n      swap1\n      return\n        /* \"EVoting.sol\":1040:1743  function registerVoter(string calldata aadhaarHash, uint256 age) external {... */\n    tag_13:\n      tag_60\n      0x04\n      dup1\n      calldatasize\n      sub\n      dup2\n      add\n      swap1\n      tag_61\n      swap2\n      swap1\n      tag_62\n      jump\t// in\n    tag_61:\n      tag_63\n      jump\t// in\n    tag_60:\n      stop\n        /* \"EVoting.sol\":388:408  address public admin */\n    tag_14:\n      tag_64\n      tag_65\n      jump\t// in\n    tag_64:\n      mload(0x40)\n      tag_66\n      swap2\n      swap1\n      tag_67\n      jump\t// in\n    tag_66:\n      mload(0x40)\n      dup1\n      swap2\n      sub\n      swap1\n      return\n        /* \"EVoting.sol\":2214:2775  function vote(uint256 candidateId) external {... */\n    tag_19:\n        /* \"EVoting.sol\":2277:2283  voters */\n      0x01\n        /* \"EVoting.sol\":2277:2295  voters[msg.sender] */\n      0x00\n        /* \"EVoting.sol\":2284:2294  msg.sender */\n      caller\n        /* \"EVoting.sol\":2277:2295  voters[msg.sender] */\n      0xffffffffffffffffffffffffffffffffffffffff\n      and\n      0xffffffffffffffffffffffffffffffffffffffff\n      and\n      dup2\n      mstore\n      0x20\n      add\n      swap1\n      dup2\n      mstore\n      0x20\n      add\n      0x00\n      keccak256\n        /* \"EVoting.sol\":2277:2308  voters[msg.sender].isRegistered */\n      0x00\n      add\n      0x00\n      swap1\n      sload\n      swap1\n      0x0100\n      exp\n      swap1\n      div\n      0xff\n      and\n        /* \"EVoting.sol\":2269:2333  require(voters[msg.sender].isRegistered, \"Voter not registered\") */\n      tag_69\n      jumpi\n      mload(0x40)\n      0x08c379a000000000000000000000000000000000000000000000000000000000\n      dup2\n      mstore\n      0x04\n      add\n      tag_70\n      swap1\n      tag_71\n      jump\t// in\n    tag_70:\n      mload(0x40)\n      dup1\n      swap2\n      sub\n      swap1\n      revert\n    tag_69:\n        /* \"EVoting.sol\":2353:2359  voters */\n      0x01\n        /* \"EVoting.sol\":2353:2371  voters[msg.sender] */\n      0x00\n        /* \"EVoting.sol\":2360:2370  msg.sender */\n      caller\n        /* \"EVoting.sol\":2353:2371  voters[msg.sender] */\n      0xffffffffffffffffffffffffffffffffffffffff\n      and\n      0xffffffffffffffffffffffffffffffffffffffff\n      and\n      dup2\n      mstore\n      0x20\n      add\n      swap1\n      dup2\n      mstore\n      0x20\n      add\n      0x00\n      keccak256\n        /* \"EVoting.sol\":2353:2380  voters[msg.sender].hasVoted */\n      0x00\n      add\n      0x01\n      swap1\n      sload\n      swap1\n      0x0100\n      exp\n      swap1\n      div\n      0xff\n      and\n        /* \"EVoting.sol\":2352:2380  !voters[msg.sender].hasVoted */\n      iszero\n        /* \"EVoting.sol\":2344:2398  require(!voters[msg.sender].hasVoted, \"Already voted\") */\n      tag_72\n      jumpi\n      mload(0x40)\n      0x08c379a000000000000000000000000000000000000000000000000000000000\n      dup2\n      mstore\n      0x04\n      add\n      tag_73\n      swap1\n      tag_74\n      jump\t// in\n    tag_73:\n      mload(0x40)\n      dup1\n      swap2\n      sub\n      swap1\n      revert\n    tag_72:\n        /* \"EVoting.sol\":2431:2432  0 */\n      0x00\n        /* \"EVoting.sol\":2417:2428  candidateId */\n      dup2\n        /* \"EVoting.sol\":2417:2432  candidateId > 0 */\n      gt\n        /* \"EVoting.sol\":2417:2465  candidateId > 0 && candidateId <= candidateCount */\n      dup1\n      iszero\n      tag_75\n      jumpi\n      pop\n        /* \"EVoting.sol\":2451:2465  candidateCount */\n      sload(0x04)\n        /* \"EVoting.sol\":2436:2447  candidateId */\n      dup2\n        /* \"EVoting.sol\":2436:2465  candidateId <= candidateCount */\n      gt\n      iszero\n        /* \"EVoting.sol\":2417:2465  candidateId > 0 && candidateId <= candidateCount */\n    tag_75:\n        /* \"EVoting.sol\":2409:2487  require(candidateId > 0 && candidateId <= candidateCount, \"Invalid candidate\") */\n      tag_76\n      jumpi\n      mload(0x40)\n      0x08c379a000000000000000000000000000000000000000000000000000000000\n      dup2\n      mstore\n      0x04\n      add\n      tag_77\n      swap1\n      tag_78\n      jump\t// in\n    tag_77:\n      mload(0x40)\n      dup1\n      swap2\n      sub\n      swap1\n      revert\n    tag_76:\n        /* \"EVoting.sol\":2506:2516  candidates */\n      0x03\n        /* \"EVoting.sol\":2506:2529  candidates[candidateId] */\n      0x00\n        /* \"EVoting.sol\":2517:2528  candidateId */\n      dup3\n        /* \"EVoting.sol\":2506:2529  candidates[candidateId] */\n      dup2\n      mstore\n      0x20\n      add\n      swap1\n      dup2\n      mstore\n      0x20\n      add\n      0x00\n      keccak256\n        /* \"EVoting.sol\":2506:2538  candidates[candidateId].isActive */\n      0x03\n      add\n      0x00\n      swap1\n      sload\n      swap1\n      0x0100\n      exp\n      swap1\n      div\n      0xff\n      and\n        /* \"EVoting.sol\":2498:2563  require(candidates[candidateId].isActive, \"Candidate not active\") */\n      tag_79\n      jumpi\n      mload(0x40)\n      0x08c379a000000000000000000000000000000000000000000000000000000000\n      dup2\n      mstore\n      0x04\n      add\n      tag_80\n      swap1\n      tag_81\n      jump\t// in\n    tag_80:\n      mload(0x40)\n      dup1\n      swap2\n      sub\n      swap1\n      revert\n    tag_79:\n        /* \"EVoting.sol\":2606:2610  true */\n      0x01\n        /* \"EVoting.sol\":2576:2582  voters */\n      dup1\n        /* \"EVoting.sol\":2576:2594  voters[msg.sender] */\n      0x00\n        /* \"EVoting.sol\":2583:2593  msg.sender */\n      caller\n        /* \"EVoting.sol\":2576:2594  voters[msg.sender] */\n      0xffffffffffffffffffffffffffffffffffffffff\n      and\n      0xffffffffffffffffffffffffffffffffffffffff\n      and\n      dup2\n      mstore\n      0x20\n      add\n      swap1\n      dup2\n      mstore\n      0x20\n      add\n      0x00\n      keccak256\n        /* \"EVoting.sol\":2576:2603  voters[msg.sender].hasVoted */\n      0x00\n      add\n      0x01\n        /* \"EVoting.sol\":2576:2610  voters[msg.sender].hasVoted = true */\n      0x0100\n      exp\n      dup2\n      sload\n      dup2\n      0xff\n      mul\n      not\n      and\n      swap1\n      dup4\n      iszero\n      iszero\n      mul\n      or\n      swap1\n      sstore\n      pop\n        /* \"EVoting.sol\":2659:2670  candidateId */\n      dup1\n        /* \"EVoting.sol\":2621:2627  voters */\n      0x01\n        /* \"EVoting.sol\":2621:2639  voters[msg.sender] */\n      0x00\n        /* \"EVoting.sol\":2628:2638  msg.sender */\n      caller\n        /* \"EVoting.sol\":2621:2639  voters[msg.sender] */\n      0xffffffffffffffffffffffffffffffffffffffff\n      and\n      0xffffffffffffffffffffffffffffffffffffffff\n      and\n      dup2\n      mstore\n      0x20\n      add\n      swap1\n      dup2\n      mstore\n      0x20\n      add\n      0x00\n      keccak256\n        /* \"EVoting.sol\":2621:2656  voters[msg.sender].votedCandidateId */\n      0x03\n      add\n        /* \"EVoting.sol\":2621:2670  voters[msg.sender].votedCandidateId = candidateId */\n      dup2\n      swap1\n      sstore\n      pop\n        /* \"EVoting.sol\":2681:2691  candidates */\n      0x03\n        /* \"EVoting.sol\":2681:2704  candidates[candidateId] */\n      0x00\n        /* \"EVoting.sol\":2692:2703  candidateId */\n      dup3\n        /* \"EVoting.sol\":2681:2704  candidates[candidateId] */\n      dup2\n      mstore\n      0x20\n      add\n      swap1\n      dup2\n      mstore\n      0x20\n      add\n      0x00\n      keccak256\n        /* \"EVoting.sol\":2681:2714  candidates[candidateId].voteCount */\n      0x02\n      add\n      0x00\n        /* \"EVoting.sol\":2681:2716  candidates[candidateId].voteCount++ */\n      dup2\n      sload\n      dup1\n      swap3\n      swap2\n      swap1\n      tag_82\n      swap1\n      tag_83\n      jump\t// in\n    tag_82:\n      swap2\n      swap1\n      pop\n      sstore\n      pop\n        /* \"EVoting.sol\":2755:2766  candidateId */\n      dup1\n        /* \"EVoting.sol\":2743:2753  msg.sender */\n      caller\n        /* \"EVoting.sol\":2734:2767  VoteCast(msg.sender, candidateId) */\n      0xffffffffffffffffffffffffffffffffffffffff\n      and\n      0xa36cc2bebb74db33e9f88110a07ef56e1b31b24b4c4f51b54b1664266e29f45b\n      mload(0x40)\n      mload(0x40)\n      dup1\n      swap2\n      sub\n      swap1\n      log3\n        /* \"EVoting.sol\":2214:2775  function vote(uint256 candidateId) external {... */\n      pop\n      jump\t// out\n        /* \"EVoting.sol\":1751:2206  function addCandidate(string calldata name, string calldata description) ... */\n    tag_23:\n        /* \"EVoting.sol\":968:973  admin */\n      0x00\n      0x00\n      swap1\n      sload\n      swap1\n      0x0100\n      exp\n      swap1\n      div\n      0xffffffffffffffffffffffffffffffffffffffff\n      and\n        /* \"EVoting.sol\":954:973  msg.sender == admin */\n      0xffffffffffffffffffffffffffffffffffffffff\n      and\n        /* \"EVoting.sol\":954:964  msg.sender */\n      caller\n        /* \"EVoting.sol\":954:973  msg.sender == admin */\n      0xffffffffffffffffffffffffffffffffffffffff\n      and\n      eq\n        /* \"EVoting.sol\":946:1012  require(msg.sender == admin, \"Only admin can perform this action\") */\n      tag_85\n      jumpi\n      mload(0x40)\n      0x08c379a000000000000000000000000000000000000000000000000000000000\n      dup2\n      mstore\n      0x04\n      add\n      tag_86\n      swap1\n      tag_87\n      jump\t// in\n    tag_86:\n      mload(0x40)\n      dup1\n      swap2\n      sub\n      swap1\n      revert\n    tag_85:\n        /* \"EVoting.sol\":1909:1910  0 */\n      0x00\n        /* \"EVoting.sol\":1894:1898  name */\n      dup5\n      dup5\n        /* \"EVoting.sol\":1888:1906  bytes(name).length */\n      swap1\n      pop\n        /* \"EVoting.sol\":1888:1910  bytes(name).length > 0 */\n      gt\n        /* \"EVoting.sol\":1880:1935  require(bytes(name).length > 0, \"Name cannot be empty\") */\n      tag_89\n      jumpi\n      mload(0x40)\n      0x08c379a000000000000000000000000000000000000000000000000000000000\n      dup2\n      mstore\n      0x04\n      add\n      tag_90\n      swap1\n      tag_91\n      jump\t// in\n    tag_90:\n      mload(0x40)\n      dup1\n      swap2\n      sub\n      swap1\n      revert\n    tag_89:\n        /* \"EVoting.sol\":1946:1960  candidateCount */\n      0x04\n      0x00\n        /* \"EVoting.sol\":1946:1962  candidateCount++ */\n      dup2\n      sload\n      dup1\n      swap3\n      swap2\n      swap1\n      tag_92\n      swap1\n      tag_83\n      jump\t// in\n    tag_92:\n      swap2\n      swap1\n      pop\n      sstore\n      pop\n        /* \"EVoting.sol\":2002:2144  Candidate({... */\n      mload(0x40)\n      dup1\n      0x80\n      add\n      0x40\n      mstore\n      dup1\n        /* \"EVoting.sol\":2033:2037  name */\n      dup6\n      dup6\n        /* \"EVoting.sol\":2002:2144  Candidate({... */\n      dup1\n      dup1\n      0x1f\n      add\n      0x20\n      dup1\n      swap2\n      div\n      mul\n      0x20\n      add\n      mload(0x40)\n      swap1\n      dup2\n      add\n      0x40\n      mstore\n      dup1\n      swap4\n      swap3\n      swap2\n      swap1\n      dup2\n      dup2\n      mstore\n      0x20\n      add\n      dup4\n      dup4\n      dup1\n      dup3\n      dup5\n      calldatacopy\n      0x00\n      dup2\n      dup5\n      add\n      mstore\n      not(0x1f)\n      0x1f\n      dup3\n      add\n      and\n      swap1\n      pop\n      dup1\n      dup4\n      add\n      swap3\n      pop\n      pop\n      pop\n      pop\n      pop\n      pop\n      pop\n      dup2\n      mstore\n      0x20\n      add\n        /* \"EVoting.sol\":2065:2076  description */\n      dup4\n      dup4\n        /* \"EVoting.sol\":2002:2144  Candidate({... */\n      dup1\n      dup1\n      0x1f\n      add\n      0x20\n      dup1\n      swap2\n      div\n      mul\n      0x20\n      add\n      mload(0x40)\n      swap1\n      dup2\n      add\n      0x40\n      mstore\n      dup1\n      swap4\n      swap3\n      swap2\n      swap1\n      dup2\n      dup2\n      mstore\n      0x20\n      add\n      dup4\n      dup4\n      dup1\n      dup3\n      dup5\n      calldatacopy\n      0x00\n      dup2\n      dup5\n      add\n      mstore\n      not(0x1f)\n      0x1f\n      dup3\n      add\n      and\n      swap1\n      pop\n      dup1\n      dup4\n      add\n      swap3\n      pop\n      pop\n      pop\n      pop\n      pop\n      pop\n      pop\n      dup2\n      mstore\n      0x20\n      add\n        /* \"EVoting.sol\":2102:2103  0 */\n      0x00\n        /* \"EVoting.sol\":2002:2144  Candidate({... */\n      dup2\n      mstore\n      0x20\n      add\n        /* \"EVoting.sol\":2128:2132  true */\n      0x01\n        /* \"EVoting.sol\":2002:2144  Candidate({... */\n      iszero\n      iszero\n      dup2\n      mstore\n      pop\n        /* \"EVoting.sol\":1973:1983  candidates */\n      0x03\n        /* \"EVoting.sol\":1973:1999  candidates[candidateCount] */\n      0x00\n        /* \"EVoting.sol\":1984:1998  candidateCount */\n      sload(0x04)\n        /* \"EVoting.sol\":1973:1999  candidates[candidateCount] */\n      dup2\n      mstore\n      0x20\n      add\n      swap1\n      dup2\n      mstore\n      0x20\n      add\n      0x00\n      keccak256\n        /* \"EVoting.sol\":1973:2144  candidates[candidateCount] = Candidate({... */\n      0x00\n      dup3\n      add\n      mload\n      dup2\n      0x00\n      add\n      swap1\n      dup2\n      tag_93\n      swap2\n      swap1\n      tag_94\n      jump\t// in\n    tag_93:\n      pop\n      0x20\n      dup3\n      add\n      mload\n      dup2\n      0x01\n      add\n      swap1\n      dup2\n      tag_95\n      swap2\n      swap1\n      tag_94\n      jump\t// in\n    tag_95:\n      pop\n      0x40\n      dup3\n      add\n      mload\n      dup2\n      0x02\n      add\n      sstore\n      0x60\n      dup3\n      add\n      mload\n      dup2\n      0x03\n      add\n      exp(0x0100, 0x00)\n      dup2\n      sload\n      dup2\n      0xff\n      mul\n      not\n      and\n      swap1\n      dup4\n      iszero\n      iszero\n      mul\n      or\n      swap1\n      sstore\n      pop\n      swap1\n      pop\n      pop\n        /* \"EVoting.sol\":2177:2191  candidateCount */\n      sload(0x04)\n        /* \"EVoting.sol\":2162:2198  CandidateAdded(candidateCount, name) */\n      0xe83b2a43e7e82d975c8a0a6d2f045153c869e111136a34d1889ab7b598e396a3\n        /* \"EVoting.sol\":2193:2197  name */\n      dup6\n      dup6\n        /* \"EVoting.sol\":2162:2198  CandidateAdded(candidateCount, name) */\n      mload(0x40)\n      tag_96\n      swap3\n      swap2\n      swap1\n      tag_97\n      jump\t// in\n    tag_96:\n      mload(0x40)\n      dup1\n      swap2\n      sub\n      swap1\n      log2\n        /* \"EVoting.sol\":1751:2206  function addCandidate(string calldata name, string calldata description) ... */\n      pop\n      pop\n      pop\n      pop\n      jump\t// out\n        /* \"EVoting.sol\":516:563  mapping(uint256 => Candidate) public candidates */\n    tag_26:\n      mstore(0x20, 0x03)\n      dup1\n      0x00\n      mstore\n      keccak256(0x00, 0x40)\n      0x00\n      swap2\n      pop\n      swap1\n      pop\n      dup1\n      0x00\n      add\n      dup1\n      sload\n      tag_98\n      swap1\n      tag_99\n      jump\t// in\n    tag_98:\n      dup1\n      0x1f\n      add\n      0x20\n      dup1\n      swap2\n      div\n      mul\n      0x20\n      add\n      mload(0x40)\n      swap1\n      dup2\n      add\n      0x40\n      mstore\n      dup1\n      swap3\n      swap2\n      swap1\n      dup2\n      dup2\n      mstore\n      0x20\n      add\n      dup3\n      dup1\n      sload\n      tag_100\n      swap1\n      tag_99\n      jump\t// in\n    tag_100:\n      dup1\n      iszero\n      tag_101\n      jumpi\n      dup1\n      0x1f\n      lt\n      tag_102\n      jumpi\n      0x0100\n      dup1\n      dup4\n      sload\n      div\n      mul\n      dup4\n      mstore\n      swap2\n      0x20\n      add\n      swap2\n      jump(tag_101)\n    tag_102:\n      dup3\n      add\n      swap2\n      swap1\n      0x00\n      mstore\n      keccak256(0x00, 0x20)\n      swap1\n    tag_103:\n      dup2\n      sload\n      dup2\n      mstore\n      swap1\n      0x01\n      add\n      swap1\n      0x20\n      add\n      dup1\n      dup4\n      gt\n      tag_103\n      jumpi\n      dup3\n      swap1\n      sub\n      0x1f\n      and\n      dup3\n      add\n      swap2\n    tag_101:\n      pop\n      pop\n      pop\n      pop\n      pop\n      swap1\n      dup1\n      0x01\n      add\n      dup1\n      sload\n      tag_104\n      swap1\n      tag_99\n      jump\t// in\n    tag_104:\n      dup1\n      0x1f\n      add\n      0x20\n      dup1\n      swap2\n      div\n      mul\n      0x20\n      add\n      mload(0x40)\n      swap1\n      dup2\n      add\n      0x40\n      mstore\n      dup1\n      swap3\n      swap2\n      swap1\n      dup2\n      dup2\n      mstore\n      0x20\n      add\n      dup3\n      dup1\n      sload\n      tag_105\n      swap1\n      tag_99\n      jump\t// in\n    tag_105:\n      dup1\n      iszero\n      tag_106\n      jumpi\n      dup1\n      0x1f\n      lt\n      tag_107\n      jumpi\n      0x0100\n      dup1\n      dup4\n      sload\n      div\n      mul\n      dup4\n      mstore\n      swap2\n      0x20\n      add\n      swap2\n      jump(tag_106)\n    tag_107:\n      dup3\n      add\n      swap2\n      swap1\n      0x00\n      mstore\n      keccak256(0x00, 0x20)\n      swap1\n    tag_108:\n      dup2\n      sload\n      dup2\n      mstore\n      swap1\n      0x01\n      add\n      swap1\n      0x20\n      add\n      dup1\n      dup4\n      gt\n      tag_108\n      jumpi\n      dup3\n      swap1\n      sub\n      0x1f\n      and\n      dup3\n      add\n      swap2\n    tag_106:\n      pop\n      pop\n      pop\n      pop\n      pop\n      swap1\n      dup1\n      0x02\n      add\n      sload\n      swap1\n      dup1\n      0x03\n      add\n      0x00\n      swap1\n      sload\n      swap1\n      0x0100\n      exp\n      swap1\n      div\n      0xff\n      and\n      swap1\n      pop\n      dup5\n      jump\t// out\n        /* \"EVoting.sol\":3062:3363  function getCandidate(uint256 id) external view returns (... */\n    tag_31:\n        /* \"EVoting.sol\":3129:3147  string memory name */\n      0x60\n        /* \"EVoting.sol\":3158:3183  string memory description */\n      dup1\n        /* \"EVoting.sol\":3194:3211  uint256 voteCount */\n      0x00\n        /* \"EVoting.sol\":3222:3235  bool isActive */\n      0x00\n        /* \"EVoting.sol\":3254:3272  Candidate memory c */\n      0x00\n        /* \"EVoting.sol\":3275:3285  candidates */\n      0x03\n        /* \"EVoting.sol\":3275:3289  candidates[id] */\n      0x00\n        /* \"EVoting.sol\":3286:3288  id */\n      dup8\n        /* \"EVoting.sol\":3275:3289  candidates[id] */\n      dup2\n      mstore\n      0x20\n      add\n      swap1\n      dup2\n      mstore\n      0x20\n      add\n      0x00\n      keccak256\n        /* \"EVoting.sol\":3254:3289  Candidate memory c = candidates[id] */\n      mload(0x40)\n      dup1\n      0x80\n      add\n      0x40\n      mstore\n      swap1\n      dup2\n      0x00\n      dup3\n      add\n      dup1\n      sload\n      tag_110\n      swap1\n      tag_99\n      jump\t// in\n    tag_110:\n      dup1\n      0x1f\n      add\n      0x20\n      dup1\n      swap2\n      div\n      mul\n      0x20\n      add\n      mload(0x40)\n      swap1\n      dup2\n      add\n      0x40\n      mstore\n      dup1\n      swap3\n      swap2\n      swap1\n      dup2\n      dup2\n      mstore\n      0x20\n      add\n      dup3\n      dup1\n      sload\n      tag_111\n      swap1\n      tag_99\n      jump\t// in\n    tag_111:\n      dup1\n      iszero\n      tag_112\n      jumpi\n      dup1\n      0x1f\n      lt\n      tag_113\n      jumpi\n      0x0100\n      dup1\n      dup4\n      sload\n      div\n      mul\n      dup4\n      mstore\n      swap2\n      0x20\n      add\n      swap2\n      jump(tag_112)\n    tag_113:\n      dup3\n      add\n      swap2\n      swap1\n      0x00\n      mstore\n      keccak256(0x00, 0x20)\n      swap1\n    tag_114:\n      dup2\n      sload\n      dup2\n      mstore\n      swap1\n      0x01\n      add\n      swap1\n      0x20\n      add\n      dup1\n      dup4\n      gt\n      tag_114\n      jumpi\n      dup3\n      swap1\n      sub\n      0x1f\n      and\n      dup3\n      add\n      swap2\n    tag_112:\n      pop\n      pop\n      pop\n      pop\n      pop\n      dup2\n      mstore\n      0x20\n      add\n      0x01\n      dup3\n      add\n      dup1\n      sload\n      tag_115\n      swap1\n      tag_99\n      jump\t// in\n    tag_115:\n      dup1\n      0x1f\n      add\n      0x20\n      dup1\n      swap2\n      div\n      mul\n      0x20\n      add\n      mload(0x40)\n      swap1\n      dup2\n      add\n      0x40\n      mstore\n      dup1\n      swap3\n      swap2\n      swap1\n      dup2\n      dup2\n      mstore\n      0x20\n      add\n      dup3\n      dup1\n      sload\n      tag_116\n      swap1\n      tag_99\n      jump\t// in\n    tag_116:\n      dup1\n      iszero\n      tag_117\n      jumpi\n      dup1\n      0x1f\n      lt\n      tag_118\n      jumpi\n      0x0100\n      dup1\n      dup4\n      sload\n      div\n      mul\n      dup4\n      mstore\n      swap2\n      0x20\n      add\n      swap2\n      jump(tag_117)\n    tag_118:\n      dup3\n      add\n      swap2\n      swap1\n      0x00\n      mstore\n      keccak256(0x00, 0x20)\n      swap1\n    tag_119:\n      dup2\n      sload\n      dup2\n      mstore\n      swap1\n      0x01\n      add\n      swap1\n      0x20\n      add\n      dup1\n      dup4\n      gt\n      tag_119\n      jumpi\n      dup3\n      swap1\n      sub\n      0x1f\n      and\n      dup3\n      add\n      swap2\n    tag_117:\n      pop\n      pop\n      pop\n      pop\n      pop\n      dup2\n      mstore\n      0x20\n      add\n      0x02\n      dup3\n      add\n      sload\n      dup2\n      mstore\n      0x20\n      add\n      0x03\n      dup3\n      add\n      0x00\n      swap1\n      sload\n      swap1\n      0x0100\n      exp\n      swap1\n      div\n      0xff\n      and\n      iszero\n      iszero\n      iszero\n      iszero\n      dup2\n      mstore\n      pop\n      pop\n      swap1\n      pop\n        /* \"EVoting.sol\":3308:3309  c */\n      dup1\n        /* \"EVoting.sol\":3308:3314  c.name */\n      0x00\n      add\n      mload\n        /* \"EVoting.sol\":3316:3317  c */\n      dup2\n        /* \"EVoting.sol\":3316:3329  c.description */\n      0x20\n      add\n      mload\n        /* \"EVoting.sol\":3331:3332  c */\n      dup3\n        /* \"EVoting.sol\":3331:3342  c.voteCount */\n      0x40\n      add\n      mload\n        /* \"EVoting.sol\":3344:3345  c */\n      dup4\n        /* \"EVoting.sol\":3344:3354  c.isActive */\n      0x60\n      add\n      mload\n        /* \"EVoting.sol\":3300:3355  return (c.name, c.description, c.voteCount, c.isActive) */\n      swap5\n      pop\n      swap5\n      pop\n      swap5\n      pop\n      swap5\n      pop\n      pop\n        /* \"EVoting.sol\":3062:3363  function getCandidate(uint256 id) external view returns (... */\n      swap2\n      swap4\n      pop\n      swap2\n      swap4\n      jump\t// out\n        /* \"EVoting.sol\":606:631  uint256 public voterCount */\n    tag_34:\n      sload(0x05)\n      dup2\n      jump\t// out\n        /* \"EVoting.sol\":2936:3054  function hasUserVoted(address account) external view returns (bool) {... */\n    tag_40:\n        /* \"EVoting.sol\":2998:3002  bool */\n      0x00\n        /* \"EVoting.sol\":3022:3028  voters */\n      0x01\n        /* \"EVoting.sol\":3022:3037  voters[account] */\n      0x00\n        /* \"EVoting.sol\":3029:3036  account */\n      dup4\n        /* \"EVoting.sol\":3022:3037  voters[account] */\n      0xffffffffffffffffffffffffffffffffffffffff\n      and\n      0xffffffffffffffffffffffffffffffffffffffff\n      and\n      dup2\n      mstore\n      0x20\n      add\n      swap1\n      dup2\n      mstore\n      0x20\n      add\n      0x00\n      keccak256\n        /* \"EVoting.sol\":3022:3046  voters[account].hasVoted */\n      0x00\n      add\n      0x01\n      swap1\n      sload\n      swap1\n      0x0100\n      exp\n      swap1\n      div\n      0xff\n      and\n        /* \"EVoting.sol\":3015:3046  return voters[account].hasVoted */\n      swap1\n      pop\n        /* \"EVoting.sol\":2936:3054  function hasUserVoted(address account) external view returns (bool) {... */\n      swap2\n      swap1\n      pop\n      jump\t// out\n        /* \"EVoting.sol\":415:454  mapping(address => Voter) public voters */\n    tag_45:\n      mstore(0x20, 0x01)\n      dup1\n      0x00\n      mstore\n      keccak256(0x00, 0x40)\n      0x00\n      swap2\n      pop\n      swap1\n      pop\n      dup1\n      0x00\n      add\n      0x00\n      swap1\n      sload\n      swap1\n      0x0100\n      exp\n      swap1\n      div\n      0xff\n      and\n      swap1\n      dup1\n      0x00\n      add\n      0x01\n      swap1\n      sload\n      swap1\n      0x0100\n      exp\n      swap1\n      div\n      0xff\n      and\n      swap1\n      dup1\n      0x01\n      add\n      dup1\n      sload\n      tag_121\n      swap1\n      tag_99\n      jump\t// in\n    tag_121:\n      dup1\n      0x1f\n      add\n      0x20\n      dup1\n      swap2\n      div\n      mul\n      0x20\n      add\n      mload(0x40)\n      swap1\n      dup2\n      add\n      0x40\n      mstore\n      dup1\n      swap3\n      swap2\n      swap1\n      dup2\n      dup2\n      mstore\n      0x20\n      add\n      dup3\n      dup1\n      sload\n      tag_122\n      swap1\n      tag_99\n      jump\t// in\n    tag_122:\n      dup1\n      iszero\n      tag_123\n      jumpi\n      dup1\n      0x1f\n      lt\n      tag_124\n      jumpi\n      0x0100\n      dup1\n      dup4\n      sload\n      div\n      mul\n      dup4\n      mstore\n      swap2\n      0x20\n      add\n      swap2\n      jump(tag_123)\n    tag_124:\n      dup3\n      add\n      swap2\n      swap1\n      0x00\n      mstore\n      keccak256(0x00, 0x20)\n      swap1\n    tag_125:\n      dup2\n      sload\n      dup2\n      mstore\n      swap1\n      0x01\n      add\n      swap1\n      0x20\n      add\n      dup1\n      dup4\n      gt\n      tag_125\n      jumpi\n      dup3\n      swap1\n      sub\n      0x1f\n      and\n      dup3\n      add\n      swap2\n    tag_123:\n      pop\n      pop\n      pop\n      pop\n      pop\n      swap1\n      dup1\n      0x02\n      add\n      sload\n      swap1\n      dup1\n      0x03\n      add\n      sload\n      swap1\n      pop\n      dup6\n      jump\t// out\n        /* \"EVoting.sol\":570:599  uint256 public candidateCount */\n    tag_49:\n      sload(0x04)\n      dup2\n      jump\t// out\n        /* \"EVoting.sol\":2806:2928  function isRegistered(address account) external view returns (bool) {... */\n    tag_53:\n        /* \"EVoting.sol\":2868:2872  bool */\n      0x00\n        /* \"EVoting.sol\":2892:2898  voters */\n      0x01\n        /* \"EVoting.sol\":2892:2907  voters[account] */\n      0x00\n        /* \"EVoting.sol\":2899:2906  account */\n      dup4\n        /* \"EVoting.sol\":2892:2907  voters[account] */\n      0xffffffffffffffffffffffffffffffffffffffff\n      and\n      0xffffffffffffffffffffffffffffffffffffffff\n      and\n      dup2\n      mstore\n      0x20\n      add\n      swap1\n      dup2\n      mstore\n      0x20\n      add\n      0x00\n      keccak256\n        /* \"EVoting.sol\":2892:2920  voters[account].isRegistered */\n      0x00\n      add\n      0x00\n      swap1\n      sload\n      swap1\n      0x0100\n      exp\n      swap1\n      div\n      0xff\n      and\n        /* \"EVoting.sol\":2885:2920  return voters[account].isRegistered */\n      swap1\n      pop\n        /* \"EVoting.sol\":2806:2928  function isRegistered(address account) external view returns (bool) {... */\n      swap2\n      swap1\n      pop\n      jump\t// out\n        /* \"EVoting.sol\":461:509  mapping(string => bool) public aadhaarRegistered */\n    tag_58:\n      0x02\n      dup2\n      dup1\n      mload\n      0x20\n      dup2\n      add\n      dup3\n      add\n      dup1\n      mload\n      dup5\n      dup3\n      mstore\n      0x20\n      dup4\n      add\n      0x20\n      dup6\n      add\n      keccak256\n      dup2\n      dup4\n      mstore\n      dup1\n      swap6\n      pop\n      pop\n      pop\n      pop\n      pop\n      pop\n      0x00\n      swap2\n      pop\n      sload\n      swap1\n      0x0100\n      exp\n      swap1\n      div\n      0xff\n      and\n      dup2\n      jump\t// out\n        /* \"EVoting.sol\":1040:1743  function registerVoter(string calldata aadhaarHash, uint256 age) external {... */\n    tag_63:\n        /* \"EVoting.sol\":1280:1297  aadhaarRegistered */\n      0x02\n        /* \"EVoting.sol\":1298:1309  aadhaarHash */\n      dup4\n      dup4\n        /* \"EVoting.sol\":1280:1310  aadhaarRegistered[aadhaarHash] */\n      mload(0x40)\n      tag_128\n      swap3\n      swap2\n      swap1\n      tag_129\n      jump\t// in\n    tag_128:\n      swap1\n      dup2\n      mstore\n      0x20\n      add\n      mload(0x40)\n      dup1\n      swap2\n      sub\n      swap1\n      keccak256\n      0x00\n      swap1\n      sload\n      swap1\n      0x0100\n      exp\n      swap1\n      div\n      0xff\n      and\n        /* \"EVoting.sol\":1279:1310  !aadhaarRegistered[aadhaarHash] */\n      iszero\n        /* \"EVoting.sol\":1271:1341  require(!aadhaarRegistered[aadhaarHash], \"Aadhaar already registered\") */\n      tag_130\n      jumpi\n      mload(0x40)\n      0x08c379a000000000000000000000000000000000000000000000000000000000\n      dup2\n      mstore\n      0x04\n      add\n      tag_131\n      swap1\n      tag_132\n      jump\t// in\n    tag_131:\n      mload(0x40)\n      dup1\n      swap2\n      sub\n      swap1\n      revert\n    tag_130:\n        /* \"EVoting.sol\":1367:1369  18 */\n      0x12\n        /* \"EVoting.sol\":1360:1363  age */\n      dup2\n        /* \"EVoting.sol\":1360:1369  age >= 18 */\n      lt\n      iszero\n        /* \"EVoting.sol\":1352:1393  require(age >= 18, \"Must be 18 or older\") */\n      tag_133\n      jumpi\n      mload(0x40)\n      0x08c379a000000000000000000000000000000000000000000000000000000000\n      dup2\n      mstore\n      0x04\n      add\n      tag_134\n      swap1\n      tag_135\n      jump\t// in\n    tag_134:\n      mload(0x40)\n      dup1\n      swap2\n      sub\n      swap1\n      revert\n    tag_133:\n        /* \"EVoting.sol\":1427:1604  Voter({... */\n      mload(0x40)\n      dup1\n      0xa0\n      add\n      0x40\n      mstore\n      dup1\n        /* \"EVoting.sol\":1462:1466  true */\n      0x01\n        /* \"EVoting.sol\":1427:1604  Voter({... */\n      iszero\n      iszero\n      dup2\n      mstore\n      0x20\n      add\n        /* \"EVoting.sol\":1491:1496  false */\n      0x00\n        /* \"EVoting.sol\":1427:1604  Voter({... */\n      iszero\n      iszero\n      dup2\n      mstore\n      0x20\n      add\n        /* \"EVoting.sol\":1524:1535  aadhaarHash */\n      dup5\n      dup5\n        /* \"EVoting.sol\":1427:1604  Voter({... */\n      dup1\n      dup1\n      0x1f\n      add\n      0x20\n      dup1\n      swap2\n      div\n      mul\n      0x20\n      add\n      mload(0x40)\n      swap1\n      dup2\n      add\n      0x40\n      mstore\n      dup1\n      swap4\n      swap3\n      swap2\n      swap1\n      dup2\n      dup2\n      mstore\n      0x20\n      add\n      dup4\n      dup4\n      dup1\n      dup3\n      dup5\n      calldatacopy\n      0x00\n      dup2\n      dup5\n      add\n      mstore\n      not(0x1f)\n      0x1f\n      dup3\n      add\n      and\n      swap1\n      pop\n      dup1\n      dup4\n      add\n      swap3\n      pop\n      pop\n      pop\n      pop\n      pop\n      pop\n      pop\n      dup2\n      mstore\n      0x20\n      add\n        /* \"EVoting.sol\":1555:1558  age */\n      dup3\n        /* \"EVoting.sol\":1427:1604  Voter({... */\n      dup2\n      mstore\n      0x20\n      add\n        /* \"EVoting.sol\":1591:1592  0 */\n      0x00\n        /* \"EVoting.sol\":1427:1604  Voter({... */\n      dup2\n      mstore\n      pop\n        /* \"EVoting.sol\":1406:1412  voters */\n      0x01\n        /* \"EVoting.sol\":1406:1424  voters[msg.sender] */\n      0x00\n        /* \"EVoting.sol\":1413:1423  msg.sender */\n      caller\n        /* \"EVoting.sol\":1406:1424  voters[msg.sender] */\n      0xffffffffffffffffffffffffffffffffffffffff\n      and\n      0xffffffffffffffffffffffffffffffffffffffff\n      and\n      dup2\n      mstore\n      0x20\n      add\n      swap1\n      dup2\n      mstore\n      0x20\n      add\n      0x00\n      keccak256\n        /* \"EVoting.sol\":1406:1604  voters[msg.sender] = Voter({... */\n      0x00\n      dup3\n      add\n      mload\n      dup2\n      0x00\n      add\n      exp(0x0100, 0x00)\n      dup2\n      sload\n      dup2\n      0xff\n      mul\n      not\n      and\n      swap1\n      dup4\n      iszero\n      iszero\n      mul\n      or\n      swap1\n      sstore\n      pop\n      0x20\n      dup3\n      add\n      mload\n      dup2\n      0x00\n      add\n      exp(0x0100, 0x01)\n      dup2\n      sload\n      dup2\n      0xff\n      mul\n      not\n      and\n      swap1\n      dup4\n      iszero\n      iszero\n      mul\n      or\n      swap1\n      sstore\n      pop\n      0x40\n      dup3\n      add\n      mload\n      dup2\n      0x01\n      add\n      swap1\n      dup2\n      tag_136\n      swap2\n      swap1\n      tag_94\n      jump\t// in\n    tag_136:\n      pop\n      0x60\n      dup3\n      add\n      mload\n      dup2\n      0x02\n      add\n      sstore\n      0x80\n      dup3\n      add\n      mload\n      dup2\n      0x03\n      add\n      sstore\n      swap1\n      pop\n      pop\n        /* \"EVoting.sol\":1650:1654  true */\n      0x01\n        /* \"EVoting.sol\":1617:1634  aadhaarRegistered */\n      0x02\n        /* \"EVoting.sol\":1635:1646  aadhaarHash */\n      dup5\n      dup5\n        /* \"EVoting.sol\":1617:1647  aadhaarRegistered[aadhaarHash] */\n      mload(0x40)\n      tag_137\n      swap3\n      swap2\n      swap1\n      tag_129\n      jump\t// in\n    tag_137:\n      swap1\n      dup2\n      mstore\n      0x20\n      add\n      mload(0x40)\n      dup1\n      swap2\n      sub\n      swap1\n      keccak256\n      0x00\n        /* \"EVoting.sol\":1617:1654  aadhaarRegistered[aadhaarHash] = true */\n      0x0100\n      exp\n      dup2\n      sload\n      dup2\n      0xff\n      mul\n      not\n      and\n      swap1\n      dup4\n      iszero\n      iszero\n      mul\n      or\n      swap1\n      sstore\n      pop\n        /* \"EVoting.sol\":1665:1675  voterCount */\n      0x05\n      0x00\n        /* \"EVoting.sol\":1665:1677  voterCount++ */\n      dup2\n      sload\n      dup1\n      swap3\n      swap2\n      swap1\n      tag_138\n      swap1\n      tag_83\n      jump\t// in\n    tag_138:\n      swap2\n      swap1\n      pop\n      sstore\n      pop\n        /* \"EVoting.sol\":1711:1721  msg.sender */\n      caller\n        /* \"EVoting.sol\":1695:1735  VoterRegistered(msg.sender, aadhaarHash) */\n      0xffffffffffffffffffffffffffffffffffffffff\n      and\n      0xffeb7702be7dcd8fee170d954b70afb9a7c78f7f5cff232d037e7b9d8243356a\n        /* \"EVoting.sol\":1723:1734  aadhaarHash */\n      dup5\n      dup5\n        /* \"EVoting.sol\":1695:1735  VoterRegistered(msg.sender, aadhaarHash) */\n      mload(0x40)\n      tag_139\n      swap3\n      swap2\n      swap1\n      tag_97\n      jump\t// in\n    tag_139:\n      mload(0x40)\n      dup1\n      swap2\n      sub\n      swap1\n      log2\n        /* \"EVoting.sol\":1040:1743  function registerVoter(string calldata aadhaarHash, uint256 age) external {... */\n      pop\n      pop\n      pop\n      jump\t// out\n        /* \"EVoting.sol\":388:408  address public admin */\n    tag_65:\n      0x00\n      0x00\n      swap1\n      sload\n      swap1\n      0x0100\n      exp\n      swap1\n      div\n      0xffffffffffffffffffffffffffffffffffffffff\n      and\n      dup2\n      jump\t// out\n        /* \"#utility.yul\":7:82   */\n    tag_140:\n        /* \"#utility.yul\":40:46   */\n      0x00\n        /* \"#utility.yul\":73:75   */\n      0x40\n        /* \"#utility.yul\":67:76   */\n      mload\n        /* \"#utility.yul\":57:76   */\n      swap1\n      pop\n        /* \"#utility.yul\":7:82   */\n      swap1\n      jump\t// out\n        /* \"#utility.yul\":88:205   */\n    tag_141:\n        /* \"#utility.yul\":197:198   */\n      0x00\n        /* \"#utility.yul\":194:195   */\n      0x00\n        /* \"#utility.yul\":187:199   */\n      revert\n        /* \"#utility.yul\":211:328   */\n    tag_142:\n        /* \"#utility.yul\":320:321   */\n      0x00\n        /* \"#utility.yul\":317:318   */\n      0x00\n        /* \"#utility.yul\":310:322   */\n      revert\n        /* \"#utility.yul\":334:411   */\n    tag_143:\n        /* \"#utility.yul\":371:378   */\n      0x00\n        /* \"#utility.yul\":400:405   */\n      dup2\n        /* \"#utility.yul\":389:405   */\n      swap1\n      pop\n        /* \"#utility.yul\":334:411   */\n      swap2\n      swap1\n      pop\n      jump\t// out\n        /* \"#utility.yul\":417:539   */\n    tag_144:\n        /* \"#utility.yul\":490:514   */\n      tag_213\n        /* \"#utility.yul\":508:513   */\n      dup2\n        /* \"#utility.yul\":490:514   */\n      tag_143\n      jump\t// in\n    tag_213:\n        /* \"#utility.yul\":483:488   */\n      dup2\n        /* \"#utility.yul\":480:515   */\n      eq\n        /* \"#utility.yul\":470:533   */\n      tag_214\n      jumpi\n        /* \"#utility.yul\":529:530   */\n      0x00\n        /* \"#utility.yul\":526:527   */\n      0x00\n        /* \"#utility.yul\":519:531   */\n      revert\n        /* \"#utility.yul\":470:533   */\n    tag_214:\n        /* \"#utility.yul\":417:539   */\n      pop\n      jump\t// out\n        /* \"#utility.yul\":545:684   */\n    tag_145:\n        /* \"#utility.yul\":591:596   */\n      0x00\n        /* \"#utility.yul\":629:635   */\n      dup2\n        /* \"#utility.yul\":616:636   */\n      calldataload\n        /* \"#utility.yul\":607:636   */\n      swap1\n      pop\n        /* \"#utility.yul\":645:678   */\n      tag_216\n        /* \"#utility.yul\":672:677   */\n      dup2\n        /* \"#utility.yul\":645:678   */\n      tag_144\n      jump\t// in\n    tag_216:\n        /* \"#utility.yul\":545:684   */\n      swap3\n      swap2\n      pop\n      pop\n      jump\t// out\n        /* \"#utility.yul\":690:1019   */\n    tag_18:\n        /* \"#utility.yul\":749:755   */\n      0x00\n        /* \"#utility.yul\":798:800   */\n      0x20\n        /* \"#utility.yul\":786:795   */\n      dup3\n        /* \"#utility.yul\":777:784   */\n      dup5\n        /* \"#utility.yul\":773:796   */\n      sub\n        /* \"#utility.yul\":769:801   */\n      slt\n        /* \"#utility.yul\":766:885   */\n      iszero\n      tag_218\n      jumpi\n        /* \"#utility.yul\":804:883   */\n      tag_219\n      tag_141\n      jump\t// in\n    tag_219:\n        /* \"#utility.yul\":766:885   */\n    tag_218:\n        /* \"#utility.yul\":924:925   */\n      0x00\n        /* \"#utility.yul\":949:1002   */\n      tag_220\n        /* \"#utility.yul\":994:1001   */\n      dup5\n        /* \"#utility.yul\":985:991   */\n      dup3\n        /* \"#utility.yul\":974:983   */\n      dup6\n        /* \"#utility.yul\":970:992   */\n      add\n        /* \"#utility.yul\":949:1002   */\n      tag_145\n      jump\t// in\n    tag_220:\n        /* \"#utility.yul\":939:1002   */\n      swap2\n      pop\n        /* \"#utility.yul\":895:1012   */\n      pop\n        /* \"#utility.yul\":690:1019   */\n      swap3\n      swap2\n      pop\n      pop\n      jump\t// out\n        /* \"#utility.yul\":1025:1142   */\n    tag_146:\n        /* \"#utility.yul\":1134:1135   */\n      0x00\n        /* \"#utility.yul\":1131:1132   */\n      0x00\n        /* \"#utility.yul\":1124:1136   */\n      revert\n        /* \"#utility.yul\":1148:1265   */\n    tag_147:\n        /* \"#utility.yul\":1257:1258   */\n      0x00\n        /* \"#utility.yul\":1254:1255   */\n      0x00\n        /* \"#utility.yul\":1247:1259   */\n      revert\n        /* \"#utility.yul\":1271:1388   */\n    tag_148:\n        /* \"#utility.yul\":1380:1381   */\n      0x00\n        /* \"#utility.yul\":1377:1378   */\n      0x00\n        /* \"#utility.yul\":1370:1382   */\n      revert\n        /* \"#utility.yul\":1408:1961   */\n    tag_149:\n        /* \"#utility.yul\":1466:1474   */\n      0x00\n        /* \"#utility.yul\":1476:1482   */\n      0x00\n        /* \"#utility.yul\":1526:1529   */\n      dup4\n        /* \"#utility.yul\":1519:1523   */\n      0x1f\n        /* \"#utility.yul\":1511:1517   */\n      dup5\n        /* \"#utility.yul\":1507:1524   */\n      add\n        /* \"#utility.yul\":1503:1530   */\n      slt\n        /* \"#utility.yul\":1493:1615   */\n      tag_225\n      jumpi\n        /* \"#utility.yul\":1534:1613   */\n      tag_226\n      tag_146\n      jump\t// in\n    tag_226:\n        /* \"#utility.yul\":1493:1615   */\n    tag_225:\n        /* \"#utility.yul\":1647:1653   */\n      dup3\n        /* \"#utility.yul\":1634:1654   */\n      calldataload\n        /* \"#utility.yul\":1624:1654   */\n      swap1\n      pop\n        /* \"#utility.yul\":1677:1695   */\n      0xffffffffffffffff\n        /* \"#utility.yul\":1669:1675   */\n      dup2\n        /* \"#utility.yul\":1666:1696   */\n      gt\n        /* \"#utility.yul\":1663:1780   */\n      iszero\n      tag_227\n      jumpi\n        /* \"#utility.yul\":1699:1778   */\n      tag_228\n      tag_147\n      jump\t// in\n    tag_228:\n        /* \"#utility.yul\":1663:1780   */\n    tag_227:\n        /* \"#utility.yul\":1813:1817   */\n      0x20\n        /* \"#utility.yul\":1805:1811   */\n      dup4\n        /* \"#utility.yul\":1801:1818   */\n      add\n        /* \"#utility.yul\":1789:1818   */\n      swap2\n      pop\n        /* \"#utility.yul\":1867:1870   */\n      dup4\n        /* \"#utility.yul\":1859:1863   */\n      0x01\n        /* \"#utility.yul\":1851:1857   */\n      dup3\n        /* \"#utility.yul\":1847:1864   */\n      mul\n        /* \"#utility.yul\":1837:1845   */\n      dup4\n        /* \"#utility.yul\":1833:1865   */\n      add\n        /* \"#utility.yul\":1830:1871   */\n      gt\n        /* \"#utility.yul\":1827:1955   */\n      iszero\n      tag_229\n      jumpi\n        /* \"#utility.yul\":1874:1953   */\n      tag_230\n      tag_148\n      jump\t// in\n    tag_230:\n        /* \"#utility.yul\":1827:1955   */\n    tag_229:\n        /* \"#utility.yul\":1408:1961   */\n      swap3\n      pop\n      swap3\n      swap1\n      pop\n      jump\t// out\n        /* \"#utility.yul\":1967:2841   */\n    tag_22:\n        /* \"#utility.yul\":2059:2065   */\n      0x00\n        /* \"#utility.yul\":2067:2073   */\n      0x00\n        /* \"#utility.yul\":2075:2081   */\n      0x00\n        /* \"#utility.yul\":2083:2089   */\n      0x00\n        /* \"#utility.yul\":2132:2134   */\n      0x40\n        /* \"#utility.yul\":2120:2129   */\n      dup6\n        /* \"#utility.yul\":2111:2118   */\n      dup8\n        /* \"#utility.yul\":2107:2130   */\n      sub\n        /* \"#utility.yul\":2103:2135   */\n      slt\n        /* \"#utility.yul\":2100:2219   */\n      iszero\n      tag_232\n      jumpi\n        /* \"#utility.yul\":2138:2217   */\n      tag_233\n      tag_141\n      jump\t// in\n    tag_233:\n        /* \"#utility.yul\":2100:2219   */\n    tag_232:\n        /* \"#utility.yul\":2286:2287   */\n      0x00\n        /* \"#utility.yul\":2275:2284   */\n      dup6\n        /* \"#utility.yul\":2271:2288   */\n      add\n        /* \"#utility.yul\":2258:2289   */\n      calldataload\n        /* \"#utility.yul\":2316:2334   */\n      0xffffffffffffffff\n        /* \"#utility.yul\":2308:2314   */\n      dup2\n        /* \"#utility.yul\":2305:2335   */\n      gt\n        /* \"#utility.yul\":2302:2419   */\n      iszero\n      tag_234\n      jumpi\n        /* \"#utility.yul\":2338:2417   */\n      tag_235\n      tag_142\n      jump\t// in\n    tag_235:\n        /* \"#utility.yul\":2302:2419   */\n    tag_234:\n        /* \"#utility.yul\":2451:2516   */\n      tag_236\n        /* \"#utility.yul\":2508:2515   */\n      dup8\n        /* \"#utility.yul\":2499:2505   */\n      dup3\n        /* \"#utility.yul\":2488:2497   */\n      dup9\n        /* \"#utility.yul\":2484:2506   */\n      add\n        /* \"#utility.yul\":2451:2516   */\n      tag_149\n      jump\t// in\n    tag_236:\n        /* \"#utility.yul\":2433:2516   */\n      swap5\n      pop\n      swap5\n      pop\n        /* \"#utility.yul\":2229:2526   */\n      pop\n        /* \"#utility.yul\":2593:2595   */\n      0x20\n        /* \"#utility.yul\":2582:2591   */\n      dup6\n        /* \"#utility.yul\":2578:2596   */\n      add\n        /* \"#utility.yul\":2565:2597   */\n      calldataload\n        /* \"#utility.yul\":2624:2642   */\n      0xffffffffffffffff\n        /* \"#utility.yul\":2616:2622   */\n      dup2\n        /* \"#utility.yul\":2613:2643   */\n      gt\n        /* \"#utility.yul\":2610:2727   */\n      iszero\n      tag_237\n      jumpi\n        /* \"#utility.yul\":2646:2725   */\n      tag_238\n      tag_142\n      jump\t// in\n    tag_238:\n        /* \"#utility.yul\":2610:2727   */\n    tag_237:\n        /* \"#utility.yul\":2759:2824   */\n      tag_239\n        /* \"#utility.yul\":2816:2823   */\n      dup8\n        /* \"#utility.yul\":2807:2813   */\n      dup3\n        /* \"#utility.yul\":2796:2805   */\n      dup9\n        /* \"#utility.yul\":2792:2814   */\n      add\n        /* \"#utility.yul\":2759:2824   */\n      tag_149\n      jump\t// in\n    tag_239:\n        /* \"#utility.yul\":2741:2824   */\n      swap3\n      pop\n      swap3\n      pop\n        /* \"#utility.yul\":2536:2834   */\n      pop\n        /* \"#utility.yul\":1967:2841   */\n      swap3\n      swap6\n      swap2\n      swap5\n      pop\n      swap3\n      pop\n      jump\t// out\n        /* \"#utility.yul\":2847:2946   */\n    tag_150:\n        /* \"#utility.yul\":2899:2905   */\n      0x00\n        /* \"#utility.yul\":2933:2938   */\n      dup2\n        /* \"#utility.yul\":2927:2939   */\n      mload\n        /* \"#utility.yul\":2917:2939   */\n      swap1\n      pop\n        /* \"#utility.yul\":2847:2946   */\n      swap2\n      swap1\n      pop\n      jump\t// out\n        /* \"#utility.yul\":2952:3121   */\n    tag_151:\n        /* \"#utility.yul\":3036:3047   */\n      0x00\n        /* \"#utility.yul\":3070:3076   */\n      dup3\n        /* \"#utility.yul\":3065:3068   */\n      dup3\n        /* \"#utility.yul\":3058:3077   */\n      mstore\n        /* \"#utility.yul\":3110:3114   */\n      0x20\n        /* \"#utility.yul\":3105:3108   */\n      dup3\n        /* \"#utility.yul\":3101:3115   */\n      add\n        /* \"#utility.yul\":3086:3115   */\n      swap1\n      pop\n        /* \"#utility.yul\":2952:3121   */\n      swap3\n      swap2\n      pop\n      pop\n      jump\t// out\n        /* \"#utility.yul\":3127:3266   */\n    tag_152:\n        /* \"#utility.yul\":3216:3222   */\n      dup3\n        /* \"#utility.yul\":3211:3214   */\n      dup2\n        /* \"#utility.yul\":3206:3209   */\n      dup4\n        /* \"#utility.yul\":3200:3223   */\n      mcopy\n        /* \"#utility.yul\":3257:3258   */\n      0x00\n        /* \"#utility.yul\":3248:3254   */\n      dup4\n        /* \"#utility.yul\":3243:3246   */\n      dup4\n        /* \"#utility.yul\":3239:3255   */\n      add\n        /* \"#utility.yul\":3232:3259   */\n      mstore\n        /* \"#utility.yul\":3127:3266   */\n      pop\n      pop\n      pop\n      jump\t// out\n        /* \"#utility.yul\":3272:3374   */\n    tag_153:\n        /* \"#utility.yul\":3313:3319   */\n      0x00\n        /* \"#utility.yul\":3364:3366   */\n      0x1f\n        /* \"#utility.yul\":3360:3367   */\n      not\n        /* \"#utility.yul\":3355:3357   */\n      0x1f\n        /* \"#utility.yul\":3348:3353   */\n      dup4\n        /* \"#utility.yul\":3344:3358   */\n      add\n        /* \"#utility.yul\":3340:3368   */\n      and\n        /* \"#utility.yul\":3330:3368   */\n      swap1\n      pop\n        /* \"#utility.yul\":3272:3374   */\n      swap2\n      swap1\n      pop\n      jump\t// out\n        /* \"#utility.yul\":3380:3757   */\n    tag_154:\n        /* \"#utility.yul\":3468:3471   */\n      0x00\n        /* \"#utility.yul\":3496:3535   */\n      tag_245\n        /* \"#utility.yul\":3529:3534   */\n      dup3\n        /* \"#utility.yul\":3496:3535   */\n      tag_150\n      jump\t// in\n    tag_245:\n        /* \"#utility.yul\":3551:3622   */\n      tag_246\n        /* \"#utility.yul\":3615:3621   */\n      dup2\n        /* \"#utility.yul\":3610:3613   */\n      dup6\n        /* \"#utility.yul\":3551:3622   */\n      tag_151\n      jump\t// in\n    tag_246:\n        /* \"#utility.yul\":3544:3622   */\n      swap4\n      pop\n        /* \"#utility.yul\":3631:3696   */\n      tag_247\n        /* \"#utility.yul\":3689:3695   */\n      dup2\n        /* \"#utility.yul\":3684:3687   */\n      dup6\n        /* \"#utility.yul\":3677:3681   */\n      0x20\n        /* \"#utility.yul\":3670:3675   */\n      dup7\n        /* \"#utility.yul\":3666:3682   */\n      add\n        /* \"#utility.yul\":3631:3696   */\n      tag_152\n      jump\t// in\n    tag_247:\n        /* \"#utility.yul\":3721:3750   */\n      tag_248\n        /* \"#utility.yul\":3743:3749   */\n      dup2\n        /* \"#utility.yul\":3721:3750   */\n      tag_153\n      jump\t// in\n    tag_248:\n        /* \"#utility.yul\":3716:3719   */\n      dup5\n        /* \"#utility.yul\":3712:3751   */\n      add\n        /* \"#utility.yul\":3705:3751   */\n      swap2\n      pop\n        /* \"#utility.yul\":3472:3757   */\n      pop\n        /* \"#utility.yul\":3380:3757   */\n      swap3\n      swap2\n      pop\n      pop\n      jump\t// out\n        /* \"#utility.yul\":3763:3881   */\n    tag_155:\n        /* \"#utility.yul\":3850:3874   */\n      tag_250\n        /* \"#utility.yul\":3868:3873   */\n      dup2\n        /* \"#utility.yul\":3850:3874   */\n      tag_143\n      jump\t// in\n    tag_250:\n        /* \"#utility.yul\":3845:3848   */\n      dup3\n        /* \"#utility.yul\":3838:3875   */\n      mstore\n        /* \"#utility.yul\":3763:3881   */\n      pop\n      pop\n      jump\t// out\n        /* \"#utility.yul\":3887:3977   */\n    tag_156:\n        /* \"#utility.yul\":3921:3928   */\n      0x00\n        /* \"#utility.yul\":3964:3969   */\n      dup2\n        /* \"#utility.yul\":3957:3970   */\n      iszero\n        /* \"#utility.yul\":3950:3971   */\n      iszero\n        /* \"#utility.yul\":3939:3971   */\n      swap1\n      pop\n        /* \"#utility.yul\":3887:3977   */\n      swap2\n      swap1\n      pop\n      jump\t// out\n        /* \"#utility.yul\":3983:4092   */\n    tag_157:\n        /* \"#utility.yul\":4064:4085   */\n      tag_253\n        /* \"#utility.yul\":4079:4084   */\n      dup2\n        /* \"#utility.yul\":4064:4085   */\n      tag_156\n      jump\t// in\n    tag_253:\n        /* \"#utility.yul\":4059:4062   */\n      dup3\n        /* \"#utility.yul\":4052:4086   */\n      mstore\n        /* \"#utility.yul\":3983:4092   */\n      pop\n      pop\n      jump\t// out\n        /* \"#utility.yul\":4098:4821   */\n    tag_28:\n        /* \"#utility.yul\":4309:4313   */\n      0x00\n        /* \"#utility.yul\":4347:4350   */\n      0x80\n        /* \"#utility.yul\":4336:4345   */\n      dup3\n        /* \"#utility.yul\":4332:4351   */\n      add\n        /* \"#utility.yul\":4324:4351   */\n      swap1\n      pop\n        /* \"#utility.yul\":4397:4406   */\n      dup2\n        /* \"#utility.yul\":4391:4395   */\n      dup2\n        /* \"#utility.yul\":4387:4407   */\n      sub\n        /* \"#utility.yul\":4383:4384   */\n      0x00\n        /* \"#utility.yul\":4372:4381   */\n      dup4\n        /* \"#utility.yul\":4368:4385   */\n      add\n        /* \"#utility.yul\":4361:4408   */\n      mstore\n        /* \"#utility.yul\":4425:4503   */\n      tag_255\n        /* \"#utility.yul\":4498:4502   */\n      dup2\n        /* \"#utility.yul\":4489:4495   */\n      dup8\n        /* \"#utility.yul\":4425:4503   */\n      tag_154\n      jump\t// in\n    tag_255:\n        /* \"#utility.yul\":4417:4503   */\n      swap1\n      pop\n        /* \"#utility.yul\":4550:4559   */\n      dup2\n        /* \"#utility.yul\":4544:4548   */\n      dup2\n        /* \"#utility.yul\":4540:4560   */\n      sub\n        /* \"#utility.yul\":4535:4537   */\n      0x20\n        /* \"#utility.yul\":4524:4533   */\n      dup4\n        /* \"#utility.yul\":4520:4538   */\n      add\n        /* \"#utility.yul\":4513:4561   */\n      mstore\n        /* \"#utility.yul\":4578:4656   */\n      tag_256\n        /* \"#utility.yul\":4651:4655   */\n      dup2\n        /* \"#utility.yul\":4642:4648   */\n      dup7\n        /* \"#utility.yul\":4578:4656   */\n      tag_154\n      jump\t// in\n    tag_256:\n        /* \"#utility.yul\":4570:4656   */\n      swap1\n      pop\n        /* \"#utility.yul\":4666:4738   */\n      tag_257\n        /* \"#utility.yul\":4734:4736   */\n      0x40\n        /* \"#utility.yul\":4723:4732   */\n      dup4\n        /* \"#utility.yul\":4719:4737   */\n      add\n        /* \"#utility.yul\":4710:4716   */\n      dup6\n        /* \"#utility.yul\":4666:4738   */\n      tag_155\n      jump\t// in\n    tag_257:\n        /* \"#utility.yul\":4748:4814   */\n      tag_258\n        /* \"#utility.yul\":4810:4812   */\n      0x60\n        /* \"#utility.yul\":4799:4808   */\n      dup4\n        /* \"#utility.yul\":4795:4813   */\n      add\n        /* \"#utility.yul\":4786:4792   */\n      dup5\n        /* \"#utility.yul\":4748:4814   */\n      tag_157\n      jump\t// in\n    tag_258:\n        /* \"#utility.yul\":4098:4821   */\n      swap6\n      swap5\n      pop\n      pop\n      pop\n      pop\n      pop\n      jump\t// out\n        /* \"#utility.yul\":4827:5049   */\n    tag_36:\n        /* \"#utility.yul\":4920:4924   */\n      0x00\n        /* \"#utility.yul\":4958:4960   */\n      0x20\n        /* \"#utility.yul\":4947:4956   */\n      dup3\n        /* \"#utility.yul\":4943:4961   */\n      add\n        /* \"#utility.yul\":4935:4961   */\n      swap1\n      pop\n        /* \"#utility.yul\":4971:5042   */\n      tag_260\n        /* \"#utility.yul\":5039:5040   */\n      0x00\n        /* \"#utility.yul\":5028:5037   */\n      dup4\n        /* \"#utility.yul\":5024:5041   */\n      add\n        /* \"#utility.yul\":5015:5021   */\n      dup5\n        /* \"#utility.yul\":4971:5042   */\n      tag_155\n      jump\t// in\n    tag_260:\n        /* \"#utility.yul\":4827:5049   */\n      swap3\n      swap2\n      pop\n      pop\n      jump\t// out\n        /* \"#utility.yul\":5055:5181   */\n    tag_158:\n        /* \"#utility.yul\":5092:5099   */\n      0x00\n        /* \"#utility.yul\":5132:5174   */\n      0xffffffffffffffffffffffffffffffffffffffff\n        /* \"#utility.yul\":5125:5130   */\n      dup3\n        /* \"#utility.yul\":5121:5175   */\n      and\n        /* \"#utility.yul\":5110:5175   */\n      swap1\n      pop\n        /* \"#utility.yul\":5055:5181   */\n      swap2\n      swap1\n      pop\n      jump\t// out\n        /* \"#utility.yul\":5187:5283   */\n    tag_159:\n        /* \"#utility.yul\":5224:5231   */\n      0x00\n        /* \"#utility.yul\":5253:5277   */\n      tag_263\n        /* \"#utility.yul\":5271:5276   */\n      dup3\n        /* \"#utility.yul\":5253:5277   */\n      tag_158\n      jump\t// in\n    tag_263:\n        /* \"#utility.yul\":5242:5277   */\n      swap1\n      pop\n        /* \"#utility.yul\":5187:5283   */\n      swap2\n      swap1\n      pop\n      jump\t// out\n        /* \"#utility.yul\":5289:5411   */\n    tag_160:\n        /* \"#utility.yul\":5362:5386   */\n      tag_265\n        /* \"#utility.yul\":5380:5385   */\n      dup2\n        /* \"#utility.yul\":5362:5386   */\n      tag_159\n      jump\t// in\n    tag_265:\n        /* \"#utility.yul\":5355:5360   */\n      dup2\n        /* \"#utility.yul\":5352:5387   */\n      eq\n        /* \"#utility.yul\":5342:5405   */\n      tag_266\n      jumpi\n        /* \"#utility.yul\":5401:5402   */\n      0x00\n        /* \"#utility.yul\":5398:5399   */\n      0x00\n        /* \"#utility.yul\":5391:5403   */\n      revert\n        /* \"#utility.yul\":5342:5405   */\n    tag_266:\n        /* \"#utility.yul\":5289:5411   */\n      pop\n      jump\t// out\n        /* \"#utility.yul\":5417:5556   */\n    tag_161:\n        /* \"#utility.yul\":5463:5468   */\n      0x00\n        /* \"#utility.yul\":5501:5507   */\n      dup2\n        /* \"#utility.yul\":5488:5508   */\n      calldataload\n        /* \"#utility.yul\":5479:5508   */\n      swap1\n      pop\n        /* \"#utility.yul\":5517:5550   */\n      tag_268\n        /* \"#utility.yul\":5544:5549   */\n      dup2\n        /* \"#utility.yul\":5517:5550   */\n      tag_160\n      jump\t// in\n    tag_268:\n        /* \"#utility.yul\":5417:5556   */\n      swap3\n      swap2\n      pop\n      pop\n      jump\t// out\n        /* \"#utility.yul\":5562:5891   */\n    tag_39:\n        /* \"#utility.yul\":5621:5627   */\n      0x00\n        /* \"#utility.yul\":5670:5672   */\n      0x20\n        /* \"#utility.yul\":5658:5667   */\n      dup3\n        /* \"#utility.yul\":5649:5656   */\n      dup5\n        /* \"#utility.yul\":5645:5668   */\n      sub\n        /* \"#utility.yul\":5641:5673   */\n      slt\n        /* \"#utility.yul\":5638:5757   */\n      iszero\n      tag_270\n      jumpi\n        /* \"#utility.yul\":5676:5755   */\n      tag_271\n      tag_141\n      jump\t// in\n    tag_271:\n        /* \"#utility.yul\":5638:5757   */\n    tag_270:\n        /* \"#utility.yul\":5796:5797   */\n      0x00\n        /* \"#utility.yul\":5821:5874   */\n      tag_272\n        /* \"#utility.yul\":5866:5873   */\n      dup5\n        /* \"#utility.yul\":5857:5863   */\n      dup3\n        /* \"#utility.yul\":5846:5855   */\n      dup6\n        /* \"#utility.yul\":5842:5864   */\n      add\n        /* \"#utility.yul\":5821:5874   */\n      tag_161\n      jump\t// in\n    tag_272:\n        /* \"#utility.yul\":5811:5874   */\n      swap2\n      pop\n        /* \"#utility.yul\":5767:5884   */\n      pop\n        /* \"#utility.yul\":5562:5891   */\n      swap3\n      swap2\n      pop\n      pop\n      jump\t// out\n        /* \"#utility.yul\":5897:6107   */\n    tag_42:\n        /* \"#utility.yul\":5984:5988   */\n      0x00\n        /* \"#utility.yul\":6022:6024   */\n      0x20\n        /* \"#utility.yul\":6011:6020   */\n      dup3\n        /* \"#utility.yul\":6007:6025   */\n      add\n        /* \"#utility.yul\":5999:6025   */\n      swap1\n      pop\n        /* \"#utility.yul\":6035:6100   */\n      tag_274\n        /* \"#utility.yul\":6097:6098   */\n      0x00\n        /* \"#utility.yul\":6086:6095   */\n      dup4\n        /* \"#utility.yul\":6082:6099   */\n      add\n        /* \"#utility.yul\":6073:6079   */\n      dup5\n        /* \"#utility.yul\":6035:6100   */\n      tag_157\n      jump\t// in\n    tag_274:\n        /* \"#utility.yul\":5897:6107   */\n      swap3\n      swap2\n      pop\n      pop\n      jump\t// out\n        /* \"#utility.yul\":6113:6844   */\n    tag_47:\n        /* \"#utility.yul\":6326:6330   */\n      0x00\n        /* \"#utility.yul\":6364:6367   */\n      0xa0\n        /* \"#utility.yul\":6353:6362   */\n      dup3\n        /* \"#utility.yul\":6349:6368   */\n      add\n        /* \"#utility.yul\":6341:6368   */\n      swap1\n      pop\n        /* \"#utility.yul\":6378:6443   */\n      tag_276\n        /* \"#utility.yul\":6440:6441   */\n      0x00\n        /* \"#utility.yul\":6429:6438   */\n      dup4\n        /* \"#utility.yul\":6425:6442   */\n      add\n        /* \"#utility.yul\":6416:6422   */\n      dup9\n        /* \"#utility.yul\":6378:6443   */\n      tag_157\n      jump\t// in\n    tag_276:\n        /* \"#utility.yul\":6453:6519   */\n      tag_277\n        /* \"#utility.yul\":6515:6517   */\n      0x20\n        /* \"#utility.yul\":6504:6513   */\n      dup4\n        /* \"#utility.yul\":6500:6518   */\n      add\n        /* \"#utility.yul\":6491:6497   */\n      dup8\n        /* \"#utility.yul\":6453:6519   */\n      tag_157\n      jump\t// in\n    tag_277:\n        /* \"#utility.yul\":6566:6575   */\n      dup2\n        /* \"#utility.yul\":6560:6564   */\n      dup2\n        /* \"#utility.yul\":6556:6576   */\n      sub\n        /* \"#utility.yul\":6551:6553   */\n      0x40\n        /* \"#utility.yul\":6540:6549   */\n      dup4\n        /* \"#utility.yul\":6536:6554   */\n      add\n        /* \"#utility.yul\":6529:6577   */\n      mstore\n        /* \"#utility.yul\":6594:6672   */\n      tag_278\n        /* \"#utility.yul\":6667:6671   */\n      dup2\n        /* \"#utility.yul\":6658:6664   */\n      dup7\n        /* \"#utility.yul\":6594:6672   */\n      tag_154\n      jump\t// in\n    tag_278:\n        /* \"#utility.yul\":6586:6672   */\n      swap1\n      pop\n        /* \"#utility.yul\":6682:6754   */\n      tag_279\n        /* \"#utility.yul\":6750:6752   */\n      0x60\n        /* \"#utility.yul\":6739:6748   */\n      dup4\n        /* \"#utility.yul\":6735:6753   */\n      add\n        /* \"#utility.yul\":6726:6732   */\n      dup6\n        /* \"#utility.yul\":6682:6754   */\n      tag_155\n      jump\t// in\n    tag_279:\n        /* \"#utility.yul\":6764:6837   */\n      tag_280\n        /* \"#utility.yul\":6832:6835   */\n      0x80\n        /* \"#utility.yul\":6821:6830   */\n      dup4\n        /* \"#utility.yul\":6817:6836   */\n      add\n        /* \"#utility.yul\":6808:6814   */\n      dup5\n        /* \"#utility.yul\":6764:6837   */\n      tag_155\n      jump\t// in\n    tag_280:\n        /* \"#utility.yul\":6113:6844   */\n      swap7\n      swap6\n      pop\n      pop\n      pop\n      pop\n      pop\n      pop\n      jump\t// out\n        /* \"#utility.yul\":6850:6967   */\n    tag_162:\n        /* \"#utility.yul\":6959:6960   */\n      0x00\n        /* \"#utility.yul\":6956:6957   */\n      0x00\n        /* \"#utility.yul\":6949:6961   */\n      revert\n        /* \"#utility.yul\":6973:7153   */\n    tag_163:\n        /* \"#utility.yul\":7021:7098   */\n      0x4e487b7100000000000000000000000000000000000000000000000000000000\n        /* \"#utility.yul\":7018:7019   */\n      0x00\n        /* \"#utility.yul\":7011:7099   */\n      mstore\n        /* \"#utility.yul\":7118:7122   */\n      0x41\n        /* \"#utility.yul\":7115:7116   */\n      0x04\n        /* \"#utility.yul\":7108:7123   */\n      mstore\n        /* \"#utility.yul\":7142:7146   */\n      0x24\n        /* \"#utility.yul\":7139:7140   */\n      0x00\n        /* \"#utility.yul\":7132:7147   */\n      revert\n        /* \"#utility.yul\":7159:7440   */\n    tag_164:\n        /* \"#utility.yul\":7242:7269   */\n      tag_284\n        /* \"#utility.yul\":7264:7268   */\n      dup3\n        /* \"#utility.yul\":7242:7269   */\n      tag_153\n      jump\t// in\n    tag_284:\n        /* \"#utility.yul\":7234:7240   */\n      dup2\n        /* \"#utility.yul\":7230:7270   */\n      add\n        /* \"#utility.yul\":7372:7378   */\n      dup2\n        /* \"#utility.yul\":7360:7370   */\n      dup2\n        /* \"#utility.yul\":7357:7379   */\n      lt\n        /* \"#utility.yul\":7336:7354   */\n      0xffffffffffffffff\n        /* \"#utility.yul\":7324:7334   */\n      dup3\n        /* \"#utility.yul\":7321:7355   */\n      gt\n        /* \"#utility.yul\":7318:7380   */\n      or\n        /* \"#utility.yul\":7315:7403   */\n      iszero\n      tag_285\n      jumpi\n        /* \"#utility.yul\":7383:7401   */\n      tag_286\n      tag_163\n      jump\t// in\n    tag_286:\n        /* \"#utility.yul\":7315:7403   */\n    tag_285:\n        /* \"#utility.yul\":7423:7433   */\n      dup1\n        /* \"#utility.yul\":7419:7421   */\n      0x40\n        /* \"#utility.yul\":7412:7434   */\n      mstore\n        /* \"#utility.yul\":7202:7440   */\n      pop\n        /* \"#utility.yul\":7159:7440   */\n      pop\n      pop\n      jump\t// out\n        /* \"#utility.yul\":7446:7575   */\n    tag_165:\n        /* \"#utility.yul\":7480:7486   */\n      0x00\n        /* \"#utility.yul\":7507:7527   */\n      tag_288\n      tag_140\n      jump\t// in\n    tag_288:\n        /* \"#utility.yul\":7497:7527   */\n      swap1\n      pop\n        /* \"#utility.yul\":7536:7569   */\n      tag_289\n        /* \"#utility.yul\":7564:7568   */\n      dup3\n        /* \"#utility.yul\":7556:7562   */\n      dup3\n        /* \"#utility.yul\":7536:7569   */\n      tag_164\n      jump\t// in\n    tag_289:\n        /* \"#utility.yul\":7446:7575   */\n      swap2\n      swap1\n      pop\n      jump\t// out\n        /* \"#utility.yul\":7581:7889   */\n    tag_166:\n        /* \"#utility.yul\":7643:7647   */\n      0x00\n        /* \"#utility.yul\":7733:7751   */\n      0xffffffffffffffff\n        /* \"#utility.yul\":7725:7731   */\n      dup3\n        /* \"#utility.yul\":7722:7752   */\n      gt\n        /* \"#utility.yul\":7719:7775   */\n      iszero\n      tag_291\n      jumpi\n        /* \"#utility.yul\":7755:7773   */\n      tag_292\n      tag_163\n      jump\t// in\n    tag_292:\n        /* \"#utility.yul\":7719:7775   */\n    tag_291:\n        /* \"#utility.yul\":7793:7822   */\n      tag_293\n        /* \"#utility.yul\":7815:7821   */\n      dup3\n        /* \"#utility.yul\":7793:7822   */\n      tag_153\n      jump\t// in\n    tag_293:\n        /* \"#utility.yul\":7785:7822   */\n      swap1\n      pop\n        /* \"#utility.yul\":7877:7881   */\n      0x20\n        /* \"#utility.yul\":7871:7875   */\n      dup2\n        /* \"#utility.yul\":7867:7882   */\n      add\n        /* \"#utility.yul\":7859:7882   */\n      swap1\n      pop\n        /* \"#utility.yul\":7581:7889   */\n      swap2\n      swap1\n      pop\n      jump\t// out\n        /* \"#utility.yul\":7895:8043   */\n    tag_167:\n        /* \"#utility.yul\":7993:7999   */\n      dup3\n        /* \"#utility.yul\":7988:7991   */\n      dup2\n        /* \"#utility.yul\":7983:7986   */\n      dup4\n        /* \"#utility.yul\":7970:8000   */\n      calldatacopy\n        /* \"#utility.yul\":8034:8035   */\n      0x00\n        /* \"#utility.yul\":8025:8031   */\n      dup4\n        /* \"#utility.yul\":8020:8023   */\n      dup4\n        /* \"#utility.yul\":8016:8032   */\n      add\n        /* \"#utility.yul\":8009:8036   */\n      mstore\n        /* \"#utility.yul\":7895:8043   */\n      pop\n      pop\n      pop\n      jump\t// out\n        /* \"#utility.yul\":8049:8474   */\n    tag_168:\n        /* \"#utility.yul\":8127:8132   */\n      0x00\n        /* \"#utility.yul\":8152:8218   */\n      tag_296\n        /* \"#utility.yul\":8168:8217   */\n      tag_297\n        /* \"#utility.yul\":8210:8216   */\n      dup5\n        /* \"#utility.yul\":8168:8217   */\n      tag_166\n      jump\t// in\n    tag_297:\n        /* \"#utility.yul\":8152:8218   */\n      tag_165\n      jump\t// in\n    tag_296:\n        /* \"#utility.yul\":8143:8218   */\n      swap1\n      pop\n        /* \"#utility.yul\":8241:8247   */\n      dup3\n        /* \"#utility.yul\":8234:8239   */\n      dup2\n        /* \"#utility.yul\":8227:8248   */\n      mstore\n        /* \"#utility.yul\":8279:8283   */\n      0x20\n        /* \"#utility.yul\":8272:8277   */\n      dup2\n        /* \"#utility.yul\":8268:8284   */\n      add\n        /* \"#utility.yul\":8317:8320   */\n      dup5\n        /* \"#utility.yul\":8308:8314   */\n      dup5\n        /* \"#utility.yul\":8303:8306   */\n      dup5\n        /* \"#utility.yul\":8299:8315   */\n      add\n        /* \"#utility.yul\":8296:8321   */\n      gt\n        /* \"#utility.yul\":8293:8405   */\n      iszero\n      tag_298\n      jumpi\n        /* \"#utility.yul\":8324:8403   */\n      tag_299\n      tag_162\n      jump\t// in\n    tag_299:\n        /* \"#utility.yul\":8293:8405   */\n    tag_298:\n        /* \"#utility.yul\":8414:8468   */\n      tag_300\n        /* \"#utility.yul\":8461:8467   */\n      dup5\n        /* \"#utility.yul\":8456:8459   */\n      dup3\n        /* \"#utility.yul\":8451:8454   */\n      dup6\n        /* \"#utility.yul\":8414:8468   */\n      tag_167\n      jump\t// in\n    tag_300:\n        /* \"#utility.yul\":8133:8474   */\n      pop\n        /* \"#utility.yul\":8049:8474   */\n      swap4\n      swap3\n      pop\n      pop\n      pop\n      jump\t// out\n        /* \"#utility.yul\":8494:8834   */\n    tag_169:\n        /* \"#utility.yul\":8550:8555   */\n      0x00\n        /* \"#utility.yul\":8599:8602   */\n      dup3\n        /* \"#utility.yul\":8592:8596   */\n      0x1f\n        /* \"#utility.yul\":8584:8590   */\n      dup4\n        /* \"#utility.yul\":8580:8597   */\n      add\n        /* \"#utility.yul\":8576:8603   */\n      slt\n        /* \"#utility.yul\":8566:8688   */\n      tag_302\n      jumpi\n        /* \"#utility.yul\":8607:8686   */\n      tag_303\n      tag_146\n      jump\t// in\n    tag_303:\n        /* \"#utility.yul\":8566:8688   */\n    tag_302:\n        /* \"#utility.yul\":8724:8730   */\n      dup2\n        /* \"#utility.yul\":8711:8731   */\n      calldataload\n        /* \"#utility.yul\":8749:8828   */\n      tag_304\n        /* \"#utility.yul\":8824:8827   */\n      dup5\n        /* \"#utility.yul\":8816:8822   */\n      dup3\n        /* \"#utility.yul\":8809:8813   */\n      0x20\n        /* \"#utility.yul\":8801:8807   */\n      dup7\n        /* \"#utility.yul\":8797:8814   */\n      add\n        /* \"#utility.yul\":8749:8828   */\n      tag_168\n      jump\t// in\n    tag_304:\n        /* \"#utility.yul\":8740:8828   */\n      swap2\n      pop\n        /* \"#utility.yul\":8556:8834   */\n      pop\n        /* \"#utility.yul\":8494:8834   */\n      swap3\n      swap2\n      pop\n      pop\n      jump\t// out\n        /* \"#utility.yul\":8840:9349   */\n    tag_57:\n        /* \"#utility.yul\":8909:8915   */\n      0x00\n        /* \"#utility.yul\":8958:8960   */\n      0x20\n        /* \"#utility.yul\":8946:8955   */\n      dup3\n        /* \"#utility.yul\":8937:8944   */\n      dup5\n        /* \"#utility.yul\":8933:8956   */\n      sub\n        /* \"#utility.yul\":8929:8961   */\n      slt\n        /* \"#utility.yul\":8926:9045   */\n      iszero\n      tag_306\n      jumpi\n        /* \"#utility.yul\":8964:9043   */\n      tag_307\n      tag_141\n      jump\t// in\n    tag_307:\n        /* \"#utility.yul\":8926:9045   */\n    tag_306:\n        /* \"#utility.yul\":9112:9113   */\n      0x00\n        /* \"#utility.yul\":9101:9110   */\n      dup3\n        /* \"#utility.yul\":9097:9114   */\n      add\n        /* \"#utility.yul\":9084:9115   */\n      calldataload\n        /* \"#utility.yul\":9142:9160   */\n      0xffffffffffffffff\n        /* \"#utility.yul\":9134:9140   */\n      dup2\n        /* \"#utility.yul\":9131:9161   */\n      gt\n        /* \"#utility.yul\":9128:9245   */\n      iszero\n      tag_308\n      jumpi\n        /* \"#utility.yul\":9164:9243   */\n      tag_309\n      tag_142\n      jump\t// in\n    tag_309:\n        /* \"#utility.yul\":9128:9245   */\n    tag_308:\n        /* \"#utility.yul\":9269:9332   */\n      tag_310\n        /* \"#utility.yul\":9324:9331   */\n      dup5\n        /* \"#utility.yul\":9315:9321   */\n      dup3\n        /* \"#utility.yul\":9304:9313   */\n      dup6\n        /* \"#utility.yul\":9300:9322   */\n      add\n        /* \"#utility.yul\":9269:9332   */\n      tag_169\n      jump\t// in\n    tag_310:\n        /* \"#utility.yul\":9259:9332   */\n      swap2\n      pop\n        /* \"#utility.yul\":9055:9342   */\n      pop\n        /* \"#utility.yul\":8840:9349   */\n      swap3\n      swap2\n      pop\n      pop\n      jump\t// out\n        /* \"#utility.yul\":9355:10029   */\n    tag_62:\n        /* \"#utility.yul\":9435:9441   */\n      0x00\n        /* \"#utility.yul\":9443:9449   */\n      0x00\n        /* \"#utility.yul\":9451:9457   */\n      0x00\n        /* \"#utility.yul\":9500:9502   */\n      0x40\n        /* \"#utility.yul\":9488:9497   */\n      dup5\n        /* \"#utility.yul\":9479:9486   */\n      dup7\n        /* \"#utility.yul\":9475:9498   */\n      sub\n        /* \"#utility.yul\":9471:9503   */\n      slt\n        /* \"#utility.yul\":9468:9587   */\n      iszero\n      tag_312\n      jumpi\n        /* \"#utility.yul\":9506:9585   */\n      tag_313\n      tag_141\n      jump\t// in\n    tag_313:\n        /* \"#utility.yul\":9468:9587   */\n    tag_312:\n        /* \"#utility.yul\":9654:9655   */\n      0x00\n        /* \"#utility.yul\":9643:9652   */\n      dup5\n        /* \"#utility.yul\":9639:9656   */\n      add\n        /* \"#utility.yul\":9626:9657   */\n      calldataload\n        /* \"#utility.yul\":9684:9702   */\n      0xffffffffffffffff\n        /* \"#utility.yul\":9676:9682   */\n      dup2\n        /* \"#utility.yul\":9673:9703   */\n      gt\n        /* \"#utility.yul\":9670:9787   */\n      iszero\n      tag_314\n      jumpi\n        /* \"#utility.yul\":9706:9785   */\n      tag_315\n      tag_142\n      jump\t// in\n    tag_315:\n        /* \"#utility.yul\":9670:9787   */\n    tag_314:\n        /* \"#utility.yul\":9819:9884   */\n      tag_316\n        /* \"#utility.yul\":9876:9883   */\n      dup7\n        /* \"#utility.yul\":9867:9873   */\n      dup3\n        /* \"#utility.yul\":9856:9865   */\n      dup8\n        /* \"#utility.yul\":9852:9874   */\n      add\n        /* \"#utility.yul\":9819:9884   */\n      tag_149\n      jump\t// in\n    tag_316:\n        /* \"#utility.yul\":9801:9884   */\n      swap4\n      pop\n      swap4\n      pop\n        /* \"#utility.yul\":9597:9894   */\n      pop\n        /* \"#utility.yul\":9933:9935   */\n      0x20\n        /* \"#utility.yul\":9959:10012   */\n      tag_317\n        /* \"#utility.yul\":10004:10011   */\n      dup7\n        /* \"#utility.yul\":9995:10001   */\n      dup3\n        /* \"#utility.yul\":9984:9993   */\n      dup8\n        /* \"#utility.yul\":9980:10002   */\n      add\n        /* \"#utility.yul\":9959:10012   */\n      tag_145\n      jump\t// in\n    tag_317:\n        /* \"#utility.yul\":9949:10012   */\n      swap2\n      pop\n        /* \"#utility.yul\":9904:10022   */\n      pop\n        /* \"#utility.yul\":9355:10029   */\n      swap3\n      pop\n      swap3\n      pop\n      swap3\n      jump\t// out\n        /* \"#utility.yul\":10035:10153   */\n    tag_170:\n        /* \"#utility.yul\":10122:10146   */\n      tag_319\n        /* \"#utility.yul\":10140:10145   */\n      dup2\n        /* \"#utility.yul\":10122:10146   */\n      tag_159\n      jump\t// in\n    tag_319:\n        /* \"#utility.yul\":10117:10120   */\n      dup3\n        /* \"#utility.yul\":10110:10147   */\n      mstore\n        /* \"#utility.yul\":10035:10153   */\n      pop\n      pop\n      jump\t// out\n        /* \"#utility.yul\":10159:10381   */\n    tag_67:\n        /* \"#utility.yul\":10252:10256   */\n      0x00\n        /* \"#utility.yul\":10290:10292   */\n      0x20\n        /* \"#utility.yul\":10279:10288   */\n      dup3\n        /* \"#utility.yul\":10275:10293   */\n      add\n        /* \"#utility.yul\":10267:10293   */\n      swap1\n      pop\n        /* \"#utility.yul\":10303:10374   */\n      tag_321\n        /* \"#utility.yul\":10371:10372   */\n      0x00\n        /* \"#utility.yul\":10360:10369   */\n      dup4\n        /* \"#utility.yul\":10356:10373   */\n      add\n        /* \"#utility.yul\":10347:10353   */\n      dup5\n        /* \"#utility.yul\":10303:10374   */\n      tag_170\n      jump\t// in\n    tag_321:\n        /* \"#utility.yul\":10159:10381   */\n      swap3\n      swap2\n      pop\n      pop\n      jump\t// out\n        /* \"#utility.yul\":10387:10557   */\n    tag_171:\n        /* \"#utility.yul\":10527:10549   */\n      0x566f746572206e6f742072656769737465726564000000000000000000000000\n        /* \"#utility.yul\":10523:10524   */\n      0x00\n        /* \"#utility.yul\":10515:10521   */\n      dup3\n        /* \"#utility.yul\":10511:10525   */\n      add\n        /* \"#utility.yul\":10504:10550   */\n      mstore\n        /* \"#utility.yul\":10387:10557   */\n      pop\n      jump\t// out\n        /* \"#utility.yul\":10563:10929   */\n    tag_172:\n        /* \"#utility.yul\":10705:10708   */\n      0x00\n        /* \"#utility.yul\":10726:10793   */\n      tag_324\n        /* \"#utility.yul\":10790:10792   */\n      0x14\n        /* \"#utility.yul\":10785:10788   */\n      dup4\n        /* \"#utility.yul\":10726:10793   */\n      tag_151\n      jump\t// in\n    tag_324:\n        /* \"#utility.yul\":10719:10793   */\n      swap2\n      pop\n        /* \"#utility.yul\":10802:10895   */\n      tag_325\n        /* \"#utility.yul\":10891:10894   */\n      dup3\n        /* \"#utility.yul\":10802:10895   */\n      tag_171\n      jump\t// in\n    tag_325:\n        /* \"#utility.yul\":10920:10922   */\n      0x20\n        /* \"#utility.yul\":10915:10918   */\n      dup3\n        /* \"#utility.yul\":10911:10923   */\n      add\n        /* \"#utility.yul\":10904:10923   */\n      swap1\n      pop\n        /* \"#utility.yul\":10563:10929   */\n      swap2\n      swap1\n      pop\n      jump\t// out\n        /* \"#utility.yul\":10935:11354   */\n    tag_71:\n        /* \"#utility.yul\":11101:11105   */\n      0x00\n        /* \"#utility.yul\":11139:11141   */\n      0x20\n        /* \"#utility.yul\":11128:11137   */\n      dup3\n        /* \"#utility.yul\":11124:11142   */\n      add\n        /* \"#utility.yul\":11116:11142   */\n      swap1\n      pop\n        /* \"#utility.yul\":11188:11197   */\n      dup2\n        /* \"#utility.yul\":11182:11186   */\n      dup2\n        /* \"#utility.yul\":11178:11198   */\n      sub\n        /* \"#utility.yul\":11174:11175   */\n      0x00\n        /* \"#utility.yul\":11163:11172   */\n      dup4\n        /* \"#utility.yul\":11159:11176   */\n      add\n        /* \"#utility.yul\":11152:11199   */\n      mstore\n        /* \"#utility.yul\":11216:11347   */\n      tag_327\n        /* \"#utility.yul\":11342:11346   */\n      dup2\n        /* \"#utility.yul\":11216:11347   */\n      tag_172\n      jump\t// in\n    tag_327:\n        /* \"#utility.yul\":11208:11347   */\n      swap1\n      pop\n        /* \"#utility.yul\":10935:11354   */\n      swap2\n      swap1\n      pop\n      jump\t// out\n        /* \"#utility.yul\":11360:11523   */\n    tag_173:\n        /* \"#utility.yul\":11500:11515   */\n      0x416c726561647920766f74656400000000000000000000000000000000000000\n        /* \"#utility.yul\":11496:11497   */\n      0x00\n        /* \"#utility.yul\":11488:11494   */\n      dup3\n        /* \"#utility.yul\":11484:11498   */\n      add\n        /* \"#utility.yul\":11477:11516   */\n      mstore\n        /* \"#utility.yul\":11360:11523   */\n      pop\n      jump\t// out\n        /* \"#utility.yul\":11529:11895   */\n    tag_174:\n        /* \"#utility.yul\":11671:11674   */\n      0x00\n        /* \"#utility.yul\":11692:11759   */\n      tag_330\n        /* \"#utility.yul\":11756:11758   */\n      0x0d\n        /* \"#utility.yul\":11751:11754   */\n      dup4\n        /* \"#utility.yul\":11692:11759   */\n      tag_151\n      jump\t// in\n    tag_330:\n        /* \"#utility.yul\":11685:11759   */\n      swap2\n      pop\n        /* \"#utility.yul\":11768:11861   */\n      tag_331\n        /* \"#utility.yul\":11857:11860   */\n      dup3\n        /* \"#utility.yul\":11768:11861   */\n      tag_173\n      jump\t// in\n    tag_331:\n        /* \"#utility.yul\":11886:11888   */\n      0x20\n        /* \"#utility.yul\":11881:11884   */\n      dup3\n        /* \"#utility.yul\":11877:11889   */\n      add\n        /* \"#utility.yul\":11870:11889   */\n      swap1\n      pop\n        /* \"#utility.yul\":11529:11895   */\n      swap2\n      swap1\n      pop\n      jump\t// out\n        /* \"#utility.yul\":11901:12320   */\n    tag_74:\n        /* \"#utility.yul\":12067:12071   */\n      0x00\n        /* \"#utility.yul\":12105:12107   */\n      0x20\n        /* \"#utility.yul\":12094:12103   */\n      dup3\n        /* \"#utility.yul\":12090:12108   */\n      add\n        /* \"#utility.yul\":12082:12108   */\n      swap1\n      pop\n        /* \"#utility.yul\":12154:12163   */\n      dup2\n        /* \"#utility.yul\":12148:12152   */\n      dup2\n        /* \"#utility.yul\":12144:12164   */\n      sub\n        /* \"#utility.yul\":12140:12141   */\n      0x00\n        /* \"#utility.yul\":12129:12138   */\n      dup4\n        /* \"#utility.yul\":12125:12142   */\n      add\n        /* \"#utility.yul\":12118:12165   */\n      mstore\n        /* \"#utility.yul\":12182:12313   */\n      tag_333\n        /* \"#utility.yul\":12308:12312   */\n      dup2\n        /* \"#utility.yul\":12182:12313   */\n      tag_174\n      jump\t// in\n    tag_333:\n        /* \"#utility.yul\":12174:12313   */\n      swap1\n      pop\n        /* \"#utility.yul\":11901:12320   */\n      swap2\n      swap1\n      pop\n      jump\t// out\n        /* \"#utility.yul\":12326:12493   */\n    tag_175:\n        /* \"#utility.yul\":12466:12485   */\n      0x496e76616c69642063616e646964617465000000000000000000000000000000\n        /* \"#utility.yul\":12462:12463   */\n      0x00\n        /* \"#utility.yul\":12454:12460   */\n      dup3\n        /* \"#utility.yul\":12450:12464   */\n      add\n        /* \"#utility.yul\":12443:12486   */\n      mstore\n        /* \"#utility.yul\":12326:12493   */\n      pop\n      jump\t// out\n        /* \"#utility.yul\":12499:12865   */\n    tag_176:\n        /* \"#utility.yul\":12641:12644   */\n      0x00\n        /* \"#utility.yul\":12662:12729   */\n      tag_336\n        /* \"#utility.yul\":12726:12728   */\n      0x11\n        /* \"#utility.yul\":12721:12724   */\n      dup4\n        /* \"#utility.yul\":12662:12729   */\n      tag_151\n      jump\t// in\n    tag_336:\n        /* \"#utility.yul\":12655:12729   */\n      swap2\n      pop\n        /* \"#utility.yul\":12738:12831   */\n      tag_337\n        /* \"#utility.yul\":12827:12830   */\n      dup3\n        /* \"#utility.yul\":12738:12831   */\n      tag_175\n      jump\t// in\n    tag_337:\n        /* \"#utility.yul\":12856:12858   */\n      0x20\n        /* \"#utility.yul\":12851:12854   */\n      dup3\n        /* \"#utility.yul\":12847:12859   */\n      add\n        /* \"#utility.yul\":12840:12859   */\n      swap1\n      pop\n        /* \"#utility.yul\":12499:12865   */\n      swap2\n      swap1\n      pop\n      jump\t// out\n        /* \"#utility.yul\":12871:13290   */\n    tag_78:\n        /* \"#utility.yul\":13037:13041   */\n      0x00\n        /* \"#utility.yul\":13075:13077   */\n      0x20\n        /* \"#utility.yul\":13064:13073   */\n      dup3\n        /* \"#utility.yul\":13060:13078   */\n      add\n        /* \"#utility.yul\":13052:13078   */\n      swap1\n      pop\n        /* \"#utility.yul\":13124:13133   */\n      dup2\n        /* \"#utility.yul\":13118:13122   */\n      dup2\n        /* \"#utility.yul\":13114:13134   */\n      sub\n        /* \"#utility.yul\":13110:13111   */\n      0x00\n        /* \"#utility.yul\":13099:13108   */\n      dup4\n        /* \"#utility.yul\":13095:13112   */\n      add\n        /* \"#utility.yul\":13088:13135   */\n      mstore\n        /* \"#utility.yul\":13152:13283   */\n      tag_339\n        /* \"#utility.yul\":13278:13282   */\n      dup2\n        /* \"#utility.yul\":13152:13283   */\n      tag_176\n      jump\t// in\n    tag_339:\n        /* \"#utility.yul\":13144:13283   */\n      swap1\n      pop\n        /* \"#utility.yul\":12871:13290   */\n      swap2\n      swap1\n      pop\n      jump\t// out\n        /* \"#utility.yul\":13296:13466   */\n    tag_177:\n        /* \"#utility.yul\":13436:13458   */\n      0x43616e646964617465206e6f7420616374697665000000000000000000000000\n        /* \"#utility.yul\":13432:13433   */\n      0x00\n        /* \"#utility.yul\":13424:13430   */\n      dup3\n        /* \"#utility.yul\":13420:13434   */\n      add\n        /* \"#utility.yul\":13413:13459   */\n      mstore\n        /* \"#utility.yul\":13296:13466   */\n      pop\n      jump\t// out\n        /* \"#utility.yul\":13472:13838   */\n    tag_178:\n        /* \"#utility.yul\":13614:13617   */\n      0x00\n        /* \"#utility.yul\":13635:13702   */\n      tag_342\n        /* \"#utility.yul\":13699:13701   */\n      0x14\n        /* \"#utility.yul\":13694:13697   */\n      dup4\n        /* \"#utility.yul\":13635:13702   */\n      tag_151\n      jump\t// in\n    tag_342:\n        /* \"#utility.yul\":13628:13702   */\n      swap2\n      pop\n        /* \"#utility.yul\":13711:13804   */\n      tag_343\n        /* \"#utility.yul\":13800:13803   */\n      dup3\n        /* \"#utility.yul\":13711:13804   */\n      tag_177\n      jump\t// in\n    tag_343:\n        /* \"#utility.yul\":13829:13831   */\n      0x20\n        /* \"#utility.yul\":13824:13827   */\n      dup3\n        /* \"#utility.yul\":13820:13832   */\n      add\n        /* \"#utility.yul\":13813:13832   */\n      swap1\n      pop\n        /* \"#utility.yul\":13472:13838   */\n      swap2\n      swap1\n      pop\n      jump\t// out\n        /* \"#utility.yul\":13844:14263   */\n    tag_81:\n        /* \"#utility.yul\":14010:14014   */\n      0x00\n        /* \"#utility.yul\":14048:14050   */\n      0x20\n        /* \"#utility.yul\":14037:14046   */\n      dup3\n        /* \"#utility.yul\":14033:14051   */\n      add\n        /* \"#utility.yul\":14025:14051   */\n      swap1\n      pop\n        /* \"#utility.yul\":14097:14106   */\n      dup2\n        /* \"#utility.yul\":14091:14095   */\n      dup2\n        /* \"#utility.yul\":14087:14107   */\n      sub\n        /* \"#utility.yul\":14083:14084   */\n      0x00\n        /* \"#utility.yul\":14072:14081   */\n      dup4\n        /* \"#utility.yul\":14068:14085   */\n      add\n        /* \"#utility.yul\":14061:14108   */\n      mstore\n        /* \"#utility.yul\":14125:14256   */\n      tag_345\n        /* \"#utility.yul\":14251:14255   */\n      dup2\n        /* \"#utility.yul\":14125:14256   */\n      tag_178\n      jump\t// in\n    tag_345:\n        /* \"#utility.yul\":14117:14256   */\n      swap1\n      pop\n        /* \"#utility.yul\":13844:14263   */\n      swap2\n      swap1\n      pop\n      jump\t// out\n        /* \"#utility.yul\":14269:14449   */\n    tag_179:\n        /* \"#utility.yul\":14317:14394   */\n      0x4e487b7100000000000000000000000000000000000000000000000000000000\n        /* \"#utility.yul\":14314:14315   */\n      0x00\n        /* \"#utility.yul\":14307:14395   */\n      mstore\n        /* \"#utility.yul\":14414:14418   */\n      0x11\n        /* \"#utility.yul\":14411:14412   */\n      0x04\n        /* \"#utility.yul\":14404:14419   */\n      mstore\n        /* \"#utility.yul\":14438:14442   */\n      0x24\n        /* \"#utility.yul\":14435:14436   */\n      0x00\n        /* \"#utility.yul\":14428:14443   */\n      revert\n        /* \"#utility.yul\":14455:14688   */\n    tag_83:\n        /* \"#utility.yul\":14494:14497   */\n      0x00\n        /* \"#utility.yul\":14517:14541   */\n      tag_348\n        /* \"#utility.yul\":14535:14540   */\n      dup3\n        /* \"#utility.yul\":14517:14541   */\n      tag_143\n      jump\t// in\n    tag_348:\n        /* \"#utility.yul\":14508:14541   */\n      swap2\n      pop\n        /* \"#utility.yul\":14563:14629   */\n      0xffffffffffffffffffffffffffffffffffffffffffffffffffffffffffffffff\n        /* \"#utility.yul\":14556:14561   */\n      dup3\n        /* \"#utility.yul\":14553:14630   */\n      sub\n        /* \"#utility.yul\":14550:14653   */\n      tag_349\n      jumpi\n        /* \"#utility.yul\":14633:14651   */\n      tag_350\n      tag_179\n      jump\t// in\n    tag_350:\n        /* \"#utility.yul\":14550:14653   */\n    tag_349:\n        /* \"#utility.yul\":14680:14681   */\n      0x01\n        /* \"#utility.yul\":14673:14678   */\n      dup3\n        /* \"#utility.yul\":14669:14682   */\n      add\n        /* \"#utility.yul\":14662:14682   */\n      swap1\n      pop\n        /* \"#utility.yul\":14455:14688   */\n      swap2\n      swap1\n      pop\n      jump\t// out\n        /* \"#utility.yul\":14694:14915   */\n    tag_180:\n        /* \"#utility.yul\":14834:14868   */\n      0x4f6e6c792061646d696e2063616e20706572666f726d20746869732061637469\n        /* \"#utility.yul\":14830:14831   */\n      0x00\n        /* \"#utility.yul\":14822:14828   */\n      dup3\n        /* \"#utility.yul\":14818:14832   */\n      add\n        /* \"#utility.yul\":14811:14869   */\n      mstore\n        /* \"#utility.yul\":14903:14907   */\n      0x6f6e000000000000000000000000000000000000000000000000000000000000\n        /* \"#utility.yul\":14898:14900   */\n      0x20\n        /* \"#utility.yul\":14890:14896   */\n      dup3\n        /* \"#utility.yul\":14886:14901   */\n      add\n        /* \"#utility.yul\":14879:14908   */\n      mstore\n        /* \"#utility.yul\":14694:14915   */\n      pop\n      jump\t// out\n        /* \"#utility.yul\":14921:15287   */\n    tag_181:\n        /* \"#utility.yul\":15063:15066   */\n      0x00\n        /* \"#utility.yul\":15084:15151   */\n      tag_353\n        /* \"#utility.yul\":15148:15150   */\n      0x22\n        /* \"#utility.yul\":15143:15146   */\n      dup4\n        /* \"#utility.yul\":15084:15151   */\n      tag_151\n      jump\t// in\n    tag_353:\n        /* \"#utility.yul\":15077:15151   */\n      swap2\n      pop\n        /* \"#utility.yul\":15160:15253   */\n      tag_354\n        /* \"#utility.yul\":15249:15252   */\n      dup3\n        /* \"#utility.yul\":15160:15253   */\n      tag_180\n      jump\t// in\n    tag_354:\n        /* \"#utility.yul\":15278:15280   */\n      0x40\n        /* \"#utility.yul\":15273:15276   */\n      dup3\n        /* \"#utility.yul\":15269:15281   */\n      add\n        /* \"#utility.yul\":15262:15281   */\n      swap1\n      pop\n        /* \"#utility.yul\":14921:15287   */\n      swap2\n      swap1\n      pop\n      jump\t// out\n        /* \"#utility.yul\":15293:15712   */\n    tag_87:\n        /* \"#utility.yul\":15459:15463   */\n      0x00\n        /* \"#utility.yul\":15497:15499   */\n      0x20\n        /* \"#utility.yul\":15486:15495   */\n      dup3\n        /* \"#utility.yul\":15482:15500   */\n      add\n        /* \"#utility.yul\":15474:15500   */\n      swap1\n      pop\n        /* \"#utility.yul\":15546:15555   */\n      dup2\n        /* \"#utility.yul\":15540:15544   */\n      dup2\n        /* \"#utility.yul\":15536:15556   */\n      sub\n        /* \"#utility.yul\":15532:15533   */\n      0x00\n        /* \"#utility.yul\":15521:15530   */\n      dup4\n        /* \"#utility.yul\":15517:15534   */\n      add\n        /* \"#utility.yul\":15510:15557   */\n      mstore\n        /* \"#utility.yul\":15574:15705   */\n      tag_356\n        /* \"#utility.yul\":15700:15704   */\n      dup2\n        /* \"#utility.yul\":15574:15705   */\n      tag_181\n      jump\t// in\n    tag_356:\n        /* \"#utility.yul\":15566:15705   */\n      swap1\n      pop\n        /* \"#utility.yul\":15293:15712   */\n      swap2\n      swap1\n      pop\n      jump\t// out\n        /* \"#utility.yul\":15718:15888   */\n    tag_182:\n        /* \"#utility.yul\":15858:15880   */\n      0x4e616d652063616e6e6f7420626520656d707479000000000000000000000000\n        /* \"#utility.yul\":15854:15855   */\n      0x00\n        /* \"#utility.yul\":15846:15852   */\n      dup3\n        /* \"#utility.yul\":15842:15856   */\n      add\n        /* \"#utility.yul\":15835:15881   */\n      mstore\n        /* \"#utility.yul\":15718:15888   */\n      pop\n      jump\t// out\n        /* \"#utility.yul\":15894:16260   */\n    tag_183:\n        /* \"#utility.yul\":16036:16039   */\n      0x00\n        /* \"#utility.yul\":16057:16124   */\n      tag_359\n        /* \"#utility.yul\":16121:16123   */\n      0x14\n        /* \"#utility.yul\":16116:16119   */\n      dup4\n        /* \"#utility.yul\":16057:16124   */\n      tag_151\n      jump\t// in\n    tag_359:\n        /* \"#utility.yul\":16050:16124   */\n      swap2\n      pop\n        /* \"#utility.yul\":16133:16226   */\n      tag_360\n        /* \"#utility.yul\":16222:16225   */\n      dup3\n        /* \"#utility.yul\":16133:16226   */\n      tag_182\n      jump\t// in\n    tag_360:\n        /* \"#utility.yul\":16251:16253   */\n      0x20\n        /* \"#utility.yul\":16246:16249   */\n      dup3\n        /* \"#utility.yul\":16242:16254   */\n      add\n        /* \"#utility.yul\":16235:16254   */\n      swap1\n      pop\n        /* \"#utility.yul\":15894:16260   */\n      swap2\n      swap1\n      pop\n      jump\t// out\n        /* \"#utility.yul\":16266:16685   */\n    tag_91:\n        /* \"#utility.yul\":16432:16436   */\n      0x00\n        /* \"#utility.yul\":16470:16472   */\n      0x20\n        /* \"#utility.yul\":16459:16468   */\n      dup3\n        /* \"#utility.yul\":16455:16473   */\n      add\n        /* \"#utility.yul\":16447:16473   */\n      swap1\n      pop\n        /* \"#utility.yul\":16519:16528   */\n      dup2\n        /* \"#utility.yul\":16513:16517   */\n      dup2\n        /* \"#utility.yul\":16509:16529   */\n      sub\n        /* \"#utility.yul\":16505:16506   */\n      0x00\n        /* \"#utility.yul\":16494:16503   */\n      dup4\n        /* \"#utility.yul\":16490:16507   */\n      add\n        /* \"#utility.yul\":16483:16530   */\n      mstore\n        /* \"#utility.yul\":16547:16678   */\n      tag_362\n        /* \"#utility.yul\":16673:16677   */\n      dup2\n        /* \"#utility.yul\":16547:16678   */\n      tag_183\n      jump\t// in\n    tag_362:\n        /* \"#utility.yul\":16539:16678   */\n      swap1\n      pop\n        /* \"#utility.yul\":16266:16685   */\n      swap2\n      swap1\n      pop\n      jump\t// out\n        /* \"#utility.yul\":16691:16871   */\n    tag_184:\n        /* \"#utility.yul\":16739:16816   */\n      0x4e487b7100000000000000000000000000000000000000000000000000000000\n        /* \"#utility.yul\":16736:16737   */\n      0x00\n        /* \"#utility.yul\":16729:16817   */\n      mstore\n        /* \"#utility.yul\":16836:16840   */\n      0x22\n        /* \"#utility.yul\":16833:16834   */\n      0x04\n        /* \"#utility.yul\":16826:16841   */\n      mstore\n        /* \"#utility.yul\":16860:16864   */\n      0x24\n        /* \"#utility.yul\":16857:16858   */\n      0x00\n        /* \"#utility.yul\":16850:16865   */\n      revert\n        /* \"#utility.yul\":16877:17197   */\n    tag_99:\n        /* \"#utility.yul\":16921:16927   */\n      0x00\n        /* \"#utility.yul\":16958:16959   */\n      0x02\n        /* \"#utility.yul\":16952:16956   */\n      dup3\n        /* \"#utility.yul\":16948:16960   */\n      div\n        /* \"#utility.yul\":16938:16960   */\n      swap1\n      pop\n        /* \"#utility.yul\":17005:17006   */\n      0x01\n        /* \"#utility.yul\":16999:17003   */\n      dup3\n        /* \"#utility.yul\":16995:17007   */\n      and\n        /* \"#utility.yul\":17026:17044   */\n      dup1\n        /* \"#utility.yul\":17016:17097   */\n      tag_365\n      jumpi\n        /* \"#utility.yul\":17082:17086   */\n      0x7f\n        /* \"#utility.yul\":17074:17080   */\n      dup3\n        /* \"#utility.yul\":17070:17087   */\n      and\n        /* \"#utility.yul\":17060:17087   */\n      swap2\n      pop\n        /* \"#utility.yul\":17016:17097   */\n    tag_365:\n        /* \"#utility.yul\":17144:17146   */\n      0x20\n        /* \"#utility.yul\":17136:17142   */\n      dup3\n        /* \"#utility.yul\":17133:17147   */\n      lt\n        /* \"#utility.yul\":17113:17131   */\n      dup2\n        /* \"#utility.yul\":17110:17148   */\n      sub\n        /* \"#utility.yul\":17107:17191   */\n      tag_366\n      jumpi\n        /* \"#utility.yul\":17163:17181   */\n      tag_367\n      tag_184\n      jump\t// in\n    tag_367:\n        /* \"#utility.yul\":17107:17191   */\n    tag_366:\n        /* \"#utility.yul\":16928:17197   */\n      pop\n        /* \"#utility.yul\":16877:17197   */\n      swap2\n      swap1\n      pop\n      jump\t// out\n        /* \"#utility.yul\":17203:17344   */\n    tag_185:\n        /* \"#utility.yul\":17252:17256   */\n      0x00\n        /* \"#utility.yul\":17275:17278   */\n      dup2\n        /* \"#utility.yul\":17267:17278   */\n      swap1\n      pop\n        /* \"#utility.yul\":17298:17301   */\n      dup2\n        /* \"#utility.yul\":17295:17296   */\n      0x00\n        /* \"#utility.yul\":17288:17302   */\n      mstore\n        /* \"#utility.yul\":17332:17336   */\n      0x20\n        /* \"#utility.yul\":17329:17330   */\n      0x00\n        /* \"#utility.yul\":17319:17337   */\n      keccak256\n        /* \"#utility.yul\":17311:17337   */\n      swap1\n      pop\n        /* \"#utility.yul\":17203:17344   */\n      swap2\n      swap1\n      pop\n      jump\t// out\n        /* \"#utility.yul\":17350:17443   */\n    tag_186:\n        /* \"#utility.yul\":17387:17393   */\n      0x00\n        /* \"#utility.yul\":17434:17436   */\n      0x20\n        /* \"#utility.yul\":17429:17431   */\n      0x1f\n        /* \"#utility.yul\":17422:17427   */\n      dup4\n        /* \"#utility.yul\":17418:17432   */\n      add\n        /* \"#utility.yul\":17414:17437   */\n      div\n        /* \"#utility.yul\":17404:17437   */\n      swap1\n      pop\n        /* \"#utility.yul\":17350:17443   */\n      swap2\n      swap1\n      pop\n      jump\t// out\n        /* \"#utility.yul\":17449:17556   */\n    tag_187:\n        /* \"#utility.yul\":17493:17501   */\n      0x00\n        /* \"#utility.yul\":17543:17548   */\n      dup3\n        /* \"#utility.yul\":17537:17541   */\n      dup3\n        /* \"#utility.yul\":17533:17549   */\n      shl\n        /* \"#utility.yul\":17512:17549   */\n      swap1\n      pop\n        /* \"#utility.yul\":17449:17556   */\n      swap3\n      swap2\n      pop\n      pop\n      jump\t// out\n        /* \"#utility.yul\":17562:17955   */\n    tag_188:\n        /* \"#utility.yul\":17631:17637   */\n      0x00\n        /* \"#utility.yul\":17681:17682   */\n      0x08\n        /* \"#utility.yul\":17669:17679   */\n      dup4\n        /* \"#utility.yul\":17665:17683   */\n      mul\n        /* \"#utility.yul\":17704:17801   */\n      tag_372\n        /* \"#utility.yul\":17734:17800   */\n      0xffffffffffffffffffffffffffffffffffffffffffffffffffffffffffffffff\n        /* \"#utility.yul\":17723:17732   */\n      dup3\n        /* \"#utility.yul\":17704:17801   */\n      tag_187\n      jump\t// in\n    tag_372:\n        /* \"#utility.yul\":17822:17861   */\n      tag_373\n        /* \"#utility.yul\":17852:17860   */\n      dup7\n        /* \"#utility.yul\":17841:17850   */\n      dup4\n        /* \"#utility.yul\":17822:17861   */\n      tag_187\n      jump\t// in\n    tag_373:\n        /* \"#utility.yul\":17810:17861   */\n      swap6\n      pop\n        /* \"#utility.yul\":17894:17898   */\n      dup1\n        /* \"#utility.yul\":17890:17899   */\n      not\n        /* \"#utility.yul\":17883:17888   */\n      dup5\n        /* \"#utility.yul\":17879:17900   */\n      and\n        /* \"#utility.yul\":17870:17900   */\n      swap4\n      pop\n        /* \"#utility.yul\":17943:17947   */\n      dup1\n        /* \"#utility.yul\":17933:17941   */\n      dup7\n        /* \"#utility.yul\":17929:17948   */\n      and\n        /* \"#utility.yul\":17922:17927   */\n      dup5\n        /* \"#utility.yul\":17919:17949   */\n      or\n        /* \"#utility.yul\":17909:17949   */\n      swap3\n      pop\n        /* \"#utility.yul\":17638:17955   */\n      pop\n      pop\n        /* \"#utility.yul\":17562:17955   */\n      swap4\n      swap3\n      pop\n      pop\n      pop\n      jump\t// out\n        /* \"#utility.yul\":17961:18021   */\n    tag_189:\n        /* \"#utility.yul\":17989:17992   */\n      0x00\n        /* \"#utility.yul\":18010:18015   */\n      dup2\n        /* \"#utility.yul\":18003:18015   */\n      swap1\n      pop\n        /* \"#utility.yul\":17961:18021   */\n      swap2\n      swap1\n      pop\n      jump\t// out\n        /* \"#utility.yul\":18027:18169   */\n    tag_190:\n        /* \"#utility.yul\":18077:18086   */\n      0x00\n        /* \"#utility.yul\":18110:18163   */\n      tag_376\n        /* \"#utility.yul\":18128:18162   */\n      tag_377\n        /* \"#utility.yul\":18137:18161   */\n      tag_378\n        /* \"#utility.yul\":18155:18160   */\n      dup5\n        /* \"#utility.yul\":18137:18161   */\n      tag_143\n      jump\t// in\n    tag_378:\n        /* \"#utility.yul\":18128:18162   */\n      tag_189\n      jump\t// in\n    tag_377:\n        /* \"#utility.yul\":18110:18163   */\n      tag_143\n      jump\t// in\n    tag_376:\n        /* \"#utility.yul\":18097:18163   */\n      swap1\n      pop\n        /* \"#utility.yul\":18027:18169   */\n      swap2\n      swap1\n      pop\n      jump\t// out\n        /* \"#utility.yul\":18175:18250   */\n    tag_191:\n        /* \"#utility.yul\":18218:18221   */\n      0x00\n        /* \"#utility.yul\":18239:18244   */\n      dup2\n        /* \"#utility.yul\":18232:18244   */\n      swap1\n      pop\n        /* \"#utility.yul\":18175:18250   */\n      swap2\n      swap1\n      pop\n      jump\t// out\n        /* \"#utility.yul\":18256:18525   */\n    tag_192:\n        /* \"#utility.yul\":18366:18405   */\n      tag_381\n        /* \"#utility.yul\":18397:18404   */\n      dup4\n        /* \"#utility.yul\":18366:18405   */\n      tag_190\n      jump\t// in\n    tag_381:\n        /* \"#utility.yul\":18427:18518   */\n      tag_382\n        /* \"#utility.yul\":18476:18517   */\n      tag_383\n        /* \"#utility.yul\":18500:18516   */\n      dup3\n        /* \"#utility.yul\":18476:18517   */\n      tag_191\n      jump\t// in\n    tag_383:\n        /* \"#utility.yul\":18468:18474   */\n      dup5\n        /* \"#utility.yul\":18461:18465   */\n      dup5\n        /* \"#utility.yul\":18455:18466   */\n      sload\n        /* \"#utility.yul\":18427:18518   */\n      tag_188\n      jump\t// in\n    tag_382:\n        /* \"#utility.yul\":18421:18425   */\n      dup3\n        /* \"#utility.yul\":18414:18519   */\n      sstore\n        /* \"#utility.yul\":18332:18525   */\n      pop\n        /* \"#utility.yul\":18256:18525   */\n      pop\n      pop\n      pop\n      jump\t// out\n        /* \"#utility.yul\":18531:18604   */\n    tag_193:\n        /* \"#utility.yul\":18576:18579   */\n      0x00\n        /* \"#utility.yul\":18597:18598   */\n      0x00\n        /* \"#utility.yul\":18590:18598   */\n      swap1\n      pop\n        /* \"#utility.yul\":18531:18604   */\n      swap1\n      jump\t// out\n        /* \"#utility.yul\":18610:18799   */\n    tag_194:\n        /* \"#utility.yul\":18687:18719   */\n      tag_386\n      tag_193\n      jump\t// in\n    tag_386:\n        /* \"#utility.yul\":18728:18793   */\n      tag_387\n        /* \"#utility.yul\":18786:18792   */\n      dup2\n        /* \"#utility.yul\":18778:18784   */\n      dup5\n        /* \"#utility.yul\":18772:18776   */\n      dup5\n        /* \"#utility.yul\":18728:18793   */\n      tag_192\n      jump\t// in\n    tag_387:\n        /* \"#utility.yul\":18663:18799   */\n      pop\n        /* \"#utility.yul\":18610:18799   */\n      pop\n      pop\n      jump\t// out\n        /* \"#utility.yul\":18805:18991   */\n    tag_195:\n        /* \"#utility.yul\":18865:18985   */\n    tag_389:\n        /* \"#utility.yul\":18882:18885   */\n      dup2\n        /* \"#utility.yul\":18875:18880   */\n      dup2\n        /* \"#utility.yul\":18872:18886   */\n      lt\n        /* \"#utility.yul\":18865:18985   */\n      iszero\n      tag_391\n      jumpi\n        /* \"#utility.yul\":18936:18975   */\n      tag_392\n        /* \"#utility.yul\":18973:18974   */\n      0x00\n        /* \"#utility.yul\":18966:18971   */\n      dup3\n        /* \"#utility.yul\":18936:18975   */\n      tag_194\n      jump\t// in\n    tag_392:\n        /* \"#utility.yul\":18909:18910   */\n      0x01\n        /* \"#utility.yul\":18902:18907   */\n      dup2\n        /* \"#utility.yul\":18898:18911   */\n      add\n        /* \"#utility.yul\":18889:18911   */\n      swap1\n      pop\n        /* \"#utility.yul\":18865:18985   */\n      jump(tag_389)\n    tag_391:\n        /* \"#utility.yul\":18805:18991   */\n      pop\n      pop\n      jump\t// out\n        /* \"#utility.yul\":18997:19540   */\n    tag_196:\n        /* \"#utility.yul\":19098:19100   */\n      0x1f\n        /* \"#utility.yul\":19093:19096   */\n      dup3\n        /* \"#utility.yul\":19090:19101   */\n      gt\n        /* \"#utility.yul\":19087:19533   */\n      iszero\n      tag_394\n      jumpi\n        /* \"#utility.yul\":19132:19170   */\n      tag_395\n        /* \"#utility.yul\":19164:19169   */\n      dup2\n        /* \"#utility.yul\":19132:19170   */\n      tag_185\n      jump\t// in\n    tag_395:\n        /* \"#utility.yul\":19216:19245   */\n      tag_396\n        /* \"#utility.yul\":19234:19244   */\n      dup5\n        /* \"#utility.yul\":19216:19245   */\n      tag_186\n      jump\t// in\n    tag_396:\n        /* \"#utility.yul\":19206:19214   */\n      dup2\n        /* \"#utility.yul\":19202:19246   */\n      add\n        /* \"#utility.yul\":19399:19401   */\n      0x20\n        /* \"#utility.yul\":19387:19397   */\n      dup6\n        /* \"#utility.yul\":19384:19402   */\n      lt\n        /* \"#utility.yul\":19381:19430   */\n      iszero\n      tag_397\n      jumpi\n        /* \"#utility.yul\":19420:19428   */\n      dup2\n        /* \"#utility.yul\":19405:19428   */\n      swap1\n      pop\n        /* \"#utility.yul\":19381:19430   */\n    tag_397:\n        /* \"#utility.yul\":19443:19523   */\n      tag_398\n        /* \"#utility.yul\":19499:19521   */\n      tag_399\n        /* \"#utility.yul\":19517:19520   */\n      dup6\n        /* \"#utility.yul\":19499:19521   */\n      tag_186\n      jump\t// in\n    tag_399:\n        /* \"#utility.yul\":19489:19497   */\n      dup4\n        /* \"#utility.yul\":19485:19522   */\n      add\n        /* \"#utility.yul\":19472:19483   */\n      dup3\n        /* \"#utility.yul\":19443:19523   */\n      tag_195\n      jump\t// in\n    tag_398:\n        /* \"#utility.yul\":19102:19533   */\n      pop\n      pop\n        /* \"#utility.yul\":19087:19533   */\n    tag_394:\n        /* \"#utility.yul\":18997:19540   */\n      pop\n      pop\n      pop\n      jump\t// out\n        /* \"#utility.yul\":19546:19663   */\n    tag_197:\n        /* \"#utility.yul\":19600:19608   */\n      0x00\n        /* \"#utility.yul\":19650:19655   */\n      dup3\n        /* \"#utility.yul\":19644:19648   */\n      dup3\n        /* \"#utility.yul\":19640:19656   */\n      shr\n        /* \"#utility.yul\":19619:19656   */\n      swap1\n      pop\n        /* \"#utility.yul\":19546:19663   */\n      swap3\n      swap2\n      pop\n      pop\n      jump\t// out\n        /* \"#utility.yul\":19669:19838   */\n    tag_198:\n        /* \"#utility.yul\":19713:19719   */\n      0x00\n        /* \"#utility.yul\":19746:19797   */\n      tag_402\n        /* \"#utility.yul\":19794:19795   */\n      0x00\n        /* \"#utility.yul\":19790:19796   */\n      not\n        /* \"#utility.yul\":19782:19787   */\n      dup5\n        /* \"#utility.yul\":19779:19780   */\n      0x08\n        /* \"#utility.yul\":19775:19788   */\n      mul\n        /* \"#utility.yul\":19746:19797   */\n      tag_197\n      jump\t// in\n    tag_402:\n        /* \"#utility.yul\":19742:19798   */\n      not\n        /* \"#utility.yul\":19827:19831   */\n      dup1\n        /* \"#utility.yul\":19821:19825   */\n      dup4\n        /* \"#utility.yul\":19817:19832   */\n      and\n        /* \"#utility.yul\":19807:19832   */\n      swap2\n      pop\n        /* \"#utility.yul\":19720:19838   */\n      pop\n        /* \"#utility.yul\":19669:19838   */\n      swap3\n      swap2\n      pop\n      pop\n      jump\t// out\n        /* \"#utility.yul\":19843:20138   */\n    tag_199:\n        /* \"#utility.yul\":19919:19923   */\n      0x00\n        /* \"#utility.yul\":20065:20094   */\n      tag_404\n        /* \"#utility.yul\":20090:20093   */\n      dup4\n        /* \"#utility.yul\":20084:20088   */\n      dup4\n        /* \"#utility.yul\":20065:20094   */\n      tag_198\n      jump\t// in\n    tag_404:\n        /* \"#utility.yul\":20057:20094   */\n      swap2\n      pop\n        /* \"#utility.yul\":20127:20130   */\n      dup3\n        /* \"#utility.yul\":20124:20125   */\n      0x02\n        /* \"#utility.yul\":20120:20131   */\n      mul\n        /* \"#utility.yul\":20114:20118   */\n      dup3\n        /* \"#utility.yul\":20111:20132   */\n      or\n        /* \"#utility.yul\":20103:20132   */\n      swap1\n      pop\n        /* \"#utility.yul\":19843:20138   */\n      swap3\n      swap2\n      pop\n      pop\n      jump\t// out\n        /* \"#utility.yul\":20143:21538   */\n    tag_94:\n        /* \"#utility.yul\":20260:20297   */\n      tag_406\n        /* \"#utility.yul\":20293:20296   */\n      dup3\n        /* \"#utility.yul\":20260:20297   */\n      tag_150\n      jump\t// in\n    tag_406:\n        /* \"#utility.yul\":20362:20380   */\n      0xffffffffffffffff\n        /* \"#utility.yul\":20354:20360   */\n      dup2\n        /* \"#utility.yul\":20351:20381   */\n      gt\n        /* \"#utility.yul\":20348:20404   */\n      iszero\n      tag_407\n      jumpi\n        /* \"#utility.yul\":20384:20402   */\n      tag_408\n      tag_163\n      jump\t// in\n    tag_408:\n        /* \"#utility.yul\":20348:20404   */\n    tag_407:\n        /* \"#utility.yul\":20428:20466   */\n      tag_409\n        /* \"#utility.yul\":20460:20464   */\n      dup3\n        /* \"#utility.yul\":20454:20465   */\n      sload\n        /* \"#utility.yul\":20428:20466   */\n      tag_99\n      jump\t// in\n    tag_409:\n        /* \"#utility.yul\":20513:20580   */\n      tag_410\n        /* \"#utility.yul\":20573:20579   */\n      dup3\n        /* \"#utility.yul\":20565:20571   */\n      dup3\n        /* \"#utility.yul\":20559:20563   */\n      dup6\n        /* \"#utility.yul\":20513:20580   */\n      tag_196\n      jump\t// in\n    tag_410:\n        /* \"#utility.yul\":20607:20608   */\n      0x00\n        /* \"#utility.yul\":20631:20635   */\n      0x20\n        /* \"#utility.yul\":20618:20635   */\n      swap1\n      pop\n        /* \"#utility.yul\":20663:20665   */\n      0x1f\n        /* \"#utility.yul\":20655:20661   */\n      dup4\n        /* \"#utility.yul\":20652:20666   */\n      gt\n        /* \"#utility.yul\":20680:20681   */\n      0x01\n        /* \"#utility.yul\":20675:21293   */\n      dup2\n      eq\n      tag_412\n      jumpi\n        /* \"#utility.yul\":21337:21338   */\n      0x00\n        /* \"#utility.yul\":21354:21360   */\n      dup5\n        /* \"#utility.yul\":21351:21428   */\n      iszero\n      tag_413\n      jumpi\n        /* \"#utility.yul\":21403:21412   */\n      dup3\n        /* \"#utility.yul\":21398:21401   */\n      dup8\n        /* \"#utility.yul\":21394:21413   */\n      add\n        /* \"#utility.yul\":21388:21414   */\n      mload\n        /* \"#utility.yul\":21379:21414   */\n      swap1\n      pop\n        /* \"#utility.yul\":21351:21428   */\n    tag_413:\n        /* \"#utility.yul\":21454:21521   */\n      tag_414\n        /* \"#utility.yul\":21514:21520   */\n      dup6\n        /* \"#utility.yul\":21507:21512   */\n      dup3\n        /* \"#utility.yul\":21454:21521   */\n      tag_199\n      jump\t// in\n    tag_414:\n        /* \"#utility.yul\":21448:21452   */\n      dup7\n        /* \"#utility.yul\":21441:21522   */\n      sstore\n        /* \"#utility.yul\":21310:21532   */\n      pop\n        /* \"#utility.yul\":20645:21532   */\n      jump(tag_411)\n        /* \"#utility.yul\":20675:21293   */\n    tag_412:\n        /* \"#utility.yul\":20727:20731   */\n      0x1f\n        /* \"#utility.yul\":20723:20732   */\n      not\n        /* \"#utility.yul\":20715:20721   */\n      dup5\n        /* \"#utility.yul\":20711:20733   */\n      and\n        /* \"#utility.yul\":20761:20798   */\n      tag_415\n        /* \"#utility.yul\":20793:20797   */\n      dup7\n        /* \"#utility.yul\":20761:20798   */\n      tag_185\n      jump\t// in\n    tag_415:\n        /* \"#utility.yul\":20820:20821   */\n      0x00\n        /* \"#utility.yul\":20834:21042   */\n    tag_416:\n        /* \"#utility.yul\":20848:20855   */\n      dup3\n        /* \"#utility.yul\":20845:20846   */\n      dup2\n        /* \"#utility.yul\":20842:20856   */\n      lt\n        /* \"#utility.yul\":20834:21042   */\n      iszero\n      tag_418\n      jumpi\n        /* \"#utility.yul\":20927:20936   */\n      dup5\n        /* \"#utility.yul\":20922:20925   */\n      dup10\n        /* \"#utility.yul\":20918:20937   */\n      add\n        /* \"#utility.yul\":20912:20938   */\n      mload\n        /* \"#utility.yul\":20904:20910   */\n      dup3\n        /* \"#utility.yul\":20897:20939   */\n      sstore\n        /* \"#utility.yul\":20978:20979   */\n      0x01\n        /* \"#utility.yul\":20970:20976   */\n      dup3\n        /* \"#utility.yul\":20966:20980   */\n      add\n        /* \"#utility.yul\":20956:20980   */\n      swap2\n      pop\n        /* \"#utility.yul\":21025:21027   */\n      0x20\n        /* \"#utility.yul\":21014:21023   */\n      dup6\n        /* \"#utility.yul\":21010:21028   */\n      add\n        /* \"#utility.yul\":20997:21028   */\n      swap5\n      pop\n        /* \"#utility.yul\":20871:20875   */\n      0x20\n        /* \"#utility.yul\":20868:20869   */\n      dup2\n        /* \"#utility.yul\":20864:20876   */\n      add\n        /* \"#utility.yul\":20859:20876   */\n      swap1\n      pop\n        /* \"#utility.yul\":20834:21042   */\n      jump(tag_416)\n    tag_418:\n        /* \"#utility.yul\":21070:21076   */\n      dup7\n        /* \"#utility.yul\":21061:21068   */\n      dup4\n        /* \"#utility.yul\":21058:21077   */\n      lt\n        /* \"#utility.yul\":21055:21234   */\n      iszero\n      tag_419\n      jumpi\n        /* \"#utility.yul\":21128:21137   */\n      dup5\n        /* \"#utility.yul\":21123:21126   */\n      dup10\n        /* \"#utility.yul\":21119:21138   */\n      add\n        /* \"#utility.yul\":21113:21139   */\n      mload\n        /* \"#utility.yul\":21171:21219   */\n      tag_420\n        /* \"#utility.yul\":21213:21217   */\n      0x1f\n        /* \"#utility.yul\":21205:21211   */\n      dup10\n        /* \"#utility.yul\":21201:21218   */\n      and\n        /* \"#utility.yul\":21190:21199   */\n      dup3\n        /* \"#utility.yul\":21171:21219   */\n      tag_198\n      jump\t// in\n    tag_420:\n        /* \"#utility.yul\":21163:21169   */\n      dup4\n        /* \"#utility.yul\":21156:21220   */\n      sstore\n        /* \"#utility.yul\":21078:21234   */\n      pop\n        /* \"#utility.yul\":21055:21234   */\n    tag_419:\n        /* \"#utility.yul\":21280:21281   */\n      0x01\n        /* \"#utility.yul\":21276:21277   */\n      0x02\n        /* \"#utility.yul\":21268:21274   */\n      dup9\n        /* \"#utility.yul\":21264:21278   */\n      mul\n        /* \"#utility.yul\":21260:21282   */\n      add\n        /* \"#utility.yul\":21254:21258   */\n      dup9\n        /* \"#utility.yul\":21247:21283   */\n      sstore\n        /* \"#utility.yul\":20682:21293   */\n      pop\n      pop\n      pop\n        /* \"#utility.yul\":20645:21532   */\n    tag_411:\n      pop\n        /* \"#utility.yul\":20235:21538   */\n      pop\n      pop\n      pop\n        /* \"#utility.yul\":20143:21538   */\n      pop\n      pop\n      jump\t// out\n        /* \"#utility.yul\":21568:21885   */\n    tag_200:\n        /* \"#utility.yul\":21666:21669   */\n      0x00\n        /* \"#utility.yul\":21687:21758   */\n      tag_422\n        /* \"#utility.yul\":21751:21757   */\n      dup4\n        /* \"#utility.yul\":21746:21749   */\n      dup6\n        /* \"#utility.yul\":21687:21758   */\n      tag_151\n      jump\t// in\n    tag_422:\n        /* \"#utility.yul\":21680:21758   */\n      swap4\n      pop\n        /* \"#utility.yul\":21768:21824   */\n      tag_423\n        /* \"#utility.yul\":21817:21823   */\n      dup4\n        /* \"#utility.yul\":21812:21815   */\n      dup6\n        /* \"#utility.yul\":21805:21810   */\n      dup5\n        /* \"#utility.yul\":21768:21824   */\n      tag_167\n      jump\t// in\n    tag_423:\n        /* \"#utility.yul\":21849:21878   */\n      tag_424\n        /* \"#utility.yul\":21871:21877   */\n      dup4\n        /* \"#utility.yul\":21849:21878   */\n      tag_153\n      jump\t// in\n    tag_424:\n        /* \"#utility.yul\":21844:21847   */\n      dup5\n        /* \"#utility.yul\":21840:21879   */\n      add\n        /* \"#utility.yul\":21833:21879   */\n      swap1\n      pop\n        /* \"#utility.yul\":21568:21885   */\n      swap4\n      swap3\n      pop\n      pop\n      pop\n      jump\t// out\n        /* \"#utility.yul\":21891:22224   */\n    tag_97:\n        /* \"#utility.yul\":22014:22018   */\n      0x00\n        /* \"#utility.yul\":22052:22054   */\n      0x20\n        /* \"#utility.yul\":22041:22050   */\n      dup3\n        /* \"#utility.yul\":22037:22055   */\n      add\n        /* \"#utility.yul\":22029:22055   */\n      swap1\n      pop\n        /* \"#utility.yul\":22101:22110   */\n      dup2\n        /* \"#utility.yul\":22095:22099   */\n      dup2\n        /* \"#utility.yul\":22091:22111   */\n      sub\n        /* \"#utility.yul\":22087:22088   */\n      0x00\n        /* \"#utility.yul\":22076:22085   */\n      dup4\n        /* \"#utility.yul\":22072:22089   */\n      add\n        /* \"#utility.yul\":22065:22112   */\n      mstore\n        /* \"#utility.yul\":22129:22217   */\n      tag_426\n        /* \"#utility.yul\":22212:22216   */\n      dup2\n        /* \"#utility.yul\":22203:22209   */\n      dup5\n        /* \"#utility.yul\":22195:22201   */\n      dup7\n        /* \"#utility.yul\":22129:22217   */\n      tag_200\n      jump\t// in\n    tag_426:\n        /* \"#utility.yul\":22121:22217   */\n      swap1\n      pop\n        /* \"#utility.yul\":21891:22224   */\n      swap4\n      swap3\n      pop\n      pop\n      pop\n      jump\t// out\n        /* \"#utility.yul\":22230:22378   */\n    tag_201:\n        /* \"#utility.yul\":22332:22343   */\n      0x00\n        /* \"#utility.yul\":22369:22372   */\n      dup2\n        /* \"#utility.yul\":22354:22372   */\n      swap1\n      pop\n        /* \"#utility.yul\":22230:22378   */\n      swap3\n      swap2\n      pop\n      pop\n      jump\t// out\n        /* \"#utility.yul\":22408:22738   */\n    tag_202:\n        /* \"#utility.yul\":22524:22527   */\n      0x00\n        /* \"#utility.yul\":22545:22634   */\n      tag_429\n        /* \"#utility.yul\":22627:22633   */\n      dup4\n        /* \"#utility.yul\":22622:22625   */\n      dup6\n        /* \"#utility.yul\":22545:22634   */\n      tag_201\n      jump\t// in\n    tag_429:\n        /* \"#utility.yul\":22538:22634   */\n      swap4\n      pop\n        /* \"#utility.yul\":22644:22700   */\n      tag_430\n        /* \"#utility.yul\":22693:22699   */\n      dup4\n        /* \"#utility.yul\":22688:22691   */\n      dup6\n        /* \"#utility.yul\":22681:22686   */\n      dup5\n        /* \"#utility.yul\":22644:22700   */\n      tag_167\n      jump\t// in\n    tag_430:\n        /* \"#utility.yul\":22725:22731   */\n      dup3\n        /* \"#utility.yul\":22720:22723   */\n      dup5\n        /* \"#utility.yul\":22716:22732   */\n      add\n        /* \"#utility.yul\":22709:22732   */\n      swap1\n      pop\n        /* \"#utility.yul\":22408:22738   */\n      swap4\n      swap3\n      pop\n      pop\n      pop\n      jump\t// out\n        /* \"#utility.yul\":22744:23039   */\n    tag_129:\n        /* \"#utility.yul\":22886:22889   */\n      0x00\n        /* \"#utility.yul\":22908:23013   */\n      tag_432\n        /* \"#utility.yul\":23009:23012   */\n      dup3\n        /* \"#utility.yul\":23000:23006   */\n      dup5\n        /* \"#utility.yul\":22992:22998   */\n      dup7\n        /* \"#utility.yul\":22908:23013   */\n      tag_202\n      jump\t// in\n    tag_432:\n        /* \"#utility.yul\":22901:23013   */\n      swap2\n      pop\n        /* \"#utility.yul\":23030:23033   */\n      dup2\n        /* \"#utility.yul\":23023:23033   */\n      swap1\n      pop\n        /* \"#utility.yul\":22744:23039   */\n      swap4\n      swap3\n      pop\n      pop\n      pop\n      jump\t// out\n        /* \"#utility.yul\":23045:23221   */\n    tag_203:\n        /* \"#utility.yul\":23185:23213   */\n      0x4161646861617220616c72656164792072656769737465726564000000000000\n        /* \"#utility.yul\":23181:23182   */\n      0x00\n        /* \"#utility.yul\":23173:23179   */\n      dup3\n        /* \"#utility.yul\":23169:23183   */\n      add\n        /* \"#utility.yul\":23162:23214   */\n      mstore\n        /* \"#utility.yul\":23045:23221   */\n      pop\n      jump\t// out\n        /* \"#utility.yul\":23227:23593   */\n    tag_204:\n        /* \"#utility.yul\":23369:23372   */\n      0x00\n        /* \"#utility.yul\":23390:23457   */\n      tag_435\n        /* \"#utility.yul\":23454:23456   */\n      0x1a\n        /* \"#utility.yul\":23449:23452   */\n      dup4\n        /* \"#utility.yul\":23390:23457   */\n      tag_151\n      jump\t// in\n    tag_435:\n        /* \"#utility.yul\":23383:23457   */\n      swap2\n      pop\n        /* \"#utility.yul\":23466:23559   */\n      tag_436\n        /* \"#utility.yul\":23555:23558   */\n      dup3\n        /* \"#utility.yul\":23466:23559   */\n      tag_203\n      jump\t// in\n    tag_436:\n        /* \"#utility.yul\":23584:23586   */\n      0x20\n        /* \"#utility.yul\":23579:23582   */\n      dup3\n        /* \"#utility.yul\":23575:23587   */\n      add\n        /* \"#utility.yul\":23568:23587   */\n      swap1\n      pop\n        /* \"#utility.yul\":23227:23593   */\n      swap2\n      swap1\n      pop\n      jump\t// out\n        /* \"#utility.yul\":23599:24018   */\n    tag_132:\n        /* \"#utility.yul\":23765:23769   */\n      0x00\n        /* \"#utility.yul\":23803:23805   */\n      0x20\n        /* \"#utility.yul\":23792:23801   */\n      dup3\n        /* \"#utility.yul\":23788:23806   */\n      add\n        /* \"#utility.yul\":23780:23806   */\n      swap1\n      pop\n        /* \"#utility.yul\":23852:23861   */\n      dup2\n        /* \"#utility.yul\":23846:23850   */\n      dup2\n        /* \"#utility.yul\":23842:23862   */\n      sub\n        /* \"#utility.yul\":23838:23839   */\n      0x00\n        /* \"#utility.yul\":23827:23836   */\n      dup4\n        /* \"#utility.yul\":23823:23840   */\n      add\n        /* \"#utility.yul\":23816:23863   */\n      mstore\n        /* \"#utility.yul\":23880:24011   */\n      tag_438\n        /* \"#utility.yul\":24006:24010   */\n      dup2\n        /* \"#utility.yul\":23880:24011   */\n      tag_204\n      jump\t// in\n    tag_438:\n        /* \"#utility.yul\":23872:24011   */\n      swap1\n      pop\n        /* \"#utility.yul\":23599:24018   */\n      swap2\n      swap1\n      pop\n      jump\t// out\n        /* \"#utility.yul\":24024:24193   */\n    tag_205:\n        /* \"#utility.yul\":24164:24185   */\n      0x4d757374206265203138206f72206f6c64657200000000000000000000000000\n        /* \"#utility.yul\":24160:24161   */\n      0x00\n        /* \"#utility.yul\":24152:24158   */\n      dup3\n        /* \"#utility.yul\":24148:24162   */\n      add\n        /* \"#utility.yul\":24141:24186   */\n      mstore\n        /* \"#utility.yul\":24024:24193   */\n      pop\n      jump\t// out\n        /* \"#utility.yul\":24199:24565   */\n    tag_206:\n        /* \"#utility.yul\":24341:24344   */\n      0x00\n        /* \"#utility.yul\":24362:24429   */\n      tag_441\n        /* \"#utility.yul\":24426:24428   */\n      0x13\n        /* \"#utility.yul\":24421:24424   */\n      dup4\n        /* \"#utility.yul\":24362:24429   */\n      tag_151\n      jump\t// in\n    tag_441:\n        /* \"#utility.yul\":24355:24429   */\n      swap2\n      pop\n        /* \"#utility.yul\":24438:24531   */\n      tag_442\n        /* \"#utility.yul\":24527:24530   */\n      dup3\n        /* \"#utility.yul\":24438:24531   */\n      tag_205\n      jump\t// in\n    tag_442:\n        /* \"#utility.yul\":24556:24558   */\n      0x20\n        /* \"#utility.yul\":24551:24554   */\n      dup3\n        /* \"#utility.yul\":24547:24559   */\n      add\n        /* \"#utility.yul\":24540:24559   */\n      swap1\n      pop\n        /* \"#utility.yul\":24199:24565   */\n      swap2\n      swap1\n      pop\n      jump\t// out\n        /* \"#utility.yul\":24571:24990   */\n    tag_135:\n        /* \"#utility.yul\":24737:24741   */\n      0x00\n        /* \"#utility.yul\":24775:24777   */\n      0x20\n        /* \"#utility.yul\":24764:24773   */\n      dup3\n        /* \"#utility.yul\":24760:24778   */\n      add\n        /* \"#utility.yul\":24752:24778   */\n      swap1\n      pop\n        /* \"#utility.yul\":24824:24833   */\n      dup2\n        /* \"#utility.yul\":24818:24822   */\n      dup2\n        /* \"#utility.yul\":24814:24834   */\n      sub\n        /* \"#utility.yul\":24810:24811   */\n      0x00\n        /* \"#utility.yul\":24799:24808   */\n      dup4\n        /* \"#utility.yul\":24795:24812   */\n      add\n        /* \"#utility.yul\":24788:24835   */\n      mstore\n        /* \"#utility.yul\":24852:24983   */\n      tag_444\n        /* \"#utility.yul\":24978:24982   */\n      dup2\n        /* \"#utility.yul\":24852:24983   */\n      tag_206\n      jump\t// in\n    tag_444:\n        /* \"#utility.yul\":24844:24983   */\n      swap1\n      pop\n        /* \"#utility.yul\":24571:24990   */\n      swap2\n      swap1\n      pop\n      jump\t// out\n\n    auxdata: 0xa26469706673582212204414c64ff5f9d8f6c2599df4820112761d23361392a423390be941540fcdb8d364736f6c634300081e0033\n}\n",
				"bytecode": {
					"linkReferences": {},
					"object": "6080604052348015600e575f5ffd5b50335f5f6101000a81548173ffffffffffffffffffffffffffffffffffffffff021916908373ffffffffffffffffffffffffffffffffffffffff160217905550611b628061005b5f395ff3fe608060405234801561000f575f5ffd5b50600436106100b2575f3560e01c8063a3ec138d1161006f578063a3ec138d146101a2578063a9a981a3146101d6578063c3c5a547146101f4578063d771fe7e14610224578063e661ea5f14610254578063f851a44014610270576100b2565b80630121b93f146100b657806326541b56146100d25780633477ee2e146100ee57806335b8e8201461012157806342169e48146101545780637fabe80a14610172575b5f5ffd5b6100d060048036038101906100cb9190610efb565b61028e565b005b6100ec60048036038101906100e79190610f87565b610562565b005b61010860048036038101906101039190610efb565b6107a1565b604051610118949392919061109e565b60405180910390f35b61013b60048036038101906101369190610efb565b6108e5565b60405161014b949392919061109e565b60405180910390f35b61015c610a6f565b60405161016991906110ef565b60405180910390f35b61018c60048036038101906101879190611162565b610a75565b604051610199919061118d565b60405180910390f35b6101bc60048036038101906101b79190611162565b610aca565b6040516101cd9594939291906111a6565b60405180910390f35b6101de610b9a565b6040516101eb91906110ef565b60405180910390f35b61020e60048036038101906102099190611162565b610ba0565b60405161021b919061118d565b60405180910390f35b61023e60048036038101906102399190611326565b610bf4565b60405161024b919061118d565b60405180910390f35b61026e6004803603810190610269919061136d565b610c29565b005b610278610e93565b60405161028591906113d9565b60405180910390f35b60015f3373ffffffffffffffffffffffffffffffffffffffff1673ffffffffffffffffffffffffffffffffffffffff1681526020019081526020015f205f015f9054906101000a900460ff16610319576040517f08c379a00000000000000000000000000000000000000000000000000000000081526004016103109061143c565b60405180910390fd5b60015f3373ffffffffffffffffffffffffffffffffffffffff1673ffffffffffffffffffffffffffffffffffffffff1681526020019081526020015f205f0160019054906101000a900460ff16156103a6576040517f08c379a000000000000000000000000000000000000000000000000000000000815260040161039d906114a4565b60405180910390fd5b5f811180156103b757506004548111155b6103f6576040517f08c379a00000000000000000000000000000000000000000000000000000000081526004016103ed9061150c565b60405180910390fd5b60035f8281526020019081526020015f206003015f9054906101000a900460ff16610456576040517f08c379a000000000000000000000000000000000000000000000000000000000815260040161044d90611574565b60405180910390fd5b6001805f3373ffffffffffffffffffffffffffffffffffffffff1673ffffffffffffffffffffffffffffffffffffffff1681526020019081526020015f205f0160016101000a81548160ff0219169083151502179055508060015f3373ffffffffffffffffffffffffffffffffffffffff1673ffffffffffffffffffffffffffffffffffffffff1681526020019081526020015f206003018190555060035f8281526020019081526020015f206002015f815480929190610516906115bf565b9190505550803373ffffffffffffffffffffffffffffffffffffffff167fa36cc2bebb74db33e9f88110a07ef56e1b31b24b4c4f51b54b1664266e29f45b60405160405180910390a350565b5f5f9054906101000a900473ffffffffffffffffffffffffffffffffffffffff1673ffffffffffffffffffffffffffffffffffffffff163373ffffffffffffffffffffffffffffffffffffffff16146105f0576040517f08c379a00000000000000000000000000000000000000000000000000000000081526004016105e790611676565b60405180910390fd5b5f8484905011610635576040517f08c379a000000000000000000000000000000000000000000000000000000000815260040161062c906116de565b60405180910390fd5b60045f815480929190610647906115bf565b9190505550604051806080016040528085858080601f0160208091040260200160405190810160405280939291908181526020018383808284375f81840152601f19601f82011690508083019250505050505050815260200183838080601f0160208091040260200160405190810160405280939291908181526020018383808284375f81840152601f19601f8201169050808301925050505050505081526020015f81526020016001151581525060035f60045481526020019081526020015f205f820151815f01908161071c91906118f9565b50602082015181600101908161073291906118f9565b50604082015181600201556060820151816003015f6101000a81548160ff0219169083151502179055509050506004547fe83b2a43e7e82d975c8a0a6d2f045153c869e111136a34d1889ab7b598e396a385856040516107939291906119f4565b60405180910390a250505050565b6003602052805f5260405f205f91509050805f0180546107c090611729565b80601f01602080910402602001604051908101604052809291908181526020018280546107ec90611729565b80156108375780601f1061080e57610100808354040283529160200191610837565b820191905f5260205f20905b81548152906001019060200180831161081a57829003601f168201915b50505050509080600101805461084c90611729565b80601f016020809104026020016040519081016040528092919081815260200182805461087890611729565b80156108c35780601f1061089a576101008083540402835291602001916108c3565b820191905f5260205f20905b8154815290600101906020018083116108a657829003601f168201915b505050505090806002015490806003015f9054906101000a900460ff16905084565b6060805f5f5f60035f8781526020019081526020015f206040518060800160405290815f8201805461091690611729565b80601f016020809104026020016040519081016040528092919081815260200182805461094290611729565b801561098d5780601f106109645761010080835404028352916020019161098d565b820191905f5260205f20905b81548152906001019060200180831161097057829003601f168201915b505050505081526020016001820180546109a690611729565b80601f01602080910402602001604051908101604052809291908181526020018280546109d290611729565b8015610a1d5780601f106109f457610100808354040283529160200191610a1d565b820191905f5260205f20905b815481529060010190602001808311610a0057829003601f168201915b5050505050815260200160028201548152602001600382015f9054906101000a900460ff1615151515815250509050805f01518160200151826040015183606001519450945094509450509193509193565b60055481565b5f60015f8373ffffffffffffffffffffffffffffffffffffffff1673ffffffffffffffffffffffffffffffffffffffff1681526020019081526020015f205f0160019054906101000a900460ff169050919050565b6001602052805f5260405f205f91509050805f015f9054906101000a900460ff1690805f0160019054906101000a900460ff1690806001018054610b0d90611729565b80601f0160208091040260200160405190810160405280929190818152602001828054610b3990611729565b8015610b845780601f10610b5b57610100808354040283529160200191610b84565b820191905f5260205f20905b815481529060010190602001808311610b6757829003601f168201915b5050505050908060020154908060030154905085565b60045481565b5f60015f8373ffffffffffffffffffffffffffffffffffffffff1673ffffffffffffffffffffffffffffffffffffffff1681526020019081526020015f205f015f9054906101000a900460ff169050919050565b6002818051602081018201805184825260208301602085012081835280955050505050505f915054906101000a900460ff1681565b60028383604051610c3b929190611a44565b90815260200160405180910390205f9054906101000a900460ff1615610c96576040517f08c379a0000000000000000000000000000000000000000000000000000000008152600401610c8d90611aa6565b60405180910390fd5b6012811015610cda576040517f08c379a0000000000000000000000000000000000000000000000000000000008152600401610cd190611b0e565b60405180910390fd5b6040518060a001604052806001151581526020015f1515815260200184848080601f0160208091040260200160405190810160405280939291908181526020018383808284375f81840152601f19601f8201169050808301925050505050505081526020018281526020015f81525060015f3373ffffffffffffffffffffffffffffffffffffffff1673ffffffffffffffffffffffffffffffffffffffff1681526020019081526020015f205f820151815f015f6101000a81548160ff0219169083151502179055506020820151815f0160016101000a81548160ff0219169083151502179055506040820151816001019081610dd791906118f9565b506060820151816002015560808201518160030155905050600160028484604051610e03929190611a44565b90815260200160405180910390205f6101000a81548160ff02191690831515021790555060055f815480929190610e39906115bf565b91905055503373ffffffffffffffffffffffffffffffffffffffff167fffeb7702be7dcd8fee170d954b70afb9a7c78f7f5cff232d037e7b9d8243356a8484604051610e869291906119f4565b60405180910390a2505050565b5f5f9054906101000a900473ffffffffffffffffffffffffffffffffffffffff1681565b5f604051905090565b5f5ffd5b5f5ffd5b5f819050919050565b610eda81610ec8565b8114610ee4575f5ffd5b50565b5f81359050610ef581610ed1565b92915050565b5f60208284031215610f1057610f0f610ec0565b5b5f610f1d84828501610ee7565b91505092915050565b5f5ffd5b5f5ffd5b5f5ffd5b5f5f83601f840112610f4757610f46610f26565b5b8235905067ffffffffffffffff811115610f6457610f63610f2a565b5b602083019150836001820283011115610f8057610f7f610f2e565b5b9250929050565b5f5f5f5f60408587031215610f9f57610f9e610ec0565b5b5f85013567ffffffffffffffff811115610fbc57610fbb610ec4565b5b610fc887828801610f32565b9450945050602085013567ffffffffffffffff811115610feb57610fea610ec4565b5b610ff787828801610f32565b925092505092959194509250565b5f81519050919050565b5f82825260208201905092915050565b8281835e5f83830152505050565b5f601f19601f8301169050919050565b5f61104782611005565b611051818561100f565b935061106181856020860161101f565b61106a8161102d565b840191505092915050565b61107e81610ec8565b82525050565b5f8115159050919050565b61109881611084565b82525050565b5f6080820190508181035f8301526110b6818761103d565b905081810360208301526110ca818661103d565b90506110d96040830185611075565b6110e6606083018461108f565b95945050505050565b5f6020820190506111025f830184611075565b92915050565b5f73ffffffffffffffffffffffffffffffffffffffff82169050919050565b5f61113182611108565b9050919050565b61114181611127565b811461114b575f5ffd5b50565b5f8135905061115c81611138565b92915050565b5f6020828403121561117757611176610ec0565b5b5f6111848482850161114e565b91505092915050565b5f6020820190506111a05f83018461108f565b92915050565b5f60a0820190506111b95f83018861108f565b6111c6602083018761108f565b81810360408301526111d8818661103d565b90506111e76060830185611075565b6111f46080830184611075565b9695505050505050565b5f5ffd5b7f4e487b71000000000000000000000000000000000000000000000000000000005f52604160045260245ffd5b6112388261102d565b810181811067ffffffffffffffff8211171561125757611256611202565b5b80604052505050565b5f611269610eb7565b9050611275828261122f565b919050565b5f67ffffffffffffffff82111561129457611293611202565b5b61129d8261102d565b9050602081019050919050565b828183375f83830152505050565b5f6112ca6112c58461127a565b611260565b9050828152602081018484840111156112e6576112e56111fe565b5b6112f18482856112aa565b509392505050565b5f82601f83011261130d5761130c610f26565b5b813561131d8482602086016112b8565b91505092915050565b5f6020828403121561133b5761133a610ec0565b5b5f82013567ffffffffffffffff81111561135857611357610ec4565b5b611364848285016112f9565b91505092915050565b5f5f5f6040848603121561138457611383610ec0565b5b5f84013567ffffffffffffffff8111156113a1576113a0610ec4565b5b6113ad86828701610f32565b935093505060206113c086828701610ee7565b9150509250925092565b6113d381611127565b82525050565b5f6020820190506113ec5f8301846113ca565b92915050565b7f566f746572206e6f7420726567697374657265640000000000000000000000005f82015250565b5f61142660148361100f565b9150611431826113f2565b602082019050919050565b5f6020820190508181035f8301526114538161141a565b9050919050565b7f416c726561647920766f746564000000000000000000000000000000000000005f82015250565b5f61148e600d8361100f565b91506114998261145a565b602082019050919050565b5f6020820190508181035f8301526114bb81611482565b9050919050565b7f496e76616c69642063616e6469646174650000000000000000000000000000005f82015250565b5f6114f660118361100f565b9150611501826114c2565b602082019050919050565b5f6020820190508181035f830152611523816114ea565b9050919050565b7f43616e646964617465206e6f74206163746976650000000000000000000000005f82015250565b5f61155e60148361100f565b91506115698261152a565b602082019050919050565b5f6020820190508181035f83015261158b81611552565b9050919050565b7f4e487b71000000000000000000000000000000000000000000000000000000005f52601160045260245ffd5b5f6115c982610ec8565b91507fffffffffffffffffffffffffffffffffffffffffffffffffffffffffffffffff82036115fb576115fa611592565b5b600182019050919050565b7f4f6e6c792061646d696e2063616e20706572666f726d207468697320616374695f8201527f6f6e000000000000000000000000000000000000000000000000000000000000602082015250565b5f61166060228361100f565b915061166b82611606565b604082019050919050565b5f6020820190508181035f83015261168d81611654565b9050919050565b7f4e616d652063616e6e6f7420626520656d7074790000000000000000000000005f82015250565b5f6116c860148361100f565b91506116d382611694565b602082019050919050565b5f6020820190508181035f8301526116f5816116bc565b9050919050565b7f4e487b71000000000000000000000000000000000000000000000000000000005f52602260045260245ffd5b5f600282049050600182168061174057607f821691505b602082108103611753576117526116fc565b5b50919050565b5f819050815f5260205f209050919050565b5f6020601f8301049050919050565b5f82821b905092915050565b5f600883026117b57fffffffffffffffffffffffffffffffffffffffffffffffffffffffffffffffff8261177a565b6117bf868361177a565b95508019841693508086168417925050509392505050565b5f819050919050565b5f6117fa6117f56117f084610ec8565b6117d7565b610ec8565b9050919050565b5f819050919050565b611813836117e0565b61182761181f82611801565b848454611786565b825550505050565b5f5f905090565b61183e61182f565b61184981848461180a565b505050565b5b8181101561186c576118615f82611836565b60018101905061184f565b5050565b601f8211156118b15761188281611759565b61188b8461176b565b8101602085101561189a578190505b6118ae6118a68561176b565b83018261184e565b50505b505050565b5f82821c905092915050565b5f6118d15f19846008026118b6565b1980831691505092915050565b5f6118e983836118c2565b9150826002028217905092915050565b61190282611005565b67ffffffffffffffff81111561191b5761191a611202565b5b6119258254611729565b611930828285611870565b5f60209050601f831160018114611961575f841561194f578287015190505b61195985826118de565b8655506119c0565b601f19841661196f86611759565b5f5b8281101561199657848901518255600182019150602085019450602081019050611971565b868310156119b357848901516119af601f8916826118c2565b8355505b6001600288020188555050505b505050505050565b5f6119d3838561100f565b93506119e08385846112aa565b6119e98361102d565b840190509392505050565b5f6020820190508181035f830152611a0d8184866119c8565b90509392505050565b5f81905092915050565b5f611a2b8385611a16565b9350611a388385846112aa565b82840190509392505050565b5f611a50828486611a20565b91508190509392505050565b7f4161646861617220616c726561647920726567697374657265640000000000005f82015250565b5f611a90601a8361100f565b9150611a9b82611a5c565b602082019050919050565b5f6020820190508181035f830152611abd81611a84565b9050919050565b7f4d757374206265203138206f72206f6c646572000000000000000000000000005f82015250565b5f611af860138361100f565b9150611b0382611ac4565b602082019050919050565b5f6020820190508181035f830152611b2581611aec565b905091905056fea26469706673582212204414c64ff5f9d8f6c2599df4820112761d23361392a423390be941540fcdb8d364736f6c634300081e0033",
					"opcodes": "PUSH1 0x80 PUSH1 0x40 MSTORE CALLVALUE DUP1 ISZERO PUSH1 0xE JUMPI PUSH0 PUSH0 REVERT JUMPDEST POP CALLER PUSH0 PUSH0 PUSH2 0x100 EXP DUP2 SLOAD DUP2 PUSH20 0xFFFFFFFFFFFFFFFFFFFFFFFFFFFFFFFFFFFFFFFF MUL NOT AND SWAP1 DUP4 PUSH20 0xFFFFFFFFFFFFFFFFFFFFFFFFFFFFFFFFFFFFFFFF AND MUL OR SWAP1 SSTORE POP PUSH2 0x1B62 DUP1 PUSH2 0x5B PUSH0 CODECOPY PUSH0 RETURN INVALID PUSH1 0x80 PUSH1 0x40 MSTORE CALLVALUE DUP1 ISZERO PUSH2 0xF JUMPI PUSH0 PUSH0 REVERT JUMPDEST POP PUSH1 0x4 CALLDATASIZE LT PUSH2 0xB2 JUMPI PUSH0 CALLDATALOAD PUSH1 0xE0 SHR DUP1 PUSH4 0xA3EC138D GT PUSH2 0x6F JUMPI DUP1 PUSH4 0xA3EC138D EQ PUSH2 0x1A2 JUMPI DUP1 PUSH4 0xA9A981A3 EQ PUSH2 0x1D6 JUMPI DUP1 PUSH4 0xC3C5A547 EQ PUSH2 0x1F4 JUMPI DUP1 PUSH4 0xD771FE7E EQ PUSH2 0x224 JUMPI DUP1 PUSH4 0xE661EA5F EQ PUSH2 0x254 JUMPI DUP1 PUSH4 0xF851A440 EQ PUSH2 0x270 JUMPI PUSH2 0xB2 JUMP JUMPDEST DUP1 PUSH4 0x121B93F EQ PUSH2 0xB6 JUMPI DUP1 PUSH4 0x26541B56 EQ PUSH2 0xD2 JUMPI DUP1 PUSH4 0x3477EE2E EQ PUSH2 0xEE JUMPI DUP1 PUSH4 0x35B8E820 EQ PUSH2 0x121 JUMPI DUP1 PUSH4 0x42169E48 EQ PUSH2 0x154 JUMPI DUP1 PUSH4 0x7FABE80A EQ PUSH2 0x172 JUMPI JUMPDEST PUSH0 PUSH0 REVERT JUMPDEST PUSH2 0xD0 PUSH1 0x4 DUP1 CALLDATASIZE SUB DUP2 ADD SWAP1 PUSH2 0xCB SWAP2 SWAP1 PUSH2 0xEFB JUMP JUMPDEST PUSH2 0x28E JUMP JUMPDEST STOP JUMPDEST PUSH2 0xEC PUSH1 0x4 DUP1 CALLDATASIZE SUB DUP2 ADD SWAP1 PUSH2 0xE7 SWAP2 SWAP1 PUSH2 0xF87 JUMP JUMPDEST PUSH2 0x562 JUMP JUMPDEST STOP JUMPDEST PUSH2 0x108 PUSH1 0x4 DUP1 CALLDATASIZE SUB DUP2 ADD SWAP1 PUSH2 0x103 SWAP2 SWAP1 PUSH2 0xEFB JUMP JUMPDEST PUSH2 0x7A1 JUMP JUMPDEST PUSH1 0x40 MLOAD PUSH2 0x118 SWAP5 SWAP4 SWAP3 SWAP2 SWAP1 PUSH2 0x109E JUMP JUMPDEST PUSH1 0x40 MLOAD DUP1 SWAP2 SUB SWAP1 RETURN JUMPDEST PUSH2 0x13B PUSH1 0x4 DUP1 CALLDATASIZE SUB DUP2 ADD SWAP1 PUSH2 0x136 SWAP2 SWAP1 PUSH2 0xEFB JUMP JUMPDEST PUSH2 0x8E5 JUMP JUMPDEST PUSH1 0x40 MLOAD PUSH2 0x14B SWAP5 SWAP4 SWAP3 SWAP2 SWAP1 PUSH2 0x109E JUMP JUMPDEST PUSH1 0x40 MLOAD DUP1 SWAP2 SUB SWAP1 RETURN JUMPDEST PUSH2 0x15C PUSH2 0xA6F JUMP JUMPDEST PUSH1 0x40 MLOAD PUSH2 0x169 SWAP2 SWAP1 PUSH2 0x10EF JUMP JUMPDEST PUSH1 0x40 MLOAD DUP1 SWAP2 SUB SWAP1 RETURN JUMPDEST PUSH2 0x18C PUSH1 0x4 DUP1 CALLDATASIZE SUB DUP2 ADD SWAP1 PUSH2 0x187 SWAP2 SWAP1 PUSH2 0x1162 JUMP JUMPDEST PUSH2 0xA75 JUMP JUMPDEST PUSH1 0x40 MLOAD PUSH2 0x199 SWAP2 SWAP1 PUSH2 0x118D JUMP JUMPDEST PUSH1 0x40 MLOAD DUP1 SWAP2 SUB SWAP1 RETURN JUMPDEST PUSH2 0x1BC PUSH1 0x4 DUP1 CALLDATASIZE SUB DUP2 ADD SWAP1 PUSH2 0x1B7 SWAP2 SWAP1 PUSH2 0x1162 JUMP JUMPDEST PUSH2 0xACA JUMP JUMPDEST PUSH1 0x40 MLOAD PUSH2 0x1CD SWAP6 SWAP5 SWAP4 SWAP3 SWAP2 SWAP1 PUSH2 0x11A6 JUMP JUMPDEST PUSH1 0x40 MLOAD DUP1 SWAP2 SUB SWAP1 RETURN JUMPDEST PUSH2 0x1DE PUSH2 0xB9A JUMP JUMPDEST PUSH1 0x40 MLOAD PUSH2 0x1EB SWAP2 SWAP1 PUSH2 0x10EF JUMP JUMPDEST PUSH1 0x40 MLOAD DUP1 SWAP2 SUB SWAP1 RETURN JUMPDEST PUSH2 0x20E PUSH1 0x4 DUP1 CALLDATASIZE SUB DUP2 ADD SWAP1 PUSH2 0x209 SWAP2 SWAP1 PUSH2 0x1162 JUMP JUMPDEST PUSH2 0xBA0 JUMP JUMPDEST PUSH1 0x40 MLOAD PUSH2 0x21B SWAP2 SWAP1 PUSH2 0x118D JUMP JUMPDEST PUSH1 0x40 MLOAD DUP1 SWAP2 SUB SWAP1 RETURN JUMPDEST PUSH2 0x23E PUSH1 0x4 DUP1 CALLDATASIZE SUB DUP2 ADD SWAP1 PUSH2 0x239 SWAP2 SWAP1 PUSH2 0x1326 JUMP JUMPDEST PUSH2 0xBF4 JUMP JUMPDEST PUSH1 0x40 MLOAD PUSH2 0x24B SWAP2 SWAP1 PUSH2 0x118D JUMP JUMPDEST PUSH1 0x40 MLOAD DUP1 SWAP2 SUB SWAP1 RETURN JUMPDEST PUSH2 0x26E PUSH1 0x4 DUP1 CALLDATASIZE SUB DUP2 ADD SWAP1 PUSH2 0x269 SWAP2 SWAP1 PUSH2 0x136D JUMP JUMPDEST PUSH2 0xC29 JUMP JUMPDEST STOP JUMPDEST PUSH2 0x278 PUSH2 0xE93 JUMP JUMPDEST PUSH1 0x40 MLOAD PUSH2 0x285 SWAP2 SWAP1 PUSH2 0x13D9 JUMP JUMPDEST PUSH1 0x40 MLOAD DUP1 SWAP2 SUB SWAP1 RETURN JUMPDEST PUSH1 0x1 PUSH0 CALLER PUSH20 0xFFFFFFFFFFFFFFFFFFFFFFFFFFFFFFFFFFFFFFFF AND PUSH20 0xFFFFFFFFFFFFFFFFFFFFFFFFFFFFFFFFFFFFFFFF AND DUP2 MSTORE PUSH1 0x20 ADD SWAP1 DUP2 MSTORE PUSH1 0x20 ADD PUSH0 KECCAK256 PUSH0 ADD PUSH0 SWAP1 SLOAD SWAP1 PUSH2 0x100 EXP SWAP1 DIV PUSH1 0xFF AND PUSH2 0x319 JUMPI PUSH1 0x40 MLOAD PUSH32 0x8C379A000000000000000000000000000000000000000000000000000000000 DUP2 MSTORE PUSH1 0x4 ADD PUSH2 0x310 SWAP1 PUSH2 0x143C JUMP JUMPDEST PUSH1 0x40 MLOAD DUP1 SWAP2 SUB SWAP1 REVERT JUMPDEST PUSH1 0x1 PUSH0 CALLER PUSH20 0xFFFFFFFFFFFFFFFFFFFFFFFFFFFFFFFFFFFFFFFF AND PUSH20 0xFFFFFFFFFFFFFFFFFFFFFFFFFFFFFFFFFFFFFFFF AND DUP2 MSTORE PUSH1 0x20 ADD SWAP1 DUP2 MSTORE PUSH1 0x20 ADD PUSH0 KECCAK256 PUSH0 ADD PUSH1 0x1 SWAP1 SLOAD SWAP1 PUSH2 0x100 EXP SWAP1 DIV PUSH1 0xFF AND ISZERO PUSH2 0x3A6 JUMPI PUSH1 0x40 MLOAD PUSH32 0x8C379A000000000000000000000000000000000000000000000000000000000 DUP2 MSTORE PUSH1 0x4 ADD PUSH2 0x39D SWAP1 PUSH2 0x14A4 JUMP JUMPDEST PUSH1 0x40 MLOAD DUP1 SWAP2 SUB SWAP1 REVERT JUMPDEST PUSH0 DUP2 GT DUP1 ISZERO PUSH2 0x3B7 JUMPI POP PUSH1 0x4 SLOAD DUP2 GT ISZERO JUMPDEST PUSH2 0x3F6 JUMPI PUSH1 0x40 MLOAD PUSH32 0x8C379A000000000000000000000000000000000000000000000000000000000 DUP2 MSTORE PUSH1 0x4 ADD PUSH2 0x3ED SWAP1 PUSH2 0x150C JUMP JUMPDEST PUSH1 0x40 MLOAD DUP1 SWAP2 SUB SWAP1 REVERT JUMPDEST PUSH1 0x3 PUSH0 DUP3 DUP2 MSTORE PUSH1 0x20 ADD SWAP1 DUP2 MSTORE PUSH1 0x20 ADD PUSH0 KECCAK256 PUSH1 0x3 ADD PUSH0 SWAP1 SLOAD SWAP1 PUSH2 0x100 EXP SWAP1 DIV PUSH1 0xFF AND PUSH2 0x456 JUMPI PUSH1 0x40 MLOAD PUSH32 0x8C379A000000000000000000000000000000000000000000000000000000000 DUP2 MSTORE PUSH1 0x4 ADD PUSH2 0x44D SWAP1 PUSH2 0x1574 JUMP JUMPDEST PUSH1 0x40 MLOAD DUP1 SWAP2 SUB SWAP1 REVERT JUMPDEST PUSH1 0x1 DUP1 PUSH0 CALLER PUSH20 0xFFFFFFFFFFFFFFFFFFFFFFFFFFFFFFFFFFFFFFFF AND PUSH20 0xFFFFFFFFFFFFFFFFFFFFFFFFFFFFFFFFFFFFFFFF AND DUP2 MSTORE PUSH1 0x20 ADD SWAP1 DUP2 MSTORE PUSH1 0x20 ADD PUSH0 KECCAK256 PUSH0 ADD PUSH1 0x1 PUSH2 0x100 EXP DUP2 SLOAD DUP2 PUSH1 0xFF MUL NOT AND SWAP1 DUP4 ISZERO ISZERO MUL OR SWAP1 SSTORE POP DUP1 PUSH1 0x1 PUSH0 CALLER PUSH20 0xFFFFFFFFFFFFFFFFFFFFFFFFFFFFFFFFFFFFFFFF AND PUSH20 0xFFFFFFFFFFFFFFFFFFFFFFFFFFFFFFFFFFFFFFFF AND DUP2 MSTORE PUSH1 0x20 ADD SWAP1 DUP2 MSTORE PUSH1 0x20 ADD PUSH0 KECCAK256 PUSH1 0x3 ADD DUP2 SWAP1 SSTORE POP PUSH1 0x3 PUSH0 DUP3 DUP2 MSTORE PUSH1 0x20 ADD SWAP1 DUP2 MSTORE PUSH1 0x20 ADD PUSH0 KECCAK256 PUSH1 0x2 ADD PUSH0 DUP2 SLOAD DUP1 SWAP3 SWAP2 SWAP1 PUSH2 0x516 SWAP1 PUSH2 0x15BF JUMP JUMPDEST SWAP2 SWAP1 POP SSTORE POP DUP1 CALLER PUSH20 0xFFFFFFFFFFFFFFFFFFFFFFFFFFFFFFFFFFFFFFFF AND PUSH32 0xA36CC2BEBB74DB33E9F88110A07EF56E1B31B24B4C4F51B54B1664266E29F45B PUSH1 0x40 MLOAD PUSH1 0x40 MLOAD DUP1 SWAP2 SUB SWAP1 LOG3 POP JUMP JUMPDEST PUSH0 PUSH0 SWAP1 SLOAD SWAP1 PUSH2 0x100 EXP SWAP1 DIV PUSH20 0xFFFFFFFFFFFFFFFFFFFFFFFFFFFFFFFFFFFFFFFF AND PUSH20 0xFFFFFFFFFFFFFFFFFFFFFFFFFFFFFFFFFFFFFFFF AND CALLER PUSH20 0xFFFFFFFFFFFFFFFFFFFFFFFFFFFFFFFFFFFFFFFF AND EQ PUSH2 0x5F0 JUMPI PUSH1 0x40 MLOAD PUSH32 0x8C379A000000000000000000000000000000000000000000000000000000000 DUP2 MSTORE PUSH1 0x4 ADD PUSH2 0x5E7 SWAP1 PUSH2 0x1676 JUMP JUMPDEST PUSH1 0x40 MLOAD DUP1 SWAP2 SUB SWAP1 REVERT JUMPDEST PUSH0 DUP5 DUP5 SWAP1 POP GT PUSH2 0x635 JUMPI PUSH1 0x40 MLOAD PUSH32 0x8C379A000000000000000000000000000000000000000000000000000000000 DUP2 MSTORE PUSH1 0x4 ADD PUSH2 0x62C SWAP1 PUSH2 0x16DE JUMP JUMPDEST PUSH1 0x40 MLOAD DUP1 SWAP2 SUB SWAP1 REVERT JUMPDEST PUSH1 0x4 PUSH0 DUP2 SLOAD DUP1 SWAP3 SWAP2 SWAP1 PUSH2 0x647 SWAP1 PUSH2 0x15BF JUMP JUMPDEST SWAP2 SWAP1 POP SSTORE POP PUSH1 0x40 MLOAD DUP1 PUSH1 0x80 ADD PUSH1 0x40 MSTORE DUP1 DUP6 DUP6 DUP1 DUP1 PUSH1 0x1F ADD PUSH1 0x20 DUP1 SWAP2 DIV MUL PUSH1 0x20 ADD PUSH1 0x40 MLOAD SWAP1 DUP2 ADD PUSH1 0x40 MSTORE DUP1 SWAP4 SWAP3 SWAP2 SWAP1 DUP2 DUP2 MSTORE PUSH1 0x20 ADD DUP4 DUP4 DUP1 DUP3 DUP5 CALLDATACOPY PUSH0 DUP2 DUP5 ADD MSTORE PUSH1 0x1F NOT PUSH1 0x1F DUP3 ADD AND SWAP1 POP DUP1 DUP4 ADD SWAP3 POP POP POP POP POP POP POP DUP2 MSTORE PUSH1 0x20 ADD DUP4 DUP4 DUP1 DUP1 PUSH1 0x1F ADD PUSH1 0x20 DUP1 SWAP2 DIV MUL PUSH1 0x20 ADD PUSH1 0x40 MLOAD SWAP1 DUP2 ADD PUSH1 0x40 MSTORE DUP1 SWAP4 SWAP3 SWAP2 SWAP1 DUP2 DUP2 MSTORE PUSH1 0x20 ADD DUP4 DUP4 DUP1 DUP3 DUP5 CALLDATACOPY PUSH0 DUP2 DUP5 ADD MSTORE PUSH1 0x1F NOT PUSH1 0x1F DUP3 ADD AND SWAP1 POP DUP1 DUP4 ADD SWAP3 POP POP POP POP POP POP POP DUP2 MSTORE PUSH1 0x20 ADD PUSH0 DUP2 MSTORE PUSH1 0x20 ADD PUSH1 0x1 ISZERO ISZERO DUP2 MSTORE POP PUSH1 0x3 PUSH0 PUSH1 0x4 SLOAD DUP2 MSTORE PUSH1 0x20 ADD SWAP1 DUP2 MSTORE PUSH1 0x20 ADD PUSH0 KECCAK256 PUSH0 DUP3 ADD MLOAD DUP2 PUSH0 ADD SWAP1 DUP2 PUSH2 0x71C SWAP2 SWAP1 PUSH2 0x18F9 JUMP JUMPDEST POP PUSH1 0x20 DUP3 ADD MLOAD DUP2 PUSH1 0x1 ADD SWAP1 DUP2 PUSH2 0x732 SWAP2 SWAP1 PUSH2 0x18F9 JUMP JUMPDEST POP PUSH1 0x40 DUP3 ADD MLOAD DUP2 PUSH1 0x2 ADD SSTORE PUSH1 0x60 DUP3 ADD MLOAD DUP2 PUSH1 0x3 ADD PUSH0 PUSH2 0x100 EXP DUP2 SLOAD DUP2 PUSH1 0xFF MUL NOT AND SWAP1 DUP4 ISZERO ISZERO MUL OR SWAP1 SSTORE POP SWAP1 POP POP PUSH1 0x4 SLOAD PUSH32 0xE83B2A43E7E82D975C8A0A6D2F045153C869E111136A34D1889AB7B598E396A3 DUP6 DUP6 PUSH1 0x40 MLOAD PUSH2 0x793 SWAP3 SWAP2 SWAP1 PUSH2 0x19F4 JUMP JUMPDEST PUSH1 0x40 MLOAD DUP1 SWAP2 SUB SWAP1 LOG2 POP POP POP POP JUMP JUMPDEST PUSH1 0x3 PUSH1 0x20 MSTORE DUP1 PUSH0 MSTORE PUSH1 0x40 PUSH0 KECCAK256 PUSH0 SWAP2 POP SWAP1 POP DUP1 PUSH0 ADD DUP1 SLOAD PUSH2 0x7C0 SWAP1 PUSH2 0x1729 JUMP JUMPDEST DUP1 PUSH1 0x1F ADD PUSH1 0x20 DUP1 SWAP2 DIV MUL PUSH1 0x20 ADD PUSH1 0x40 MLOAD SWAP1 DUP2 ADD PUSH1 0x40 MSTORE DUP1 SWAP3 SWAP2 SWAP1 DUP2 DUP2 MSTORE PUSH1 0x20 ADD DUP3 DUP1 SLOAD PUSH2 0x7EC SWAP1 PUSH2 0x1729 JUMP JUMPDEST DUP1 ISZERO PUSH2 0x837 JUMPI DUP1 PUSH1 0x1F LT PUSH2 0x80E JUMPI PUSH2 0x100 DUP1 DUP4 SLOAD DIV MUL DUP4 MSTORE SWAP2 PUSH1 0x20 ADD SWAP2 PUSH2 0x837 JUMP JUMPDEST DUP3 ADD SWAP2 SWAP1 PUSH0 MSTORE PUSH1 0x20 PUSH0 KECCAK256 SWAP1 JUMPDEST DUP2 SLOAD DUP2 MSTORE SWAP1 PUSH1 0x1 ADD SWAP1 PUSH1 0x20 ADD DUP1 DUP4 GT PUSH2 0x81A JUMPI DUP3 SWAP1 SUB PUSH1 0x1F AND DUP3 ADD SWAP2 JUMPDEST POP POP POP POP POP SWAP1 DUP1 PUSH1 0x1 ADD DUP1 SLOAD PUSH2 0x84C SWAP1 PUSH2 0x1729 JUMP JUMPDEST DUP1 PUSH1 0x1F ADD PUSH1 0x20 DUP1 SWAP2 DIV MUL PUSH1 0x20 ADD PUSH1 0x40 MLOAD SWAP1 DUP2 ADD PUSH1 0x40 MSTORE DUP1 SWAP3 SWAP2 SWAP1 DUP2 DUP2 MSTORE PUSH1 0x20 ADD DUP3 DUP1 SLOAD PUSH2 0x878 SWAP1 PUSH2 0x1729 JUMP JUMPDEST DUP1 ISZERO PUSH2 0x8C3 JUMPI DUP1 PUSH1 0x1F LT PUSH2 0x89A JUMPI PUSH2 0x100 DUP1 DUP4 SLOAD DIV MUL DUP4 MSTORE SWAP2 PUSH1 0x20 ADD SWAP2 PUSH2 0x8C3 JUMP JUMPDEST DUP3 ADD SWAP2 SWAP1 PUSH0 MSTORE PUSH1 0x20 PUSH0 KECCAK256 SWAP1 JUMPDEST DUP2 SLOAD DUP2 MSTORE SWAP1 PUSH1 0x1 ADD SWAP1 PUSH1 0x20 ADD DUP1 DUP4 GT PUSH2 0x8A6 JUMPI DUP3 SWAP1 SUB PUSH1 0x1F AND DUP3 ADD SWAP2 JUMPDEST POP POP POP POP POP SWAP1 DUP1 PUSH1 0x2 ADD SLOAD SWAP1 DUP1 PUSH1 0x3 ADD PUSH0 SWAP1 SLOAD SWAP1 PUSH2 0x100 EXP SWAP1 DIV PUSH1 0xFF AND SWAP1 POP DUP5 JUMP JUMPDEST PUSH1 0x60 DUP1 PUSH0 PUSH0 PUSH0 PUSH1 0x3 PUSH0 DUP8 DUP2 MSTORE PUSH1 0x20 ADD SWAP1 DUP2 MSTORE PUSH1 0x20 ADD PUSH0 KECCAK256 PUSH1 0x40 MLOAD DUP1 PUSH1 0x80 ADD PUSH1 0x40 MSTORE SWAP1 DUP2 PUSH0 DUP3 ADD DUP1 SLOAD PUSH2 0x916 SWAP1 PUSH2 0x1729 JUMP JUMPDEST DUP1 PUSH1 0x1F ADD PUSH1 0x20 DUP1 SWAP2 DIV MUL PUSH1 0x20 ADD PUSH1 0x40 MLOAD SWAP1 DUP2 ADD PUSH1 0x40 MSTORE DUP1 SWAP3 SWAP2 SWAP1 DUP2 DUP2 MSTORE PUSH1 0x20 ADD DUP3 DUP1 SLOAD PUSH2 0x942 SWAP1 PUSH2 0x1729 JUMP JUMPDEST DUP1 ISZERO PUSH2 0x98D JUMPI DUP1 PUSH1 0x1F LT PUSH2 0x964 JUMPI PUSH2 0x100 DUP1 DUP4 SLOAD DIV MUL DUP4 MSTORE SWAP2 PUSH1 0x20 ADD SWAP2 PUSH2 0x98D JUMP JUMPDEST DUP3 ADD SWAP2 SWAP1 PUSH0 MSTORE PUSH1 0x20 PUSH0 KECCAK256 SWAP1 JUMPDEST DUP2 SLOAD DUP2 MSTORE SWAP1 PUSH1 0x1 ADD SWAP1 PUSH1 0x20 ADD DUP1 DUP4 GT PUSH2 0x970 JUMPI DUP3 SWAP1 SUB PUSH1 0x1F AND DUP3 ADD SWAP2 JUMPDEST POP POP POP POP POP DUP2 MSTORE PUSH1 0x20 ADD PUSH1 0x1 DUP3 ADD DUP1 SLOAD PUSH2 0x9A6 SWAP1 PUSH2 0x1729 JUMP JUMPDEST DUP1 PUSH1 0x1F ADD PUSH1 0x20 DUP1 SWAP2 DIV MUL PUSH1 0x20 ADD PUSH1 0x40 MLOAD SWAP1 DUP2 ADD PUSH1 0x40 MSTORE DUP1 SWAP3 SWAP2 SWAP1 DUP2 DUP2 MSTORE PUSH1 0x20 ADD DUP3 DUP1 SLOAD PUSH2 0x9D2 SWAP1 PUSH2 0x1729 JUMP JUMPDEST DUP1 ISZERO PUSH2 0xA1D JUMPI DUP1 PUSH1 0x1F LT PUSH2 0x9F4 JUMPI PUSH2 0x100 DUP1 DUP4 SLOAD DIV MUL DUP4 MSTORE SWAP2 PUSH1 0x20 ADD SWAP2 PUSH2 0xA1D JUMP JUMPDEST DUP3 ADD SWAP2 SWAP1 PUSH0 MSTORE PUSH1 0x20 PUSH0 KECCAK256 SWAP1 JUMPDEST DUP2 SLOAD DUP2 MSTORE SWAP1 PUSH1 0x1 ADD SWAP1 PUSH1 0x20 ADD DUP1 DUP4 GT PUSH2 0xA00 JUMPI DUP3 SWAP1 SUB PUSH1 0x1F AND DUP3 ADD SWAP2 JUMPDEST POP POP POP POP POP DUP2 MSTORE PUSH1 0x20 ADD PUSH1 0x2 DUP3 ADD SLOAD DUP2 MSTORE PUSH1 0x20 ADD PUSH1 0x3 DUP3 ADD PUSH0 SWAP1 SLOAD SWAP1 PUSH2 0x100 EXP SWAP1 DIV PUSH1 0xFF AND ISZERO ISZERO ISZERO ISZERO DUP2 MSTORE POP POP SWAP1 POP DUP1 PUSH0 ADD MLOAD DUP2 PUSH1 0x20 ADD MLOAD DUP3 PUSH1 0x40 ADD MLOAD DUP4 PUSH1 0x60 ADD MLOAD SWAP5 POP SWAP5 POP SWAP5 POP SWAP5 POP POP SWAP2 SWAP4 POP SWAP2 SWAP4 JUMP JUMPDEST PUSH1 0x5 SLOAD DUP2 JUMP JUMPDEST PUSH0 PUSH1 0x1 PUSH0 DUP4 PUSH20 0xFFFFFFFFFFFFFFFFFFFFFFFFFFFFFFFFFFFFFFFF AND PUSH20 0xFFFFFFFFFFFFFFFFFFFFFFFFFFFFFFFFFFFFFFFF AND DUP2 MSTORE PUSH1 0x20 ADD SWAP1 DUP2 MSTORE PUSH1 0x20 ADD PUSH0 KECCAK256 PUSH0 ADD PUSH1 0x1 SWAP1 SLOAD SWAP1 PUSH2 0x100 EXP SWAP1 DIV PUSH1 0xFF AND SWAP1 POP SWAP2 SWAP1 POP JUMP JUMPDEST PUSH1 0x1 PUSH1 0x20 MSTORE DUP1 PUSH0 MSTORE PUSH1 0x40 PUSH0 KECCAK256 PUSH0 SWAP2 POP SWAP1 POP DUP1 PUSH0 ADD PUSH0 SWAP1 SLOAD SWAP1 PUSH2 0x100 EXP SWAP1 DIV PUSH1 0xFF AND SWAP1 DUP1 PUSH0 ADD PUSH1 0x1 SWAP1 SLOAD SWAP1 PUSH2 0x100 EXP SWAP1 DIV PUSH1 0xFF AND SWAP1 DUP1 PUSH1 0x1 ADD DUP1 SLOAD PUSH2 0xB0D SWAP1 PUSH2 0x1729 JUMP JUMPDEST DUP1 PUSH1 0x1F ADD PUSH1 0x20 DUP1 SWAP2 DIV MUL PUSH1 0x20 ADD PUSH1 0x40 MLOAD SWAP1 DUP2 ADD PUSH1 0x40 MSTORE DUP1 SWAP3 SWAP2 SWAP1 DUP2 DUP2 MSTORE PUSH1 0x20 ADD DUP3 DUP1 SLOAD PUSH2 0xB39 SWAP1 PUSH2 0x1729 JUMP JUMPDEST DUP1 ISZERO PUSH2 0xB84 JUMPI DUP1 PUSH1 0x1F LT PUSH2 0xB5B JUMPI PUSH2 0x100 DUP1 DUP4 SLOAD DIV MUL DUP4 MSTORE SWAP2 PUSH1 0x20 ADD SWAP2 PUSH2 0xB84 JUMP JUMPDEST DUP3 ADD SWAP2 SWAP1 PUSH0 MSTORE PUSH1 0x20 PUSH0 KECCAK256 SWAP1 JUMPDEST DUP2 SLOAD DUP2 MSTORE SWAP1 PUSH1 0x1 ADD SWAP1 PUSH1 0x20 ADD DUP1 DUP4 GT PUSH2 0xB67 JUMPI DUP3 SWAP1 SUB PUSH1 0x1F AND DUP3 ADD SWAP2 JUMPDEST POP POP POP POP POP SWAP1 DUP1 PUSH1 0x2 ADD SLOAD SWAP1 DUP1 PUSH1 0x3 ADD SLOAD SWAP1 POP DUP6 JUMP JUMPDEST PUSH1 0x4 SLOAD DUP2 JUMP JUMPDEST PUSH0 PUSH1 0x1 PUSH0 DUP4 PUSH20 0xFFFFFFFFFFFFFFFFFFFFFFFFFFFFFFFFFFFFFFFF AND PUSH20 0xFFFFFFFFFFFFFFFFFFFFFFFFFFFFFFFFFFFFFFFF AND DUP2 MSTORE PUSH1 0x20 ADD SWAP1 DUP2 MSTORE PUSH1 0x20 ADD PUSH0 KECCAK256 PUSH0 ADD PUSH0 SWAP1 SLOAD SWAP1 PUSH2 0x100 EXP SWAP1 DIV PUSH1 0xFF AND SWAP1 POP SWAP2 SWAP1 POP JUMP JUMPDEST PUSH1 0x2 DUP2 DUP1 MLOAD PUSH1 0x20 DUP2 ADD DUP3 ADD DUP1 MLOAD DUP5 DUP3 MSTORE PUSH1 0x20 DUP4 ADD PUSH1 0x20 DUP6 ADD KECCAK256 DUP2 DUP4 MSTORE DUP1 SWAP6 POP POP POP POP POP POP PUSH0 SWAP2 POP SLOAD SWAP1 PUSH2 0x100 EXP SWAP1 DIV PUSH1 0xFF AND DUP2 JUMP JUMPDEST PUSH1 0x2 DUP4 DUP4 PUSH1 0x40 MLOAD PUSH2 0xC3B SWAP3 SWAP2 SWAP1 PUSH2 0x1A44 JUMP JUMPDEST SWAP1 DUP2 MSTORE PUSH1 0x20 ADD PUSH1 0x40 MLOAD DUP1 SWAP2 SUB SWAP1 KECCAK256 PUSH0 SWAP1 SLOAD SWAP1 PUSH2 0x100 EXP SWAP1 DIV PUSH1 0xFF AND ISZERO PUSH2 0xC96 JUMPI PUSH1 0x40 MLOAD PUSH32 0x8C379A000000000000000000000000000000000000000000000000000000000 DUP2 MSTORE PUSH1 0x4 ADD PUSH2 0xC8D SWAP1 PUSH2 0x1AA6 JUMP JUMPDEST PUSH1 0x40 MLOAD DUP1 SWAP2 SUB SWAP1 REVERT JUMPDEST PUSH1 0x12 DUP2 LT ISZERO PUSH2 0xCDA JUMPI PUSH1 0x40 MLOAD PUSH32 0x8C379A000000000000000000000000000000000000000000000000000000000 DUP2 MSTORE PUSH1 0x4 ADD PUSH2 0xCD1 SWAP1 PUSH2 0x1B0E JUMP JUMPDEST PUSH1 0x40 MLOAD DUP1 SWAP2 SUB SWAP1 REVERT JUMPDEST PUSH1 0x40 MLOAD DUP1 PUSH1 0xA0 ADD PUSH1 0x40 MSTORE DUP1 PUSH1 0x1 ISZERO ISZERO DUP2 MSTORE PUSH1 0x20 ADD PUSH0 ISZERO ISZERO DUP2 MSTORE PUSH1 0x20 ADD DUP5 DUP5 DUP1 DUP1 PUSH1 0x1F ADD PUSH1 0x20 DUP1 SWAP2 DIV MUL PUSH1 0x20 ADD PUSH1 0x40 MLOAD SWAP1 DUP2 ADD PUSH1 0x40 MSTORE DUP1 SWAP4 SWAP3 SWAP2 SWAP1 DUP2 DUP2 MSTORE PUSH1 0x20 ADD DUP4 DUP4 DUP1 DUP3 DUP5 CALLDATACOPY PUSH0 DUP2 DUP5 ADD MSTORE PUSH1 0x1F NOT PUSH1 0x1F DUP3 ADD AND SWAP1 POP DUP1 DUP4 ADD SWAP3 POP POP POP POP POP POP POP DUP2 MSTORE PUSH1 0x20 ADD DUP3 DUP2 MSTORE PUSH1 0x20 ADD PUSH0 DUP2 MSTORE POP PUSH1 0x1 PUSH0 CALLER PUSH20 0xFFFFFFFFFFFFFFFFFFFFFFFFFFFFFFFFFFFFFFFF AND PUSH20 0xFFFFFFFFFFFFFFFFFFFFFFFFFFFFFFFFFFFFFFFF AND DUP2 MSTORE PUSH1 0x20 ADD SWAP1 DUP2 MSTORE PUSH1 0x20 ADD PUSH0 KECCAK256 PUSH0 DUP3 ADD MLOAD DUP2 PUSH0 ADD PUSH0 PUSH2 0x100 EXP DUP2 SLOAD DUP2 PUSH1 0xFF MUL NOT AND SWAP1 DUP4 ISZERO ISZERO MUL OR SWAP1 SSTORE POP PUSH1 0x20 DUP3 ADD MLOAD DUP2 PUSH0 ADD PUSH1 0x1 PUSH2 0x100 EXP DUP2 SLOAD DUP2 PUSH1 0xFF MUL NOT AND SWAP1 DUP4 ISZERO ISZERO MUL OR SWAP1 SSTORE POP PUSH1 0x40 DUP3 ADD MLOAD DUP2 PUSH1 0x1 ADD SWAP1 DUP2 PUSH2 0xDD7 SWAP2 SWAP1 PUSH2 0x18F9 JUMP JUMPDEST POP PUSH1 0x60 DUP3 ADD MLOAD DUP2 PUSH1 0x2 ADD SSTORE PUSH1 0x80 DUP3 ADD MLOAD DUP2 PUSH1 0x3 ADD SSTORE SWAP1 POP POP PUSH1 0x1 PUSH1 0x2 DUP5 DUP5 PUSH1 0x40 MLOAD PUSH2 0xE03 SWAP3 SWAP2 SWAP1 PUSH2 0x1A44 JUMP JUMPDEST SWAP1 DUP2 MSTORE PUSH1 0x20 ADD PUSH1 0x40 MLOAD DUP1 SWAP2 SUB SWAP1 KECCAK256 PUSH0 PUSH2 0x100 EXP DUP2 SLOAD DUP2 PUSH1 0xFF MUL NOT AND SWAP1 DUP4 ISZERO ISZERO MUL OR SWAP1 SSTORE POP PUSH1 0x5 PUSH0 DUP2 SLOAD DUP1 SWAP3 SWAP2 SWAP1 PUSH2 0xE39 SWAP1 PUSH2 0x15BF JUMP JUMPDEST SWAP2 SWAP1 POP SSTORE POP CALLER PUSH20 0xFFFFFFFFFFFFFFFFFFFFFFFFFFFFFFFFFFFFFFFF AND PUSH32 0xFFEB7702BE7DCD8FEE170D954B70AFB9A7C78F7F5CFF232D037E7B9D8243356A DUP5 DUP5 PUSH1 0x40 MLOAD PUSH2 0xE86 SWAP3 SWAP2 SWAP1 PUSH2 0x19F4 JUMP JUMPDEST PUSH1 0x40 MLOAD DUP1 SWAP2 SUB SWAP1 LOG2 POP POP POP JUMP JUMPDEST PUSH0 PUSH0 SWAP1 SLOAD SWAP1 PUSH2 0x100 EXP SWAP1 DIV PUSH20 0xFFFFFFFFFFFFFFFFFFFFFFFFFFFFFFFFFFFFFFFF AND DUP2 JUMP JUMPDEST PUSH0 PUSH1 0x40 MLOAD SWAP1 POP SWAP1 JUMP JUMPDEST PUSH0 PUSH0 REVERT JUMPDEST PUSH0 PUSH0 REVERT JUMPDEST PUSH0 DUP2 SWAP1 POP SWAP2 SWAP1 POP JUMP JUMPDEST PUSH2 0xEDA DUP2 PUSH2 0xEC8 JUMP JUMPDEST DUP2 EQ PUSH2 0xEE4 JUMPI PUSH0 PUSH0 REVERT JUMPDEST POP JUMP JUMPDEST PUSH0 DUP2 CALLDATALOAD SWAP1 POP PUSH2 0xEF5 DUP2 PUSH2 0xED1 JUMP JUMPDEST SWAP3 SWAP2 POP POP JUMP JUMPDEST PUSH0 PUSH1 0x20 DUP3 DUP5 SUB SLT ISZERO PUSH2 0xF10 JUMPI PUSH2 0xF0F PUSH2 0xEC0 JUMP JUMPDEST JUMPDEST PUSH0 PUSH2 0xF1D DUP5 DUP3 DUP6 ADD PUSH2 0xEE7 JUMP JUMPDEST SWAP2 POP POP SWAP3 SWAP2 POP POP JUMP JUMPDEST PUSH0 PUSH0 REVERT JUMPDEST PUSH0 PUSH0 REVERT JUMPDEST PUSH0 PUSH0 REVERT JUMPDEST PUSH0 PUSH0 DUP4 PUSH1 0x1F DUP5 ADD SLT PUSH2 0xF47 JUMPI PUSH2 0xF46 PUSH2 0xF26 JUMP JUMPDEST JUMPDEST DUP3 CALLDATALOAD SWAP1 POP PUSH8 0xFFFFFFFFFFFFFFFF DUP2 GT ISZERO PUSH2 0xF64 JUMPI PUSH2 0xF63 PUSH2 0xF2A JUMP JUMPDEST JUMPDEST PUSH1 0x20 DUP4 ADD SWAP2 POP DUP4 PUSH1 0x1 DUP3 MUL DUP4 ADD GT ISZERO PUSH2 0xF80 JUMPI PUSH2 0xF7F PUSH2 0xF2E JUMP JUMPDEST JUMPDEST SWAP3 POP SWAP3 SWAP1 POP JUMP JUMPDEST PUSH0 PUSH0 PUSH0 PUSH0 PUSH1 0x40 DUP6 DUP8 SUB SLT ISZERO PUSH2 0xF9F JUMPI PUSH2 0xF9E PUSH2 0xEC0 JUMP JUMPDEST JUMPDEST PUSH0 DUP6 ADD CALLDATALOAD PUSH8 0xFFFFFFFFFFFFFFFF DUP2 GT ISZERO PUSH2 0xFBC JUMPI PUSH2 0xFBB PUSH2 0xEC4 JUMP JUMPDEST JUMPDEST PUSH2 0xFC8 DUP8 DUP3 DUP9 ADD PUSH2 0xF32 JUMP JUMPDEST SWAP5 POP SWAP5 POP POP PUSH1 0x20 DUP6 ADD CALLDATALOAD PUSH8 0xFFFFFFFFFFFFFFFF DUP2 GT ISZERO PUSH2 0xFEB JUMPI PUSH2 0xFEA PUSH2 0xEC4 JUMP JUMPDEST JUMPDEST PUSH2 0xFF7 DUP8 DUP3 DUP9 ADD PUSH2 0xF32 JUMP JUMPDEST SWAP3 POP SWAP3 POP POP SWAP3 SWAP6 SWAP2 SWAP5 POP SWAP3 POP JUMP JUMPDEST PUSH0 DUP2 MLOAD SWAP1 POP SWAP2 SWAP1 POP JUMP JUMPDEST PUSH0 DUP3 DUP3 MSTORE PUSH1 0x20 DUP3 ADD SWAP1 POP SWAP3 SWAP2 POP POP JUMP JUMPDEST DUP3 DUP2 DUP4 MCOPY PUSH0 DUP4 DUP4 ADD MSTORE POP POP POP JUMP JUMPDEST PUSH0 PUSH1 0x1F NOT PUSH1 0x1F DUP4 ADD AND SWAP1 POP SWAP2 SWAP1 POP JUMP JUMPDEST PUSH0 PUSH2 0x1047 DUP3 PUSH2 0x1005 JUMP JUMPDEST PUSH2 0x1051 DUP2 DUP6 PUSH2 0x100F JUMP JUMPDEST SWAP4 POP PUSH2 0x1061 DUP2 DUP6 PUSH1 0x20 DUP7 ADD PUSH2 0x101F JUMP JUMPDEST PUSH2 0x106A DUP2 PUSH2 0x102D JUMP JUMPDEST DUP5 ADD SWAP2 POP POP SWAP3 SWAP2 POP POP JUMP JUMPDEST PUSH2 0x107E DUP2 PUSH2 0xEC8 JUMP JUMPDEST DUP3 MSTORE POP POP JUMP JUMPDEST PUSH0 DUP2 ISZERO ISZERO SWAP1 POP SWAP2 SWAP1 POP JUMP JUMPDEST PUSH2 0x1098 DUP2 PUSH2 0x1084 JUMP JUMPDEST DUP3 MSTORE POP POP JUMP JUMPDEST PUSH0 PUSH1 0x80 DUP3 ADD SWAP1 POP DUP2 DUP2 SUB PUSH0 DUP4 ADD MSTORE PUSH2 0x10B6 DUP2 DUP8 PUSH2 0x103D JUMP JUMPDEST SWAP1 POP DUP2 DUP2 SUB PUSH1 0x20 DUP4 ADD MSTORE PUSH2 0x10CA DUP2 DUP7 PUSH2 0x103D JUMP JUMPDEST SWAP1 POP PUSH2 0x10D9 PUSH1 0x40 DUP4 ADD DUP6 PUSH2 0x1075 JUMP JUMPDEST PUSH2 0x10E6 PUSH1 0x60 DUP4 ADD DUP5 PUSH2 0x108F JUMP JUMPDEST SWAP6 SWAP5 POP POP POP POP POP JUMP JUMPDEST PUSH0 PUSH1 0x20 DUP3 ADD SWAP1 POP PUSH2 0x1102 PUSH0 DUP4 ADD DUP5 PUSH2 0x1075 JUMP JUMPDEST SWAP3 SWAP2 POP POP JUMP JUMPDEST PUSH0 PUSH20 0xFFFFFFFFFFFFFFFFFFFFFFFFFFFFFFFFFFFFFFFF DUP3 AND SWAP1 POP SWAP2 SWAP1 POP JUMP JUMPDEST PUSH0 PUSH2 0x1131 DUP3 PUSH2 0x1108 JUMP JUMPDEST SWAP1 POP SWAP2 SWAP1 POP JUMP JUMPDEST PUSH2 0x1141 DUP2 PUSH2 0x1127 JUMP JUMPDEST DUP2 EQ PUSH2 0x114B JUMPI PUSH0 PUSH0 REVERT JUMPDEST POP JUMP JUMPDEST PUSH0 DUP2 CALLDATALOAD SWAP1 POP PUSH2 0x115C DUP2 PUSH2 0x1138 JUMP JUMPDEST SWAP3 SWAP2 POP POP JUMP JUMPDEST PUSH0 PUSH1 0x20 DUP3 DUP5 SUB SLT ISZERO PUSH2 0x1177 JUMPI PUSH2 0x1176 PUSH2 0xEC0 JUMP JUMPDEST JUMPDEST PUSH0 PUSH2 0x1184 DUP5 DUP3 DUP6 ADD PUSH2 0x114E JUMP JUMPDEST SWAP2 POP POP SWAP3 SWAP2 POP POP JUMP JUMPDEST PUSH0 PUSH1 0x20 DUP3 ADD SWAP1 POP PUSH2 0x11A0 PUSH0 DUP4 ADD DUP5 PUSH2 0x108F JUMP JUMPDEST SWAP3 SWAP2 POP POP JUMP JUMPDEST PUSH0 PUSH1 0xA0 DUP3 ADD SWAP1 POP PUSH2 0x11B9 PUSH0 DUP4 ADD DUP9 PUSH2 0x108F JUMP JUMPDEST PUSH2 0x11C6 PUSH1 0x20 DUP4 ADD DUP8 PUSH2 0x108F JUMP JUMPDEST DUP2 DUP2 SUB PUSH1 0x40 DUP4 ADD MSTORE PUSH2 0x11D8 DUP2 DUP7 PUSH2 0x103D JUMP JUMPDEST SWAP1 POP PUSH2 0x11E7 PUSH1 0x60 DUP4 ADD DUP6 PUSH2 0x1075 JUMP JUMPDEST PUSH2 0x11F4 PUSH1 0x80 DUP4 ADD DUP5 PUSH2 0x1075 JUMP JUMPDEST SWAP7 SWAP6 POP POP POP POP POP POP JUMP JUMPDEST PUSH0 PUSH0 REVERT JUMPDEST PUSH32 0x4E487B7100000000000000000000000000000000000000000000000000000000 PUSH0 MSTORE PUSH1 0x41 PUSH1 0x4 MSTORE PUSH1 0x24 PUSH0 REVERT JUMPDEST PUSH2 0x1238 DUP3 PUSH2 0x102D JUMP JUMPDEST DUP2 ADD DUP2 DUP2 LT PUSH8 0xFFFFFFFFFFFFFFFF DUP3 GT OR ISZERO PUSH2 0x1257 JUMPI PUSH2 0x1256 PUSH2 0x1202 JUMP JUMPDEST JUMPDEST DUP1 PUSH1 0x40 MSTORE POP POP POP JUMP JUMPDEST PUSH0 PUSH2 0x1269 PUSH2 0xEB7 JUMP JUMPDEST SWAP1 POP PUSH2 0x1275 DUP3 DUP3 PUSH2 0x122F JUMP JUMPDEST SWAP2 SWAP1 POP JUMP JUMPDEST PUSH0 PUSH8 0xFFFFFFFFFFFFFFFF DUP3 GT ISZERO PUSH2 0x1294 JUMPI PUSH2 0x1293 PUSH2 0x1202 JUMP JUMPDEST JUMPDEST PUSH2 0x129D DUP3 PUSH2 0x102D JUMP JUMPDEST SWAP1 POP PUSH1 0x20 DUP2 ADD SWAP1 POP SWAP2 SWAP1 POP JUMP JUMPDEST DUP3 DUP2 DUP4 CALLDATACOPY PUSH0 DUP4 DUP4 ADD MSTORE POP POP POP JUMP JUMPDEST PUSH0 PUSH2 0x12CA PUSH2 0x12C5 DUP5 PUSH2 0x127A JUMP JUMPDEST PUSH2 0x1260 JUMP JUMPDEST SWAP1 POP DUP3 DUP2 MSTORE PUSH1 0x20 DUP2 ADD DUP5 DUP5 DUP5 ADD GT ISZERO PUSH2 0x12E6 JUMPI PUSH2 0x12E5 PUSH2 0x11FE JUMP JUMPDEST JUMPDEST PUSH2 0x12F1 DUP5 DUP3 DUP6 PUSH2 0x12AA JUMP JUMPDEST POP SWAP4 SWAP3 POP POP POP JUMP JUMPDEST PUSH0 DUP3 PUSH1 0x1F DUP4 ADD SLT PUSH2 0x130D JUMPI PUSH2 0x130C PUSH2 0xF26 JUMP JUMPDEST JUMPDEST DUP2 CALLDATALOAD PUSH2 0x131D DUP5 DUP3 PUSH1 0x20 DUP7 ADD PUSH2 0x12B8 JUMP JUMPDEST SWAP2 POP POP SWAP3 SWAP2 POP POP JUMP JUMPDEST PUSH0 PUSH1 0x20 DUP3 DUP5 SUB SLT ISZERO PUSH2 0x133B JUMPI PUSH2 0x133A PUSH2 0xEC0 JUMP JUMPDEST JUMPDEST PUSH0 DUP3 ADD CALLDATALOAD PUSH8 0xFFFFFFFFFFFFFFFF DUP2 GT ISZERO PUSH2 0x1358 JUMPI PUSH2 0x1357 PUSH2 0xEC4 JUMP JUMPDEST JUMPDEST PUSH2 0x1364 DUP5 DUP3 DUP6 ADD PUSH2 0x12F9 JUMP JUMPDEST SWAP2 POP POP SWAP3 SWAP2 POP POP JUMP JUMPDEST PUSH0 PUSH0 PUSH0 PUSH1 0x40 DUP5 DUP7 SUB SLT ISZERO PUSH2 0x1384 JUMPI PUSH2 0x1383 PUSH2 0xEC0 JUMP JUMPDEST JUMPDEST PUSH0 DUP5 ADD CALLDATALOAD PUSH8 0xFFFFFFFFFFFFFFFF DUP2 GT ISZERO PUSH2 0x13A1 JUMPI PUSH2 0x13A0 PUSH2 0xEC4 JUMP JUMPDEST JUMPDEST PUSH2 0x13AD DUP7 DUP3 DUP8 ADD PUSH2 0xF32 JUMP JUMPDEST SWAP4 POP SWAP4 POP POP PUSH1 0x20 PUSH2 0x13C0 DUP7 DUP3 DUP8 ADD PUSH2 0xEE7 JUMP JUMPDEST SWAP2 POP POP SWAP3 POP SWAP3 POP SWAP3 JUMP JUMPDEST PUSH2 0x13D3 DUP2 PUSH2 0x1127 JUMP JUMPDEST DUP3 MSTORE POP POP JUMP JUMPDEST PUSH0 PUSH1 0x20 DUP3 ADD SWAP1 POP PUSH2 0x13EC PUSH0 DUP4 ADD DUP5 PUSH2 0x13CA JUMP JUMPDEST SWAP3 SWAP2 POP POP JUMP JUMPDEST PUSH32 0x566F746572206E6F742072656769737465726564000000000000000000000000 PUSH0 DUP3 ADD MSTORE POP JUMP JUMPDEST PUSH0 PUSH2 0x1426 PUSH1 0x14 DUP4 PUSH2 0x100F JUMP JUMPDEST SWAP2 POP PUSH2 0x1431 DUP3 PUSH2 0x13F2 JUMP JUMPDEST PUSH1 0x20 DUP3 ADD SWAP1 POP SWAP2 SWAP1 POP JUMP JUMPDEST PUSH0 PUSH1 0x20 DUP3 ADD SWAP1 POP DUP2 DUP2 SUB PUSH0 DUP4 ADD MSTORE PUSH2 0x1453 DUP2 PUSH2 0x141A JUMP JUMPDEST SWAP1 POP SWAP2 SWAP1 POP JUMP JUMPDEST PUSH32 0x416C726561647920766F74656400000000000000000000000000000000000000 PUSH0 DUP3 ADD MSTORE POP JUMP JUMPDEST PUSH0 PUSH2 0x148E PUSH1 0xD DUP4 PUSH2 0x100F JUMP JUMPDEST SWAP2 POP PUSH2 0x1499 DUP3 PUSH2 0x145A JUMP JUMPDEST PUSH1 0x20 DUP3 ADD SWAP1 POP SWAP2 SWAP1 POP JUMP JUMPDEST PUSH0 PUSH1 0x20 DUP3 ADD SWAP1 POP DUP2 DUP2 SUB PUSH0 DUP4 ADD MSTORE PUSH2 0x14BB DUP2 PUSH2 0x1482 JUMP JUMPDEST SWAP1 POP SWAP2 SWAP1 POP JUMP JUMPDEST PUSH32 0x496E76616C69642063616E646964617465000000000000000000000000000000 PUSH0 DUP3 ADD MSTORE POP JUMP JUMPDEST PUSH0 PUSH2 0x14F6 PUSH1 0x11 DUP4 PUSH2 0x100F JUMP JUMPDEST SWAP2 POP PUSH2 0x1501 DUP3 PUSH2 0x14C2 JUMP JUMPDEST PUSH1 0x20 DUP3 ADD SWAP1 POP SWAP2 SWAP1 POP JUMP JUMPDEST PUSH0 PUSH1 0x20 DUP3 ADD SWAP1 POP DUP2 DUP2 SUB PUSH0 DUP4 ADD MSTORE PUSH2 0x1523 DUP2 PUSH2 0x14EA JUMP JUMPDEST SWAP1 POP SWAP2 SWAP1 POP JUMP JUMPDEST PUSH32 0x43616E646964617465206E6F7420616374697665000000000000000000000000 PUSH0 DUP3 ADD MSTORE POP JUMP JUMPDEST PUSH0 PUSH2 0x155E PUSH1 0x14 DUP4 PUSH2 0x100F JUMP JUMPDEST SWAP2 POP PUSH2 0x1569 DUP3 PUSH2 0x152A JUMP JUMPDEST PUSH1 0x20 DUP3 ADD SWAP1 POP SWAP2 SWAP1 POP JUMP JUMPDEST PUSH0 PUSH1 0x20 DUP3 ADD SWAP1 POP DUP2 DUP2 SUB PUSH0 DUP4 ADD MSTORE PUSH2 0x158B DUP2 PUSH2 0x1552 JUMP JUMPDEST SWAP1 POP SWAP2 SWAP1 POP JUMP JUMPDEST PUSH32 0x4E487B7100000000000000000000000000000000000000000000000000000000 PUSH0 MSTORE PUSH1 0x11 PUSH1 0x4 MSTORE PUSH1 0x24 PUSH0 REVERT JUMPDEST PUSH0 PUSH2 0x15C9 DUP3 PUSH2 0xEC8 JUMP JUMPDEST SWAP2 POP PUSH32 0xFFFFFFFFFFFFFFFFFFFFFFFFFFFFFFFFFFFFFFFFFFFFFFFFFFFFFFFFFFFFFFFF DUP3 SUB PUSH2 0x15FB JUMPI PUSH2 0x15FA PUSH2 0x1592 JUMP JUMPDEST JUMPDEST PUSH1 0x1 DUP3 ADD SWAP1 POP SWAP2 SWAP1 POP JUMP JUMPDEST PUSH32 0x4F6E6C792061646D696E2063616E20706572666F726D20746869732061637469 PUSH0 DUP3 ADD MSTORE PUSH32 0x6F6E000000000000000000000000000000000000000000000000000000000000 PUSH1 0x20 DUP3 ADD MSTORE POP JUMP JUMPDEST PUSH0 PUSH2 0x1660 PUSH1 0x22 DUP4 PUSH2 0x100F JUMP JUMPDEST SWAP2 POP PUSH2 0x166B DUP3 PUSH2 0x1606 JUMP JUMPDEST PUSH1 0x40 DUP3 ADD SWAP1 POP SWAP2 SWAP1 POP JUMP JUMPDEST PUSH0 PUSH1 0x20 DUP3 ADD SWAP1 POP DUP2 DUP2 SUB PUSH0 DUP4 ADD MSTORE PUSH2 0x168D DUP2 PUSH2 0x1654 JUMP JUMPDEST SWAP1 POP SWAP2 SWAP1 POP JUMP JUMPDEST PUSH32 0x4E616D652063616E6E6F7420626520656D707479000000000000000000000000 PUSH0 DUP3 ADD MSTORE POP JUMP JUMPDEST PUSH0 PUSH2 0x16C8 PUSH1 0x14 DUP4 PUSH2 0x100F JUMP JUMPDEST SWAP2 POP PUSH2 0x16D3 DUP3 PUSH2 0x1694 JUMP JUMPDEST PUSH1 0x20 DUP3 ADD SWAP1 POP SWAP2 SWAP1 POP JUMP JUMPDEST PUSH0 PUSH1 0x20 DUP3 ADD SWAP1 POP DUP2 DUP2 SUB PUSH0 DUP4 ADD MSTORE PUSH2 0x16F5 DUP2 PUSH2 0x16BC JUMP JUMPDEST SWAP1 POP SWAP2 SWAP1 POP JUMP JUMPDEST PUSH32 0x4E487B7100000000000000000000000000000000000000000000000000000000 PUSH0 MSTORE PUSH1 0x22 PUSH1 0x4 MSTORE PUSH1 0x24 PUSH0 REVERT JUMPDEST PUSH0 PUSH1 0x2 DUP3 DIV SWAP1 POP PUSH1 0x1 DUP3 AND DUP1 PUSH2 0x1740 JUMPI PUSH1 0x7F DUP3 AND SWAP2 POP JUMPDEST PUSH1 0x20 DUP3 LT DUP2 SUB PUSH2 0x1753 JUMPI PUSH2 0x1752 PUSH2 0x16FC JUMP JUMPDEST JUMPDEST POP SWAP2 SWAP1 POP JUMP JUMPDEST PUSH0 DUP2 SWAP1 POP DUP2 PUSH0 MSTORE PUSH1 0x20 PUSH0 KECCAK256 SWAP1 POP SWAP2 SWAP1 POP JUMP JUMPDEST PUSH0 PUSH1 0x20 PUSH1 0x1F DUP4 ADD DIV SWAP1 POP SWAP2 SWAP1 POP JUMP JUMPDEST PUSH0 DUP3 DUP3 SHL SWAP1 POP SWAP3 SWAP2 POP POP JUMP JUMPDEST PUSH0 PUSH1 0x8 DUP4 MUL PUSH2 0x17B5 PUSH32 0xFFFFFFFFFFFFFFFFFFFFFFFFFFFFFFFFFFFFFFFFFFFFFFFFFFFFFFFFFFFFFFFF DUP3 PUSH2 0x177A JUMP JUMPDEST PUSH2 0x17BF DUP7 DUP4 PUSH2 0x177A JUMP JUMPDEST SWAP6 POP DUP1 NOT DUP5 AND SWAP4 POP DUP1 DUP7 AND DUP5 OR SWAP3 POP POP POP SWAP4 SWAP3 POP POP POP JUMP JUMPDEST PUSH0 DUP2 SWAP1 POP SWAP2 SWAP1 POP JUMP JUMPDEST PUSH0 PUSH2 0x17FA PUSH2 0x17F5 PUSH2 0x17F0 DUP5 PUSH2 0xEC8 JUMP JUMPDEST PUSH2 0x17D7 JUMP JUMPDEST PUSH2 0xEC8 JUMP JUMPDEST SWAP1 POP SWAP2 SWAP1 POP JUMP JUMPDEST PUSH0 DUP2 SWAP1 POP SWAP2 SWAP1 POP JUMP JUMPDEST PUSH2 0x1813 DUP4 PUSH2 0x17E0 JUMP JUMPDEST PUSH2 0x1827 PUSH2 0x181F DUP3 PUSH2 0x1801 JUMP JUMPDEST DUP5 DUP5 SLOAD PUSH2 0x1786 JUMP JUMPDEST DUP3 SSTORE POP POP POP POP JUMP JUMPDEST PUSH0 PUSH0 SWAP1 POP SWAP1 JUMP JUMPDEST PUSH2 0x183E PUSH2 0x182F JUMP JUMPDEST PUSH2 0x1849 DUP2 DUP5 DUP5 PUSH2 0x180A JUMP JUMPDEST POP POP POP JUMP JUMPDEST JUMPDEST DUP2 DUP2 LT ISZERO PUSH2 0x186C JUMPI PUSH2 0x1861 PUSH0 DUP3 PUSH2 0x1836 JUMP JUMPDEST PUSH1 0x1 DUP2 ADD SWAP1 POP PUSH2 0x184F JUMP JUMPDEST POP POP JUMP JUMPDEST PUSH1 0x1F DUP3 GT ISZERO PUSH2 0x18B1 JUMPI PUSH2 0x1882 DUP2 PUSH2 0x1759 JUMP JUMPDEST PUSH2 0x188B DUP5 PUSH2 0x176B JUMP JUMPDEST DUP2 ADD PUSH1 0x20 DUP6 LT ISZERO PUSH2 0x189A JUMPI DUP2 SWAP1 POP JUMPDEST PUSH2 0x18AE PUSH2 0x18A6 DUP6 PUSH2 0x176B JUMP JUMPDEST DUP4 ADD DUP3 PUSH2 0x184E JUMP JUMPDEST POP POP JUMPDEST POP POP POP JUMP JUMPDEST PUSH0 DUP3 DUP3 SHR SWAP1 POP SWAP3 SWAP2 POP POP JUMP JUMPDEST PUSH0 PUSH2 0x18D1 PUSH0 NOT DUP5 PUSH1 0x8 MUL PUSH2 0x18B6 JUMP JUMPDEST NOT DUP1 DUP4 AND SWAP2 POP POP SWAP3 SWAP2 POP POP JUMP JUMPDEST PUSH0 PUSH2 0x18E9 DUP4 DUP4 PUSH2 0x18C2 JUMP JUMPDEST SWAP2 POP DUP3 PUSH1 0x2 MUL DUP3 OR SWAP1 POP SWAP3 SWAP2 POP POP JUMP JUMPDEST PUSH2 0x1902 DUP3 PUSH2 0x1005 JUMP JUMPDEST PUSH8 0xFFFFFFFFFFFFFFFF DUP2 GT ISZERO PUSH2 0x191B JUMPI PUSH2 0x191A PUSH2 0x1202 JUMP JUMPDEST JUMPDEST PUSH2 0x1925 DUP3 SLOAD PUSH2 0x1729 JUMP JUMPDEST PUSH2 0x1930 DUP3 DUP3 DUP6 PUSH2 0x1870 JUMP JUMPDEST PUSH0 PUSH1 0x20 SWAP1 POP PUSH1 0x1F DUP4 GT PUSH1 0x1 DUP2 EQ PUSH2 0x1961 JUMPI PUSH0 DUP5 ISZERO PUSH2 0x194F JUMPI DUP3 DUP8 ADD MLOAD SWAP1 POP JUMPDEST PUSH2 0x1959 DUP6 DUP3 PUSH2 0x18DE JUMP JUMPDEST DUP7 SSTORE POP PUSH2 0x19C0 JUMP JUMPDEST PUSH1 0x1F NOT DUP5 AND PUSH2 0x196F DUP7 PUSH2 0x1759 JUMP JUMPDEST PUSH0 JUMPDEST DUP3 DUP2 LT ISZERO PUSH2 0x1996 JUMPI DUP5 DUP10 ADD MLOAD DUP3 SSTORE PUSH1 0x1 DUP3 ADD SWAP2 POP PUSH1 0x20 DUP6 ADD SWAP5 POP PUSH1 0x20 DUP2 ADD SWAP1 POP PUSH2 0x1971 JUMP JUMPDEST DUP7 DUP4 LT ISZERO PUSH2 0x19B3 JUMPI DUP5 DUP10 ADD MLOAD PUSH2 0x19AF PUSH1 0x1F DUP10 AND DUP3 PUSH2 0x18C2 JUMP JUMPDEST DUP4 SSTORE POP JUMPDEST PUSH1 0x1 PUSH1 0x2 DUP9 MUL ADD DUP9 SSTORE POP POP POP JUMPDEST POP POP POP POP POP POP JUMP JUMPDEST PUSH0 PUSH2 0x19D3 DUP4 DUP6 PUSH2 0x100F JUMP JUMPDEST SWAP4 POP PUSH2 0x19E0 DUP4 DUP6 DUP5 PUSH2 0x12AA JUMP JUMPDEST PUSH2 0x19E9 DUP4 PUSH2 0x102D JUMP JUMPDEST DUP5 ADD SWAP1 POP SWAP4 SWAP3 POP POP POP JUMP JUMPDEST PUSH0 PUSH1 0x20 DUP3 ADD SWAP1 POP DUP2 DUP2 SUB PUSH0 DUP4 ADD MSTORE PUSH2 0x1A0D DUP2 DUP5 DUP7 PUSH2 0x19C8 JUMP JUMPDEST SWAP1 POP SWAP4 SWAP3 POP POP POP JUMP JUMPDEST PUSH0 DUP2 SWAP1 POP SWAP3 SWAP2 POP POP JUMP JUMPDEST PUSH0 PUSH2 0x1A2B DUP4 DUP6 PUSH2 0x1A16 JUMP JUMPDEST SWAP4 POP PUSH2 0x1A38 DUP4 DUP6 DUP5 PUSH2 0x12AA JUMP JUMPDEST DUP3 DUP5 ADD SWAP1 POP SWAP4 SWAP3 POP POP POP JUMP JUMPDEST PUSH0 PUSH2 0x1A50 DUP3 DUP5 DUP7 PUSH2 0x1A20 JUMP JUMPDEST SWAP2 POP DUP2 SWAP1 POP SWAP4 SWAP3 POP POP POP JUMP JUMPDEST PUSH32 0x4161646861617220616C72656164792072656769737465726564000000000000 PUSH0 DUP3 ADD MSTORE POP JUMP JUMPDEST PUSH0 PUSH2 0x1A90 PUSH1 0x1A DUP4 PUSH2 0x100F JUMP JUMPDEST SWAP2 POP PUSH2 0x1A9B DUP3 PUSH2 0x1A5C JUMP JUMPDEST PUSH1 0x20 DUP3 ADD SWAP1 POP SWAP2 SWAP1 POP JUMP JUMPDEST PUSH0 PUSH1 0x20 DUP3 ADD SWAP1 POP DUP2 DUP2 SUB PUSH0 DUP4 ADD MSTORE PUSH2 0x1ABD DUP2 PUSH2 0x1A84 JUMP JUMPDEST SWAP1 POP SWAP2 SWAP1 POP JUMP JUMPDEST PUSH32 0x4D757374206265203138206F72206F6C64657200000000000000000000000000 PUSH0 DUP3 ADD MSTORE POP JUMP JUMPDEST PUSH0 PUSH2 0x1AF8 PUSH1 0x13 DUP4 PUSH2 0x100F JUMP JUMPDEST SWAP2 POP PUSH2 0x1B03 DUP3 PUSH2 0x1AC4 JUMP JUMPDEST PUSH1 0x20 DUP3 ADD SWAP1 POP SWAP2 SWAP1 POP JUMP JUMPDEST PUSH0 PUSH1 0x20 DUP3 ADD SWAP1 POP DUP2 DUP2 SUB PUSH0 DUP4 ADD MSTORE PUSH2 0x1B25 DUP2 PUSH2 0x1AEC JUMP JUMPDEST SWAP1 POP SWAP2 SWAP1 POP JUMP INVALID LOG2 PUSH5 0x6970667358 0x22 SLT KECCAK256 PREVRANDAO EQ 0xC6 0x4F CREATE2 EXTDELEGATECALL 0xD8 0xF6 0xC2 MSIZE SWAP14 DELEGATECALL DUP3 ADD SLT PUSH23 0x1D23361392A423390BE941540FCDB8D364736F6C634300 ADDMOD 0x1E STOP CALLER "
				},
				"gasEstimates": {
					"creation": {
						"codeDepositCost": "1402000",
						"executionCost": "25727",
						"totalCost": "1427727"
					},
					"external": {
						"aadhaarRegistered(string)": "infinite",
						"addCandidate(string,string)": "infinite",
						"admin()": "2617",
						"candidateCount()": "2447",
						"candidates(uint256)": "infinite",
						"getCandidate(uint256)": "infinite",
						"hasUserVoted(address)": "3037",
						"isRegistered(address)": "2919",
						"registerVoter(string,uint256)": "infinite",
						"vote(uint256)": "infinite",
						"voterCount()": "2514",
						"voters(address)": "infinite"
					}
				},
				"methodIdentifiers": {
					"aadhaarRegistered(string)": "d771fe7e",
					"addCandidate(string,string)": "26541b56",
					"admin()": "f851a440",
					"candidateCount()": "a9a981a3",
					"candidates(uint256)": "3477ee2e",
					"getCandidate(uint256)": "35b8e820",
					"hasUserVoted(address)": "7fabe80a",
					"isRegistered(address)": "c3c5a547",
					"registerVoter(string,uint256)": "e661ea5f",
					"vote(uint256)": "0121b93f",
					"voterCount()": "42169e48",
					"voters(address)": "a3ec138d"
				}
			},
			"storageLayout": {
				"storage": [
					{
						"astId": 23,
						"contract": "EVoting.sol:EVoting",
						"label": "admin",
						"offset": 0,
						"slot": "0",
						"type": "t_address"
					},
					{
						"astId": 28,
						"contract": "EVoting.sol:EVoting",
						"label": "voters",
						"offset": 0,
						"slot": "1",
						"type": "t_mapping(t_address,t_struct(Voter)12_storage)"
					},
					{
						"astId": 32,
						"contract": "EVoting.sol:EVoting",
						"label": "aadhaarRegistered",
						"offset": 0,
						"slot": "2",
						"type": "t_mapping(t_string_memory_ptr,t_bool)"
					},
					{
						"astId": 37,
						"contract": "EVoting.sol:EVoting",
						"label": "candidates",
						"offset": 0,
						"slot": "3",
						"type": "t_mapping(t_uint256,t_struct(Candidate)21_storage)"
					},
					{
						"astId": 39,
						"contract": "EVoting.sol:EVoting",
						"label": "candidateCount",
						"offset": 0,
						"slot": "4",
						"type": "t_uint256"
					},
					{
						"astId": 41,
						"contract": "EVoting.sol:EVoting",
						"label": "voterCount",
						"offset": 0,
						"slot": "5",
						"type": "t_uint256"
					}
				],
				"types": {
					"t_address": {
						"encoding": "inplace",
						"label": "address",
						"numberOfBytes": "20"
					},
					"t_bool": {
						"encoding": "inplace",
						"label": "bool",
						"numberOfBytes": "1"
					},
					"t_mapping(t_address,t_struct(Voter)12_storage)": {
						"encoding": "mapping",
						"key": "t_address",
						"label": "mapping(address => struct EVoting.Voter)",
						"numberOfBytes": "32",
						"value": "t_struct(Voter)12_storage"
					},
					"t_mapping(t_string_memory_ptr,t_bool)": {
						"encoding": "mapping",
						"key": "t_string_memory_ptr",
						"label": "mapping(string => bool)",
						"numberOfBytes": "32",
						"value": "t_bool"
					},
					"t_mapping(t_uint256,t_struct(Candidate)21_storage)": {
						"encoding": "mapping",
						"key": "t_uint256",
						"label": "mapping(uint256 => struct EVoting.Candidate)",
						"numberOfBytes": "32",
						"value": "t_struct(Candidate)21_storage"
					},
					"t_string_memory_ptr": {
						"encoding": "bytes",
						"label": "string",
						"numberOfBytes": "32"
					},
					"t_string_storage": {
						"encoding": "bytes",
						"label": "string",
						"numberOfBytes": "32"
					},
					"t_struct(Candidate)21_storage": {
						"encoding": "inplace",
						"label": "struct EVoting.Candidate",
						"members": [
							{
								"astId": 14,
								"contract": "EVoting.sol:EVoting",
								"label": "name",
								"offset": 0,
								"slot": "0",
								"type": "t_string_storage"
							},
							{
								"astId": 16,
								"contract": "EVoting.sol:EVoting",
								"label": "description",
								"offset": 0,
								"slot": "1",
								"type": "t_string_storage"
							},
							{
								"astId": 18,
								"contract": "EVoting.sol:EVoting",
								"label": "voteCount",
								"offset": 0,
								"slot": "2",
								"type": "t_uint256"
							},
							{
								"astId": 20,
								"contract": "EVoting.sol:EVoting",
								"label": "isActive",
								"offset": 0,
								"slot": "3",
								"type": "t_bool"
							}
						],
						"numberOfBytes": "128"
					},
					"t_struct(Voter)12_storage": {
						"encoding": "inplace",
						"label": "struct EVoting.Voter",
						"members": [
							{
								"astId": 3,
								"contract": "EVoting.sol:EVoting",
								"label": "isRegistered",
								"offset": 0,
								"slot": "0",
								"type": "t_bool"
							},
							{
								"astId": 5,
								"contract": "EVoting.sol:EVoting",
								"label": "hasVoted",
								"offset": 1,
								"slot": "0",
								"type": "t_bool"
							},
							{
								"astId": 7,
								"contract": "EVoting.sol:EVoting",
								"label": "aadhaarHash",
								"offset": 0,
								"slot": "1",
								"type": "t_string_storage"
							},
							{
								"astId": 9,
								"contract": "EVoting.sol:EVoting",
								"label": "age",
								"offset": 0,
								"slot": "2",
								"type": "t_uint256"
							},
							{
								"astId": 11,
								"contract": "EVoting.sol:EVoting",
								"label": "votedCandidateId",
								"offset": 0,
								"slot": "3",
								"type": "t_uint256"
							}
						],
						"numberOfBytes": "128"
					},
					"t_uint256": {
						"encoding": "inplace",
						"label": "uint256",
						"numberOfBytes": "32"
					}
				}
			},
			"userdoc": {
				"kind": "user",
				"methods": {},
				"version": 1
			}
		}
	}
}